{
  "address": "0x3b2A3077ecF80AAfA126dB18f641a148ad3848e8",
  "abi": [
    {
      "inputs": [],
      "stateMutability": "nonpayable",
      "type": "constructor"
    },
    {
      "anonymous": false,
      "inputs": [
        {
          "indexed": false,
          "internalType": "uint256",
          "name": "error",
          "type": "uint256"
        },
        {
          "indexed": false,
          "internalType": "uint256",
          "name": "info",
          "type": "uint256"
        },
        {
          "indexed": false,
          "internalType": "uint256",
          "name": "detail",
          "type": "uint256"
        }
      ],
      "name": "Failure",
      "type": "event"
    },
    {
      "inputs": [
        {
          "internalType": "uint256",
          "name": "newCloseFactorMantissa",
          "type": "uint256"
        }
      ],
      "name": "_setCloseFactor",
      "outputs": [
        {
          "internalType": "uint256",
          "name": "",
          "type": "uint256"
        }
      ],
      "stateMutability": "nonpayable",
      "type": "function"
    },
    {
      "inputs": [
        {
          "internalType": "contract CToken",
          "name": "cToken",
          "type": "address"
        },
        {
          "internalType": "uint256",
          "name": "newCollateralFactorMantissa",
          "type": "uint256"
        }
      ],
      "name": "_setCollateralFactor",
      "outputs": [
        {
          "internalType": "uint256",
          "name": "",
          "type": "uint256"
        }
      ],
      "stateMutability": "nonpayable",
      "type": "function"
    },
    {
      "inputs": [
        {
          "internalType": "uint256",
          "name": "newLiquidationIncentiveMantissa",
          "type": "uint256"
        }
      ],
      "name": "_setLiquidationIncentive",
      "outputs": [
        {
          "internalType": "uint256",
          "name": "",
          "type": "uint256"
        }
      ],
      "stateMutability": "nonpayable",
      "type": "function"
    },
    {
      "inputs": [
        {
          "internalType": "uint256",
          "name": "newMaxAssets",
          "type": "uint256"
        }
      ],
      "name": "_setMaxAssets",
      "outputs": [
        {
          "internalType": "uint256",
          "name": "",
          "type": "uint256"
        }
      ],
      "stateMutability": "nonpayable",
      "type": "function"
    },
    {
      "inputs": [
        {
          "internalType": "contract PriceOracle",
          "name": "newOracle",
          "type": "address"
        }
      ],
      "name": "_setPriceOracle",
      "outputs": [
        {
          "internalType": "uint256",
          "name": "",
          "type": "uint256"
        }
      ],
      "stateMutability": "nonpayable",
      "type": "function"
    },
    {
      "inputs": [
        {
          "internalType": "address",
          "name": "_underlyingAddress",
          "type": "address"
        },
        {
          "internalType": "uint256",
          "name": "_phaseOneCutoff",
          "type": "uint256"
        },
        {
          "internalType": "uint256",
          "name": "_phaseTwoCutoff",
          "type": "uint256"
        },
        {
          "internalType": "uint256",
          "name": "_phaseOneDiscountMantissa",
          "type": "uint256"
        },
        {
          "internalType": "uint256",
          "name": "_phaseTwoDiscountMantissa",
          "type": "uint256"
        },
        {
          "internalType": "uint256",
          "name": "_phaseThreeDiscountMantissa",
          "type": "uint256"
        },
        {
          "internalType": "uint256",
          "name": "_collateralFactorMantissa",
          "type": "uint256"
        }
      ],
      "name": "_setVestingNPVConfig",
      "outputs": [
        {
          "internalType": "uint256",
          "name": "",
          "type": "uint256"
        }
      ],
      "stateMutability": "nonpayable",
      "type": "function"
    },
    {
      "inputs": [
        {
          "internalType": "address",
          "name": "_vestingContractAddress",
          "type": "address"
        }
      ],
      "name": "_supportCollateralVault",
      "outputs": [
        {
          "internalType": "uint256",
          "name": "",
          "type": "uint256"
        }
      ],
      "stateMutability": "nonpayable",
      "type": "function"
    },
    {
      "inputs": [
        {
          "internalType": "contract CToken",
          "name": "cToken",
          "type": "address"
        }
      ],
      "name": "_supportMarket",
      "outputs": [
        {
          "internalType": "uint256",
          "name": "",
          "type": "uint256"
        }
      ],
      "stateMutability": "nonpayable",
      "type": "function"
    },
    {
      "inputs": [
        {
          "internalType": "address",
          "name": "",
          "type": "address"
        },
        {
          "internalType": "uint256",
          "name": "",
          "type": "uint256"
        }
      ],
      "name": "accountAssets",
      "outputs": [
        {
          "internalType": "contract CToken",
          "name": "",
          "type": "address"
        }
      ],
      "stateMutability": "view",
      "type": "function"
    },
    {
      "inputs": [
        {
          "internalType": "address",
          "name": "",
          "type": "address"
        }
      ],
      "name": "accountToVesting",
      "outputs": [
        {
          "internalType": "contract IVesting",
          "name": "",
          "type": "address"
        }
      ],
      "stateMutability": "view",
      "type": "function"
    },
    {
      "inputs": [],
      "name": "admin",
      "outputs": [
        {
          "internalType": "address",
          "name": "",
          "type": "address"
        }
      ],
      "stateMutability": "view",
      "type": "function"
    },
    {
      "inputs": [
        {
          "internalType": "address",
          "name": "cToken",
          "type": "address"
        },
        {
          "internalType": "address",
          "name": "borrower",
          "type": "address"
        },
        {
          "internalType": "uint256",
          "name": "borrowAmount",
          "type": "uint256"
        }
      ],
      "name": "borrowAllowed",
      "outputs": [
        {
          "internalType": "uint256",
          "name": "",
          "type": "uint256"
        }
      ],
      "stateMutability": "nonpayable",
      "type": "function"
    },
    {
      "inputs": [
        {
          "internalType": "address",
          "name": "account",
          "type": "address"
        },
        {
          "internalType": "contract CToken",
          "name": "cToken",
          "type": "address"
        }
      ],
      "name": "checkMembership",
      "outputs": [
        {
          "internalType": "bool",
          "name": "",
          "type": "bool"
        }
      ],
      "stateMutability": "view",
      "type": "function"
    },
    {
      "inputs": [],
      "name": "closeFactorMantissa",
      "outputs": [
        {
          "internalType": "uint256",
          "name": "",
          "type": "uint256"
        }
      ],
      "stateMutability": "view",
      "type": "function"
    },
    {
      "inputs": [],
      "name": "comptrollerImplementation",
      "outputs": [
        {
          "internalType": "address",
          "name": "",
          "type": "address"
        }
      ],
      "stateMutability": "view",
      "type": "function"
    },
    {
      "inputs": [
        {
          "internalType": "address[]",
          "name": "cTokens",
          "type": "address[]"
        }
      ],
      "name": "enterMarkets",
      "outputs": [
        {
          "internalType": "uint256[]",
          "name": "",
          "type": "uint256[]"
        }
      ],
      "stateMutability": "nonpayable",
      "type": "function"
    },
    {
      "inputs": [
        {
          "internalType": "address",
          "name": "cTokenAddress",
          "type": "address"
        }
      ],
      "name": "exitMarket",
      "outputs": [
        {
          "internalType": "uint256",
          "name": "",
          "type": "uint256"
        }
      ],
      "stateMutability": "nonpayable",
      "type": "function"
    },
    {
      "inputs": [
        {
          "internalType": "address",
          "name": "account",
          "type": "address"
        }
      ],
      "name": "getAccountLiquidity",
      "outputs": [
        {
          "internalType": "uint256",
          "name": "",
          "type": "uint256"
        },
        {
          "internalType": "uint256",
          "name": "",
          "type": "uint256"
        },
        {
          "internalType": "uint256",
          "name": "",
          "type": "uint256"
        }
      ],
      "stateMutability": "view",
      "type": "function"
    },
    {
      "inputs": [
        {
          "internalType": "address",
          "name": "account",
          "type": "address"
        }
      ],
      "name": "getAssetsIn",
      "outputs": [
        {
          "internalType": "contract CToken[]",
          "name": "",
          "type": "address[]"
        }
      ],
      "stateMutability": "view",
      "type": "function"
    },
    {
      "inputs": [],
      "name": "isComptroller",
      "outputs": [
        {
          "internalType": "bool",
          "name": "",
          "type": "bool"
        }
      ],
      "stateMutability": "view",
      "type": "function"
    },
    {
      "inputs": [
        {
          "internalType": "address",
          "name": "cTokenBorrowed",
          "type": "address"
        },
        {
          "internalType": "contract IVesting",
          "name": "vestingContract",
          "type": "address"
        },
        {
          "internalType": "address",
          "name": "liquidator",
          "type": "address"
        },
        {
          "internalType": "address",
          "name": "borrower",
          "type": "address"
        },
        {
          "internalType": "uint256",
          "name": "repayAmount",
          "type": "uint256"
        }
      ],
      "name": "liquidateBorrowAllowed",
      "outputs": [
        {
          "internalType": "uint256",
          "name": "",
          "type": "uint256"
        }
      ],
      "stateMutability": "nonpayable",
      "type": "function"
    },
    {
      "inputs": [
        {
          "internalType": "address",
          "name": "cTokenBorrowed",
          "type": "address"
        },
        {
          "internalType": "uint256",
          "name": "repayAmount",
          "type": "uint256"
        }
      ],
      "name": "liquidateCalculateSeizeTokens",
      "outputs": [
        {
          "internalType": "uint256",
          "name": "",
          "type": "uint256"
        },
        {
          "internalType": "uint256",
          "name": "",
          "type": "uint256"
        }
      ],
      "stateMutability": "view",
      "type": "function"
    },
    {
      "inputs": [],
      "name": "liquidationIncentiveMantissa",
      "outputs": [
        {
          "internalType": "uint256",
          "name": "",
          "type": "uint256"
        }
      ],
      "stateMutability": "view",
      "type": "function"
    },
    {
      "inputs": [
        {
          "internalType": "contract IVesting",
          "name": "_vestingContract",
          "type": "address"
        }
      ],
      "name": "liquidatorClaimOwedTokens",
      "outputs": [],
      "stateMutability": "nonpayable",
      "type": "function"
    },
    {
      "inputs": [
        {
          "internalType": "address",
          "name": "",
          "type": "address"
        }
      ],
      "name": "markets",
      "outputs": [
        {
          "internalType": "bool",
          "name": "isListed",
          "type": "bool"
        },
        {
          "internalType": "uint256",
          "name": "collateralFactorMantissa",
          "type": "uint256"
        }
      ],
      "stateMutability": "view",
      "type": "function"
    },
    {
      "inputs": [],
      "name": "maxAssets",
      "outputs": [
        {
          "internalType": "uint256",
          "name": "",
          "type": "uint256"
        }
      ],
      "stateMutability": "view",
      "type": "function"
    },
    {
      "inputs": [
        {
          "internalType": "address",
          "name": "cToken",
          "type": "address"
        },
        {
          "internalType": "address",
          "name": "minter",
          "type": "address"
        },
        {
          "internalType": "uint256",
          "name": "mintAmount",
          "type": "uint256"
        }
      ],
      "name": "mintAllowed",
      "outputs": [
        {
          "internalType": "uint256",
          "name": "",
          "type": "uint256"
        }
      ],
      "stateMutability": "nonpayable",
      "type": "function"
    },
    {
      "inputs": [],
      "name": "oracle",
      "outputs": [
        {
          "internalType": "contract PriceOracle",
          "name": "",
          "type": "address"
        }
      ],
      "stateMutability": "view",
      "type": "function"
    },
    {
      "inputs": [],
      "name": "pendingAdmin",
      "outputs": [
        {
          "internalType": "address",
          "name": "",
          "type": "address"
        }
      ],
      "stateMutability": "view",
      "type": "function"
    },
    {
      "inputs": [],
      "name": "pendingComptrollerImplementation",
      "outputs": [
        {
          "internalType": "address",
          "name": "",
          "type": "address"
        }
      ],
      "stateMutability": "view",
      "type": "function"
    },
    {
      "inputs": [
        {
          "internalType": "address",
          "name": "cToken",
          "type": "address"
        },
        {
          "internalType": "address",
          "name": "redeemer",
          "type": "address"
        },
        {
          "internalType": "uint256",
          "name": "redeemTokens",
          "type": "uint256"
        }
      ],
      "name": "redeemAllowed",
      "outputs": [
        {
          "internalType": "uint256",
          "name": "",
          "type": "uint256"
        }
      ],
      "stateMutability": "nonpayable",
      "type": "function"
    },
    {
      "inputs": [
        {
          "internalType": "address",
          "name": "cToken",
          "type": "address"
        },
        {
          "internalType": "address",
          "name": "redeemer",
          "type": "address"
        },
        {
          "internalType": "uint256",
          "name": "redeemAmount",
          "type": "uint256"
        },
        {
          "internalType": "uint256",
          "name": "redeemTokens",
          "type": "uint256"
        }
      ],
      "name": "redeemVerify",
      "outputs": [],
      "stateMutability": "nonpayable",
      "type": "function"
    },
    {
      "inputs": [
        {
          "internalType": "address",
          "name": "_vestingContractAddress",
          "type": "address"
        }
      ],
      "name": "registerVestingContract",
      "outputs": [],
      "stateMutability": "nonpayable",
      "type": "function"
    },
    {
      "inputs": [
        {
          "internalType": "address",
          "name": "cToken",
          "type": "address"
        },
        {
          "internalType": "address",
          "name": "payer",
          "type": "address"
        },
        {
          "internalType": "address",
          "name": "borrower",
          "type": "address"
        },
        {
          "internalType": "uint256",
          "name": "repayAmount",
          "type": "uint256"
        }
      ],
      "name": "repayBorrowAllowed",
      "outputs": [
        {
          "internalType": "uint256",
          "name": "",
          "type": "uint256"
        }
      ],
      "stateMutability": "nonpayable",
      "type": "function"
    },
    {
      "inputs": [
        {
          "internalType": "address",
          "name": "vestingContractWrapper",
          "type": "address"
        },
        {
          "internalType": "address",
          "name": "cTokenBorrowed",
          "type": "address"
        },
        {
          "internalType": "address",
          "name": "liquidator",
          "type": "address"
        },
        {
          "internalType": "address",
          "name": "borrower",
          "type": "address"
        },
        {
          "internalType": "uint256",
          "name": "seizeTokens",
          "type": "uint256"
        }
      ],
      "name": "seizeAllowed",
      "outputs": [
        {
          "internalType": "uint256",
          "name": "",
          "type": "uint256"
        }
      ],
      "stateMutability": "nonpayable",
      "type": "function"
    },
    {
      "inputs": [
        {
          "internalType": "address",
          "name": "_liquidator",
          "type": "address"
        },
        {
          "internalType": "address",
          "name": "_borrower",
          "type": "address"
        },
        {
          "internalType": "uint256",
          "name": "_seizeTokens",
          "type": "uint256"
        },
        {
          "internalType": "contract IVesting",
          "name": "_vestingContract",
          "type": "address"
        }
      ],
      "name": "seizeVestingTokens",
      "outputs": [
        {
          "internalType": "uint256",
          "name": "",
          "type": "uint256"
        }
      ],
      "stateMutability": "nonpayable",
      "type": "function"
    },
    {
      "inputs": [
        {
          "internalType": "address",
          "name": "cToken",
          "type": "address"
        },
        {
          "internalType": "address",
          "name": "src",
          "type": "address"
        },
        {
          "internalType": "address",
          "name": "dst",
          "type": "address"
        },
        {
          "internalType": "uint256",
          "name": "transferTokens",
          "type": "uint256"
        }
      ],
      "name": "transferAllowed",
      "outputs": [
        {
          "internalType": "uint256",
          "name": "",
          "type": "uint256"
        }
      ],
      "stateMutability": "nonpayable",
      "type": "function"
    },
    {
      "inputs": [
        {
          "internalType": "address",
          "name": "owner",
          "type": "address"
        }
      ],
      "name": "vestingCalculateNPV",
      "outputs": [
        {
          "internalType": "uint256",
          "name": "",
          "type": "uint256"
        },
        {
          "internalType": "uint256",
          "name": "",
          "type": "uint256"
        }
      ],
      "stateMutability": "view",
      "type": "function"
    },
    {
      "inputs": [
        {
          "internalType": "contract IVesting",
          "name": "",
          "type": "address"
        }
      ],
      "name": "vestingContractInfo",
      "outputs": [
        {
          "internalType": "bool",
          "name": "isListed",
          "type": "bool"
        },
        {
          "internalType": "bool",
          "name": "enabledAsCollateral",
          "type": "bool"
        },
        {
          "internalType": "address",
          "name": "vestingContractWrapper",
          "type": "address"
        },
        {
          "internalType": "address",
          "name": "unvestedTokenLiquidator",
          "type": "address"
        },
        {
          "internalType": "uint256",
          "name": "amountOwedToLiquidator",
          "type": "uint256"
        }
      ],
      "stateMutability": "view",
      "type": "function"
    },
    {
      "inputs": [],
      "name": "vestingNPVConfig",
      "outputs": [
        {
          "internalType": "address",
          "name": "underlyingAddress",
          "type": "address"
        },
        {
          "internalType": "uint256",
          "name": "phaseOneDiscountMantissa",
          "type": "uint256"
        },
        {
          "internalType": "uint256",
          "name": "phaseTwoDiscountMantissa",
          "type": "uint256"
        },
        {
          "internalType": "uint256",
          "name": "phaseThreeDiscountMantissa",
          "type": "uint256"
        },
        {
          "internalType": "uint256",
          "name": "phaseOneCutoff",
          "type": "uint256"
        },
        {
          "internalType": "uint256",
          "name": "phaseTwoCutoff",
          "type": "uint256"
        },
        {
          "internalType": "uint256",
          "name": "collateralFactorMantissa",
          "type": "uint256"
        }
      ],
      "stateMutability": "view",
      "type": "function"
    },
    {
      "inputs": [
        {
          "internalType": "address",
          "name": "_vestingContractAddress",
          "type": "address"
        }
      ],
      "name": "withdrawVestingContract",
      "outputs": [],
      "stateMutability": "nonpayable",
      "type": "function"
    }
  ],
  "transactionHash": "0x5050c167212d7ab6ea2d036a7101cee6d468b88f6c030d4a6f46d6c1ac70e197",
  "args": [],
  "numDeployments": 1,
  "solcInputHash": "759aa4e86053a63ffc581a694a10b6ce",
  "bytecode": "0x608060405234801561001057600080fd5b506001600955600080546001600160a01b03191633179055615b45806100376000396000f3fe60806040523480156200001157600080fd5b50600436106200028b5760003560e01c80638e8f294b1162000165578063d02f735111620000d5578063dcfbc0c71162000093578063dcfbc0c71462000a08578063e4028eee1462000a12578063e87554461462000a41578063eabe7d911462000a4b578063ede4edd01462000a84578063f851a4401462000aad576200028b565b8063d02f7351146200090e578063d664848e1462000957578063d9226ced1462000980578063da3d454c14620009a0578063dce1544914620009d9576200028b565b8063bb82aa5e1162000123578063bb82aa5e14620007ca578063bdcdc25814620007d4578063c211afa91462000813578063c2998238146200083c578063c8bd45af14620008e5576200028b565b80638e8f294b14620006a7578063929fe9a114620006eb57806394b2294b146200071c578063a76b3fda1462000726578063abfceffc146200074f576200028b565b80634ef4c3e111620002015780635ec88c7911620001bf5780635ec88c7914620005745780635fc7e71e14620005bb5780636a61276714620006045780637625456f14620006515780637dc0d1d0146200069d576200028b565b80634ef4c3e114620004535780634fd42e17146200048c57806351dff98914620004ac57806355ee1fe114620004eb5780635d56b9511462000514576200028b565b8063317b0b77116200024f578063317b0b77146200037957806341e3400614620003995780634458305514620003e15780634ada90af14620004205780634b6d8087146200042a576200028b565b80627e3dd214620002905780631e846c1814620002ae5780631f42141514620002d957806324008a621462000314578063267822471462000353575b600080fd5b6200029a62000ab7565b604080519115158252519081900360200190f35b620002d760048036036020811015620002c657600080fd5b50356001600160a01b031662000abc565b005b6200030260048036036020811015620002f157600080fd5b50356001600160a01b031662000f53565b60408051918252519081900360200190f35b62000302600480360360808110156200032c57600080fd5b506001600160a01b0381358116916020810135821691604082013516906060013562001167565b6200035d6200119f565b604080516001600160a01b039092168252519081900360200190f35b62000302600480360360208110156200039157600080fd5b5035620011ae565b620003c860048036036040811015620003b157600080fd5b506001600160a01b0381351690602001356200128b565b6040805192835260208301919091528051918290030190f35b6200030260048036036080811015620003f957600080fd5b506001600160a01b038135811691602081013582169160408201359160600135166200148b565b62000302620019fd565b620002d7600480360360208110156200044257600080fd5b50356001600160a01b031662001a03565b62000302600480360360608110156200046b57600080fd5b506001600160a01b0381358116916020810135909116906040013562001fb2565b6200030260048036036020811015620004a457600080fd5b503562001feb565b620002d760048036036080811015620004c457600080fd5b506001600160a01b03813581169160208101359091169060408101359060600135620020b2565b62000302600480360360208110156200050357600080fd5b50356001600160a01b03166200210e565b6200053d600480360360208110156200052c57600080fd5b50356001600160a01b031662002151565b60408051951515865293151560208601526001600160a01b0392831685850152911660608401526080830152519081900360a00190f35b6200059d600480360360208110156200058c57600080fd5b50356001600160a01b031662002193565b60408051938452602084019290925282820152519081900360600190f35b62000302600480360360a0811015620005d357600080fd5b506001600160a01b0381358116916020810135821691604082013581169160608101359091169060800135620021cb565b62000302600480360360e08110156200061c57600080fd5b506001600160a01b038135169060208101359060408101359060608101359060808101359060a08101359060c0013562002365565b6200065b620024aa565b604080516001600160a01b0390981688526020880196909652868601949094526060860192909252608085015260a084015260c0830152519081900360e00190f35b6200035d620024ce565b620006d060048036036020811015620006bf57600080fd5b50356001600160a01b0316620024dd565b60408051921515835260208301919091528051918290030190f35b6200029a600480360360408110156200070357600080fd5b506001600160a01b0381358116916020013516620024fc565b620003026200252f565b62000302600480360360208110156200073e57600080fd5b50356001600160a01b031662002535565b62000778600480360360208110156200076757600080fd5b50356001600160a01b031662002634565b60408051602080825283518183015283519192839290830191858101910280838360005b83811015620007b65781810151838201526020016200079c565b505050509050019250505060405180910390f35b6200035d620026bf565b6200030260048036036080811015620007ec57600080fd5b506001600160a01b03813581169160208101358216916040820135169060600135620026ce565b620002d7600480360360208110156200082b57600080fd5b50356001600160a01b0316620026dd565b62000778600480360360208110156200085457600080fd5b8101906020810181356401000000008111156200087057600080fd5b8201836020820111156200088357600080fd5b80359060200191846020830284011164010000000083111715620008a657600080fd5b919080806020026020016040519081016040528093929190818152602001838360200280828437600092019190915250929550620029f1945050505050565b6200035d60048036036020811015620008fd57600080fd5b50356001600160a01b031662002b75565b62000302600480360360a08110156200092657600080fd5b506001600160a01b038135811691602081013582169160408201358116916060810135909116906080013562002b90565b620003c8600480360360208110156200096f57600080fd5b50356001600160a01b031662002cef565b62000302600480360360208110156200099857600080fd5b503562002df3565b6200030260048036036060811015620009b857600080fd5b506001600160a01b0381358116916020810135909116906040013562002e1f565b6200035d60048036036040811015620009f157600080fd5b506001600160a01b03813516906020013562002fe6565b6200035d6200301c565b620003026004803603604081101562000a2a57600080fd5b506001600160a01b0381351690602001356200302b565b62000302620031a5565b620003026004803603606081101562000a6357600080fd5b506001600160a01b03813581169160208101359091169060400135620031ab565b620003026004803603602081101562000a9c57600080fd5b50356001600160a01b0316620031ba565b6200035d620034c7565b600181565b6002600954141562000b15576040805162461bcd60e51b815260206004820152601f60248201527f5265656e7472616e637947756172643a207265656e7472616e742063616c6c00604482015290519081900360640190fd5b60026009556001600160a01b0381811660009081526012602052604090206001015416331462000b4457600080fd5b806001600160a01b0316634e71d92d6040518163ffffffff1660e01b8152600401600060405180830381600087803b15801562000b8057600080fd5b505af115801562000b95573d6000803e3d6000fd5b505050506000816001600160a01b03166319d152fa6040518163ffffffff1660e01b815260040160206040518083038186803b15801562000bd557600080fd5b505afa15801562000bea573d6000803e3d6000fd5b505050506040513d602081101562000c0157600080fd5b50516001600160a01b038381166000908152601260209081526040918290205482516370a0823160e01b81526201000090910484166004820152915192909316926370a0823192602480840193829003018186803b15801562000c6357600080fd5b505afa15801562000c78573d6000803e3d6000fd5b505050506040513d602081101562000c8f57600080fd5b50516001600160a01b038316600090815260126020526040902060020154909150811062000df957816001600160a01b03166319d152fa6040518163ffffffff1660e01b815260040160206040518083038186803b15801562000cf157600080fd5b505afa15801562000d06573d6000803e3d6000fd5b505050506040513d602081101562000d1d57600080fd5b50516001600160a01b038381166000908152601260209081526040808320805460029091015482516323b872dd60e01b815262010000909204861660048301523360248301526044820152905193909416936323b872dd9360648083019491928390030190829087803b15801562000d9457600080fd5b505af115801562000da9573d6000803e3d6000fd5b505050506040513d602081101562000dc057600080fd5b50506001600160a01b0382166000908152601260205260408120600281019190915560010180546001600160a01b031916905562000f4a565b816001600160a01b03166319d152fa6040518163ffffffff1660e01b815260040160206040518083038186803b15801562000e3357600080fd5b505afa15801562000e48573d6000803e3d6000fd5b505050506040513d602081101562000e5f57600080fd5b50516001600160a01b0383811660009081526012602090815260408083205481516323b872dd60e01b8152620100009091048516600482015233602482015260448101879052905193909416936323b872dd9360648083019491928390030190829087803b15801562000ed157600080fd5b505af115801562000ee6573d6000803e3d6000fd5b505050506040513d602081101562000efd57600080fd5b50506001600160a01b03821660009081526012602052604090206002015462000f2d908263ffffffff620034d616565b6001600160a01b0383166000908152601260205260409020600201555b50506001600955565b600080546001600160a01b0316331462000f7d5762000f75600160126200351a565b905062001162565b6001600160a01b038216600090815260126020526040902054829060ff161562000fdd576040805162461bcd60e51b815260206004820152600c60248201526b15985d5b1d081b1a5cdd195960a21b604482015290519081900360640190fd5b806001600160a01b031663e29bc68b6040518163ffffffff1660e01b815260040160206040518083038186803b1580156200101757600080fd5b505afa1580156200102c573d6000803e3d6000fd5b505050506040513d60208110156200104357600080fd5b50506001600160a01b0381811660009081526012602052604081205490916201000090910416620010b65781306040516200107e906200420d565b6001600160a01b03928316815291166020820152604080519182900301906000f080158015620010b2573d6000803e3d6000fd5b5090505b6040805160a0810182526001808252600060208084018281526001600160a01b0387811686880190815260608701858152608088018681528b841687526012909552978520965187549351915160ff199094169015151761ff001916610100911515919091021762010000600160b01b0319166201000092821692909202919091178555945192840180546001600160a01b031916939095169290921790935551600290910155925050505b919050565b6001600160a01b03841660009081526011602052604081205460ff16620011915750600962001197565b60005b90505b949350505050565b6001546001600160a01b031681565b6000620011ba62003583565b620011cd5762000f75600160046200351a565b620011d76200421b565b506040805160208101909152828152620011f06200421b565b50604080516020810190915266b1a2bc2ec500008152620012128282620035cf565b156200122f57620012256005806200351a565b9250505062001162565b620012396200421b565b506040805160208101909152670c7d713b49da000081526200125c8184620035d7565b156200127a576200126f6005806200351a565b935050505062001162565b600585905560005b95945050505050565b600480546040805163fc57d4df60e01b81526001600160a01b038681169482019490945290516000938493849391169163fc57d4df91602480820192602092909190829003018186803b158015620012e257600080fd5b505afa158015620012f7573d6000803e3d6000fd5b505050506040513d60208110156200130e57600080fd5b505160048054600a54604080516341976e0960e01b81526001600160a01b0392831694810194909452519394506000939116916341976e09916024808301926020929190829003018186803b1580156200136757600080fd5b505afa1580156200137c573d6000803e3d6000fd5b505050506040513d60208110156200139357600080fd5b50519050811580620013a3575080155b15620013ba57600d93506000925062001484915050565b6000620013c66200421b565b620013d06200421b565b6000620013e060065487620035de565b935090506000816003811115620013f357fe5b146200140f57600b5b9750600096506200148495505050505050565b62001429836040518060200160405280888152506200361d565b9250905060008160038111156200143c57fe5b146200144a57600b620013fc565b62001456828a62003639565b9450905060008160038111156200146957fe5b146200147757600b620013fc565b6000975092955050505050505b9250929050565b600060026009541415620014e6576040805162461bcd60e51b815260206004820152601f60248201527f5265656e7472616e637947756172643a207265656e7472616e742063616c6c00604482015290519081900360640190fd5b60026009556001600160a01b0380831660009081526012602052604081205490916200151d91620100009004163388888862002b90565b9050801562001561576040805162461bcd60e51b815260206004820152600b60248201526a139bdd08185b1b1bddd95960aa1b604482015290519081900360640190fd5b6001600160a01b03831660009081526012602052604090206002015415620015bb5760405162461bcd60e51b815260040180806020018281038252602281526020018062005acd6022913960400191505060405180910390fd5b856001600160a01b0316856001600160a01b0316141562001623576040805162461bcd60e51b815260206004820152601760248201527f426f72726f776572206973205f6c697175696461746f72000000000000000000604482015290519081900360640190fd5b826001600160a01b0316634e71d92d6040518163ffffffff1660e01b8152600401600060405180830381600087803b1580156200165f57600080fd5b505af115801562001674573d6000803e3d6000fd5b505050506000836001600160a01b03166319d152fa6040518163ffffffff1660e01b815260040160206040518083038186803b158015620016b457600080fd5b505afa158015620016c9573d6000803e3d6000fd5b505050506040513d6020811015620016e057600080fd5b50516001600160a01b038581166000908152601260209081526040918290205482516370a0823160e01b81526201000090910484166004820152915192909316926370a0823192602480840193829003018186803b1580156200174257600080fd5b505afa15801562001757573d6000803e3d6000fd5b505050506040513d60208110156200176e57600080fd5b505190508085116200188957836001600160a01b03166319d152fa6040518163ffffffff1660e01b815260040160206040518083038186803b158015620017b457600080fd5b505afa158015620017c9573d6000803e3d6000fd5b505050506040513d6020811015620017e057600080fd5b50516001600160a01b0385811660009081526012602090815260408083205481516323b872dd60e01b815262010000909104851660048201528c85166024820152604481018b9052905193909416936323b872dd9360648083019491928390030190829087803b1580156200185457600080fd5b505af115801562001869573d6000803e3d6000fd5b505050506040513d60208110156200188057600080fd5b50620019eb9050565b836001600160a01b03166319d152fa6040518163ffffffff1660e01b815260040160206040518083038186803b158015620018c357600080fd5b505afa158015620018d8573d6000803e3d6000fd5b505050506040513d6020811015620018ef57600080fd5b50516001600160a01b0385811660009081526012602090815260408083205481516323b872dd60e01b815262010000909104851660048201528c8516602482015260448101879052905193909416936323b872dd9360648083019491928390030190829087803b1580156200196357600080fd5b505af115801562001978573d6000803e3d6000fd5b505050506040513d60208110156200198f57600080fd5b50506001600160a01b03848116600090815260126020526040902060010180546001600160a01b031916918916919091179055620019ce8582620034d6565b6001600160a01b0385166000908152601260205260409020600201555b60006001600955979650505050505050565b60065481565b6001600160a01b038082166000908152601260209081526040808320548151630478051760e51b8152915186956201000090920490911692638f00a2e09260048082019391829003018186803b15801562001a5d57600080fd5b505afa15801562001a72573d6000803e3d6000fd5b505050506040513d602081101562001a8957600080fd5b50516001600160a01b038084166000818152601260209081526040918290205482516319b400eb60e21b815292519596506201000090049093169391926366d003ac92600480840193829003018186803b15801562001ae757600080fd5b505afa15801562001afc573d6000803e3d6000fd5b505050506040513d602081101562001b1357600080fd5b50516001600160a01b03161462001b5c5760405162461bcd60e51b815260040180806020018281038252602681526020018062005a086026913960400191505060405180910390fd5b6001600160a01b038116331462001ba55760405162461bcd60e51b815260040180806020018281038252602181526020018062005aef6021913960400191505060405180910390fd5b3360009081526008602090815260409182902080548351818402810184019094528084526060939283018282801562001c0857602002820191906000526020600020905b81546001600160a01b0316815260019091019060200180831162001be9575b50939450600093505050505b815181101562001d1657600082828151811062001c2d57fe5b602002602001015190506000816001600160a01b031663c37f68e2336040518263ffffffff1660e01b815260040180826001600160a01b03166001600160a01b0316815260200191505060806040518083038186803b15801562001c9057600080fd5b505afa15801562001ca5573d6000803e3d6000fd5b505050506040513d608081101562001cbc57600080fd5b50604001519050801562001d0b576040805162461bcd60e51b8152602060048201526011602482015270135d5cdd081c185e481bd999881919589d607a1b604482015290519081900360640190fd5b505060010162001c14565b506001600160a01b0383166000908152601260205260409020600201541562001d715760405162461bcd60e51b815260040180806020018281038252602281526020018062005acd6022913960400191505060405180910390fd5b6001600160a01b038084166000818152601260208181526040808420805461ff00191681553385526013835281852080546001600160a01b031916905594845291905291548251634d3fc32d60e01b815292516201000090910490931692634d3fc32d92600480820193929182900301818387803b15801562001df357600080fd5b505af115801562001e08573d6000803e3d6000fd5b505050506000836001600160a01b03166319d152fa6040518163ffffffff1660e01b815260040160206040518083038186803b15801562001e4857600080fd5b505afa15801562001e5d573d6000803e3d6000fd5b505050506040513d602081101562001e7457600080fd5b50516001600160a01b0385811660009081526012602090815260408083205481516370a0823160e01b8152620100009091048516600482015290519495509193928516926370a08231926024808201939291829003018186803b15801562001edb57600080fd5b505afa15801562001ef0573d6000803e3d6000fd5b505050506040513d602081101562001f0757600080fd5b50516001600160a01b0386811660009081526012602090815260408083205481516323b872dd60e01b815262010000909104851660048201528985166024820152604481018690529051949550928616936323b872dd93606480820194918390030190829087803b15801562001f7c57600080fd5b505af115801562001f91573d6000803e3d6000fd5b505050506040513d602081101562001fa857600080fd5b5050505050505050565b6001600160a01b03831660009081526011602052604081205460ff1662001fde5760095b905062001fe4565b60005b90505b9392505050565b600062001ff762003583565b6200200a5762000f756001600b6200351a565b620020146200421b565b5060408051602081019091528281526200202d6200421b565b506040805160208101909152670de0b6b3a76400008152620020508282620035d7565b156200206457620012256007600c6200351a565b6200206e6200421b565b5060408051602081019091526714d1120d7b1600008152620020918184620035d7565b15620020a5576200126f6007600c6200351a565b6006859055600062001282565b80158015620020c15750600082115b1562002108576040805162461bcd60e51b815260206004820152601160248201527072656465656d546f6b656e73207a65726f60781b604482015290519081900360640190fd5b50505050565b60006200211a62003583565b6200212d5762000f75600160106200351a565b600480546001600160a01b0319166001600160a01b03841617905560005b92915050565b60126020526000908152604090208054600182015460029092015460ff808316936101008404909116926001600160a01b036201000090910481169291169085565b600080600080600080620021ac87600080600062003695565b925092509250826011811115620021bf57fe5b97919650945092505050565b6001600160a01b03851660009081526011602052604081205460ff1615806200220d57506001600160a01b03851660009081526012602052604090205460ff16155b156200221e5760095b905062001282565b6000806200222c8562003ce5565b919350909150600090508260118111156200224357fe5b1462002260578160118111156200225657fe5b9250505062001282565b806200226e57600362002256565b6000886001600160a01b03166395dd9193876040518263ffffffff1660e01b815260040180826001600160a01b03166001600160a01b0316815260200191505060206040518083038186803b158015620022c757600080fd5b505afa158015620022dc573d6000803e3d6000fd5b505050506040513d6020811015620022f357600080fd5b505160408051602081019091526005548152909150600090819062002319908462003639565b909250905060008260038111156200232d57fe5b146200234357600b5b9550505050505062001282565b808711156200235457601162002336565b5060009a9950505050505050505050565b600080546001600160a01b031633146200238f5762002387600160126200351a565b90506200249f565b85871115620023d05760405162461bcd60e51b815260040180806020018281038252602981526020018062005a2e6029913960400191505060405180910390fd5b670c7d713b49da0000821115620024195760405162461bcd60e51b815260040180806020018281038252602781526020018062005a576027913960400191505060405180910390fd5b66b1a2bc2ec50000821015620024615760405162461bcd60e51b815260040180806020018281038252602a81526020018062005aa3602a913960400191505060405180910390fd5b600a80546001600160a01b0319166001600160a01b038a16179055600e879055600f869055600b859055600c849055600d8390556010829055600090505b979650505050505050565b600a54600b54600c54600d54600e54600f546010546001600160a01b039096169587565b6004546001600160a01b031681565b6011602052600090815260409020805460019091015460ff9091169082565b6001600160a01b038082166000908152601160209081526040808320938616835260029093019052205460ff1692915050565b60075481565b600080546001600160a01b03163314620025575762000f75600160126200351a565b6001600160a01b03821660009081526011602052604090205460ff1615620025875762000f75600a60116200351a565b816001600160a01b031663fe9c44ae6040518163ffffffff1660e01b815260040160206040518083038186803b158015620025c157600080fd5b505afa158015620025d6573d6000803e3d6000fd5b505050506040513d6020811015620025ed57600080fd5b50506040805180820182526001808252600060208084018281526001600160a01b038816835260119091529381209251835460ff191690151517835592519101556200214b565b60608060086000846001600160a01b03166001600160a01b03168152602001908152602001600020805480602002602001604051908101604052809291908181526020018280548015620026b257602002820191906000526020600020905b81546001600160a01b0316815260019091019060200180831162002693575b5093979650505050505050565b6002546001600160a01b031681565b60006200119485858462003d07565b6001600160a01b038116600090815260126020526040902054819060ff166200273e576040805162461bcd60e51b815260206004820152600e60248201526d135d5cdd081899481b1a5cdd195960921b604482015290519081900360640190fd5b6001600160a01b038116600090815260126020526040902054610100900460ff1615620027a8576040805162461bcd60e51b8152602060048201526013602482015272135d5cdd081b9bdd08189948195b98589b1959606a1b604482015290519081900360640190fd5b306001600160a01b0316816001600160a01b03166366d003ac6040518163ffffffff1660e01b815260040160206040518083038186803b158015620027ec57600080fd5b505afa15801562002801573d6000803e3d6000fd5b505050506040513d60208110156200281857600080fd5b50516001600160a01b03161462002876576040805162461bcd60e51b815260206004820152601d60248201527f526563697069656e74206d75737420626520436f6d7074726f6c6c6572000000604482015290519081900360640190fd5b6001600160a01b03818116600090815260126020908152604091829020548251630478051760e51b8152925133946201000090920490911692638f00a2e0926004808301939192829003018186803b158015620028d257600080fd5b505afa158015620028e7573d6000803e3d6000fd5b505050506040513d6020811015620028fe57600080fd5b50516001600160a01b031614620029475760405162461bcd60e51b815260040180806020018281038252602181526020018062005aef6021913960400191505060405180910390fd5b6001600160a01b038082166000818152601260208181526040808420805461ff0019166101001781553385526013835281852080546001600160a01b0319168717905585855292909152905481516301ddf6a560e51b8152620100009091049094166004850152519192633bbed4a0926024808301939282900301818387803b158015620029d457600080fd5b505af1158015620029e9573d6000803e3d6000fd5b505050505050565b8051606090818167ffffffffffffffff8111801562002a0f57600080fd5b5060405190808252806020026020018201604052801562002a3a578160200160208202803683370190505b50905060005b8281101562002b6d57600085828151811062002a5857fe5b6020908102919091018101516001600160a01b03811660009081526011909252604090912080549192509060ff1662002aaf5760095b84848151811062002a9b57fe5b602002602001018181525050505062002b64565b33600090815260028201602052604090205460ff1615156001141562002ad757600062002a8e565b600754336000908152600860205260409020541062002af857601062002a8e565b33600090815260028201602090815260408083208054600160ff199091168117909155600883529083208054918201815583529082200180546001600160a01b0319166001600160a01b03851617905584848151811062002b5557fe5b60200260200101818152505050505b60010162002a40565b509392505050565b6013602052600090815260409020546001600160a01b031681565b6001600160a01b038083166000908152601360209081526040808320549093168252601290529081205460ff16158062002be357506001600160a01b03851660009081526011602052604090205460ff16155b1562002bf157600962002216565b846001600160a01b0316635fe3b5676040518163ffffffff1660e01b815260040160206040518083038186803b15801562002c2b57600080fd5b505afa15801562002c40573d6000803e3d6000fd5b505050506040513d602081101562002c5757600080fd5b505160408051635fe3b56760e01b815290516001600160a01b0392831692891691635fe3b567916004808301926020929190829003018186803b15801562002c9e57600080fd5b505afa15801562002cb3573d6000803e3d6000fd5b505050506040513d602081101562002cca57600080fd5b50516001600160a01b03161462002ce357600262002216565b60009695505050505050565b6001600160a01b0380821660009081526013602090815260408083205484168352601290915280822054600e54600f54600b54600c54600d54865163687e851d60e11b81526004810195909552602485019390935260448401919091526064830152608482015282519394859462010000909304169284928392859263d0fd0a3a9260a480840193829003018186803b15801562002d8c57600080fd5b505afa15801562002da1573d6000803e3d6000fd5b505050506040513d604081101562002db857600080fd5b5080516020909101519092509050811562002ddf57600b94506000935062002dee92505050565b60009450925062002dee915050565b915091565b600062002dff62003583565b62002e125762000f756001600d6200351a565b600782905560006200214b565b6001600160a01b03831660009081526011602052604081205460ff1662002e4857600962001fd6565b6001600160a01b038085166000908152601160209081526040808320938716835260029093019052205460ff1662002e8257600862001fd6565b6001600160a01b038381166000908152601360209081526040808320549093168252601290522054610100900460ff1662002f04576040805162461bcd60e51b815260206004820152601960248201527f4e6f7420656e61626c656420617320636f6c6c61746572616c00000000000000604482015290519081900360640190fd5b600480546040805163fc57d4df60e01b81526001600160a01b03888116948201949094529051929091169163fc57d4df91602480820192602092909190829003018186803b15801562002f5657600080fd5b505afa15801562002f6b573d6000803e3d6000fd5b505050506040513d602081101562002f8257600080fd5b505162002f9157600d62001fd6565b60008062002fa3858760008762003695565b9193509091506000905082601181111562002fba57fe5b1462002fd75781601181111562002fcd57fe5b9250505062001fe4565b801562002ce357600462002fcd565b600860205281600052604060002081815481106200300057fe5b6000918252602090912001546001600160a01b03169150829050565b6003546001600160a01b031681565b600080546001600160a01b0316331462003055576200304d600160066200351a565b90506200214b565b6001600160a01b0383166000908152601160205260409020805460ff166200308e5762003085600960076200351a565b9150506200214b565b620030986200421b565b506040805160208101909152838152620030b16200421b565b506040805160208101909152670c7d713b49da00008152620030d48183620035d7565b15620030f357620030e8600660086200351a565b93505050506200214b565b8415801590620031805750600480546040805163fc57d4df60e01b81526001600160a01b038a8116948201949094529051929091169163fc57d4df91602480820192602092909190829003018186803b1580156200315057600080fd5b505afa15801562003165573d6000803e3d6000fd5b505050506040513d60208110156200317c57600080fd5b5051155b156200319457620030e8600d60096200351a565b505060010191909155506000919050565b60055481565b600062001fe184848462003d07565b6000808290506000806000836001600160a01b031663c37f68e2336040518263ffffffff1660e01b815260040180826001600160a01b03166001600160a01b0316815260200191505060806040518083038186803b1580156200321c57600080fd5b505afa15801562003231573d6000803e3d6000fd5b505050506040513d60808110156200324857600080fd5b5080516020820151604090920151909450909250905082156200329d5760405162461bcd60e51b815260040180806020018281038252602581526020018062005a7e6025913960400191505060405180910390fd5b8015620032be57620032b2600c60026200351a565b94505050505062001162565b6000620032cd87338562003d07565b90508015620032f257620032e5600e60038362003d7c565b9550505050505062001162565b6001600160a01b0385166000908152601160209081526040808320338452600281019092529091205460ff1662003333576000965050505050505062001162565b3360009081526002820160209081526040808320805460ff191690556008825291829020805483518184028101840190945280845260609392830182828015620033a757602002820191906000526020600020905b81546001600160a01b0316815260019091019060200180831162003388575b5050835193945083925060009150505b828110156200340157896001600160a01b0316848281518110620033d757fe5b60200260200101516001600160a01b03161415620033f85780915062003401565b600101620033b7565b508181106200340c57fe5b3360009081526008602052604090208054819060001981019081106200342e57fe5b9060005260206000200160009054906101000a90046001600160a01b03168183815481106200345957fe5b9060005260206000200160006101000a8154816001600160a01b0302191690836001600160a01b03160217905550808054806200349257fe5b600082815260208120820160001990810180546001600160a01b03191690559091019091559c9b505050505050505050505050565b6000546001600160a01b031681565b600062001fe483836040518060400160405280601f81526020017f536166654d6174683a207375627472616374696f6e20756e646572666c6f770081525062003de5565b60007f45b96fe442630264581b197e84bbada861235052c5a1aadfff9ea4e40a969aa08360118111156200354a57fe5b8360138111156200355757fe5b604080519283526020830191909152600082820152519081900360600190a182601181111562001fe457fe5b60025460009081906001600160a01b031633148015620035ad57506000546001600160a01b031632145b6000549091506001600160a01b031633148080620035c85750815b9250505090565b519051111590565b5190511090565b6000620035ea6200421b565b6200361260405180602001604052808681525060405180602001604052808681525062003e80565b915091509250929050565b6000620036296200421b565b8351835162003612919062003f7a565b6000806000620036486200421b565b62003654868662004037565b909250905060008260038111156200366857fe5b146200367b575091506000905062001484565b60006200368882620040a6565b9350935050509250929050565b6000806000620036a46200422e565b600080620036b28a62002cef565b60c085015291508115620036d55750600b94506000935083925062003cdb915050565b6001600160a01b03808b166000908152601360209081526040808320549093168252601290522060020154156200374d576001600160a01b03808b16600090815260136020908152604080832054909316825260129052206002015460c0840151620037479163ffffffff620034d616565b60c08401525b60048054600a54604080516341976e0960e01b81526001600160a01b0392831694810194909452519116916341976e09916024808301926020929190829003018186803b1580156200379e57600080fd5b505afa158015620037b3573d6000803e3d6000fd5b505050506040513d6020811015620037ca57600080fd5b505160a08401819052620037ed5750600d94506000935083925062003cdb915050565b604080516020808201835260a0860151825261012086019182528251908101909252601054825260e085018290525162003828919062003e80565b610140850152905060008160038111156200383f57fe5b146200385a5750600b94506000935083925062003cdb915050565b620038748361014001518460c001518560000151620040b5565b8452905060008160038111156200388757fe5b14620038a25750600b94506000935083925062003cdb915050565b6001600160a01b038a166000908152600860209081526040918290208054835181840281018401909452808452606093928301828280156200390e57602002820191906000526020600020905b81546001600160a01b03168152600190910190602001808311620038ef575b50939450600093505050505b815181101562003c935760008282815181106200393357fe5b60200260200101519050806001600160a01b031663c37f68e28e6040518263ffffffff1660e01b815260040180826001600160a01b03166001600160a01b0316815260200191505060806040518083038186803b1580156200399457600080fd5b505afa158015620039a9573d6000803e3d6000fd5b505050506040513d6080811015620039c057600080fd5b508051602082015160408084015160609485015160808c0152938a0193909352918801919091529450841562003a085750600f97506000965086955062003cdb945050505050565b60408051602080820183526001600160a01b0380851660008181526011845285902060010154845260e08b01939093528351808301855260808b015181526101008b015260048054855163fc57d4df60e01b815291820194909452935192169263fc57d4df9260248083019392829003018186803b15801562003a8a57600080fd5b505afa15801562003a9f573d6000803e3d6000fd5b505050506040513d602081101562003ab657600080fd5b505160a0870181905262003adc5750600d97506000965086955062003cdb945050505050565b604080516020810190915260a08701518152610120870181905260e087015161010088015162003b0c926200411c565b6101408801529350600084600381111562003b2357fe5b1462003b415750600b97506000965086955062003cdb945050505050565b62003b5b86610140015187604001518860000151620040b5565b87529350600084600381111562003b6e57fe5b1462003b8c5750600b97506000965086955062003cdb945050505050565b62003ba686610120015187606001518860200151620040b5565b60208801529350600084600381111562003bbc57fe5b1462003bda5750600b97506000965086955062003cdb945050505050565b8b6001600160a01b0316816001600160a01b0316141562003c895762003c0b8661014001518c8860200151620040b5565b60208801529350600084600381111562003c2157fe5b1462003c3f5750600b97506000965086955062003cdb945050505050565b62003c558661012001518b8860200151620040b5565b60208801529350600084600381111562003c6b57fe5b1462003c895750600b97506000965086955062003cdb945050505050565b506001016200391a565b5060208401518451111562003cbc57505050602081015190516000945003915082905062003cdb565b505081516020909201516000955085945091909103915062003cdb9050565b9450945094915050565b600080600062003cfa84600080600062003695565b9250925092509193909250565b6001600160a01b03831660009081526011602052604081205460ff1662003d3057600962001fd6565b6001600160a01b038085166000908152601160209081526040808320938716835260029093019052205460ff1662003d6a57600062001fd6565b60008062002fa3858786600062003695565b60007f45b96fe442630264581b197e84bbada861235052c5a1aadfff9ea4e40a969aa084601181111562003dac57fe5b84601381111562003db957fe5b604080519283526020830191909152818101859052519081900360600190a183601181111562001fe157fe5b6000818484111562003e785760405162461bcd60e51b81526004018080602001828103825283818151815260200191508051906020019080838360005b8381101562003e3c57818101518382015260200162003e22565b50505050905090810190601f16801562003e6a5780820380516001836020036101000a031916815260200191505b509250505060405180910390fd5b505050900390565b600062003e8c6200421b565b60008062003ea38660000151866000015162004171565b9092509050600082600381111562003eb757fe5b1462003ed85750604080516020810190915260008152909250905062001484565b60008062003eef6706f05b59d3b2000084620041b6565b9092509050600082600381111562003f0357fe5b1462003f28578160405180602001604052806000815250955095505050505062001484565b60008062003f3f83670de0b6b3a7640000620041df565b9092509050600082600381111562003f5357fe5b1462003f5b57fe5b604080516020810190915290815260009a909950975050505050505050565b600062003f866200421b565b60008062003f9d86670de0b6b3a764000062004171565b9092509050600082600381111562003fb157fe5b1462003fd25750604080516020810190915260008152909250905062001484565b60008062003fe18388620041df565b9092509050600082600381111562003ff557fe5b146200401a578160405180602001604052806000815250955095505050505062001484565b604080516020810190915290815260009890975095505050505050565b6000620040436200421b565b6000806200405686600001518662004171565b909250905060008260038111156200406a57fe5b146200408b5750604080516020810190915260008152909250905062001484565b60408051602081019091529081526000969095509350505050565b51670de0b6b3a7640000900490565b6000806000620040c46200421b565b620040d0878762004037565b90925090506000826003811115620040e457fe5b14620040f7575091506000905062004114565b6200410d6200410682620040a6565b86620041b6565b9350935050505b935093915050565b6000620041286200421b565b6000620041346200421b565b62004140878762003e80565b909250905060008260038111156200415457fe5b146200416557909250905062004114565b6200410d818662003e80565b60008083620041865750600090508062001484565b838302838582816200419457fe5b0414620041aa5750600291506000905062001484565b60009250905062001484565b600080838301848110620041d05760009250905062001484565b50600291506000905062001484565b60008082620041f5575060019050600062001484565b60008385816200420157fe5b04915091509250929050565b61176080620042a883390190565b6040518060200160405280600081525090565b60405180610160016040528060008152602001600081526020016000815260200160008152602001600081526020016000815260200160008152602001620042756200421b565b8152602001620042846200421b565b8152602001620042936200421b565b8152602001620042a26200421b565b90529056fe60806040523480156200001157600080fd5b506040516200176038038062001760833981810160405260408110156200003757600080fd5b508051602091820151600080546001600160a01b038085166001600160a01b03199283168117909355600280549185169190921617905560408051623947bb60e11b8152905193949293919262728f7692600480840193829003018186803b158015620000a357600080fd5b505afa158015620000b8573d6000803e3d6000fd5b505050506040513d6020811015620000cf57600080fd5b5051600490815560408051630ce8a97d60e11b815290516001600160a01b038516926319d152fa92808201926020929091829003018186803b1580156200011557600080fd5b505afa1580156200012a573d6000803e3d6000fd5b505050506040513d60208110156200014157600080fd5b5051600380546001600160a01b0319166001600160a01b03928316179055604080516384a1931f60e01b81529051918416916384a1931f91600480820192602092909190829003018186803b1580156200019a57600080fd5b505afa158015620001af573d6000803e3d6000fd5b505050506040513d6020811015620001c657600080fd5b50516005556040805163e29bc68b60e01b815290516001600160a01b0384169163e29bc68b916004808301926020929190829003018186803b1580156200020c57600080fd5b505afa15801562000221573d6000803e3d6000fd5b505050506040513d60208110156200023857600080fd5b505160065560408051633cd9039d60e21b815290516001600160a01b0384169163f3640e74916004808301926020929190829003018186803b1580156200027e57600080fd5b505afa15801562000293573d6000803e3d6000fd5b505050506040513d6020811015620002aa57600080fd5b5051600755604080516319b400eb60e21b815290516001600160a01b038416916366d003ac916004808301926020929190829003018186803b158015620002f057600080fd5b505afa15801562000305573d6000803e3d6000fd5b505050506040513d60208110156200031c57600080fd5b5051600180546001600160a01b0319166001600160a01b03928316179055600354604080516370a0823160e01b81528584166004820152905160009392909216916370a0823191602480820192602092909190829003018186803b1580156200038457600080fd5b505afa15801562000399573d6000803e3d6000fd5b505050506040513d6020811015620003b057600080fd5b505190506000620003c96001600160e01b03620004ce16565b90506000620003e06001600160e01b036200066016565b90506000620003f76001600160e01b03620006df16565b9050836200042d826200041986866200074b60201b6200087d1790919060201c565b6200074b60201b6200087d1790919060201c565b106200043857600080fd5b6003546002546040805163095ea7b360e01b81526001600160a01b03928316600482015260001960248201529051919092169163095ea7b39160448083019260209291908290030181600087803b1580156200049357600080fd5b505af1158015620004a8573d6000803e3d6000fd5b505050506040513d6020811015620004bf57600080fd5b50620009a59650505050505050565b6000600754421015620004e4575060006200065d565b60055442106200057557600354600054604080516370a0823160e01b81526001600160a01b039283166004820152905191909216916370a08231916024808301926020929190829003018186803b1580156200053f57600080fd5b505afa15801562000554573d6000803e3d6000fd5b505050506040513d60208110156200056b57600080fd5b505190506200065d565b6200065a62000597600654600554620007af60201b620008e01790919060201c565b620006466200062f6000809054906101000a90046001600160a01b03166001600160a01b031663c04637116040518163ffffffff1660e01b815260040160206040518083038186803b158015620005ed57600080fd5b505afa15801562000602573d6000803e3d6000fd5b505050506040513d60208110156200061957600080fd5b50514290620007af602090811b620008e017901c565b600454620007f960201b620009221790919060201c565b6200085760201b6200097b1790919060201c565b90505b90565b600354604080516370a0823160e01b815230600482015290516000926001600160a01b0316916370a08231916024808301926020929190829003018186803b158015620006ac57600080fd5b505afa158015620006c1573d6000803e3d6000fd5b505050506040513d6020811015620006d857600080fd5b5051905090565b6000600754421015620006f657506004546200065d565b600554421062000709575060006200065d565b6200065a6200072b600654600554620007af60201b620008e01790919060201c565b620006466200062f42600554620007af60201b620008e01790919060201c565b600082820183811015620007a6576040805162461bcd60e51b815260206004820152601b60248201527f536166654d6174683a206164646974696f6e206f766572666c6f770000000000604482015290519081900360640190fd5b90505b92915050565b6000620007a683836040518060400160405280601f81526020017f536166654d6174683a207375627472616374696f6e20756e646572666c6f7700815250620008a160201b60201c565b6000826200080a57506000620007a9565b828202828482816200081857fe5b0414620007a65760405162461bcd60e51b81526004018080602001828103825260218152602001806200173f6021913960400191505060405180910390fd5b6000620007a683836040518060400160405280601a81526020017f536166654d6174683a206469766973696f6e206279207a65726f0000000000008152506200093c60201b60201c565b60008184841115620009345760405162461bcd60e51b81526004018080602001828103825283818151815260200191508051906020019080838360005b83811015620008f8578181015183820152602001620008de565b50505050905090810190601f168015620009265780820380516001836020036101000a031916815260200191505b509250505060405180910390fd5b505050900390565b600081836200098e5760405162461bcd60e51b8152602060048201818152835160248401528351909283926044909101919085019080838360008315620008f8578181015183820152602001620008de565b5060008385816200099b57fe5b0495945050505050565b610d8a80620009b56000396000f3fe608060405234801561001057600080fd5b50600436106100ce5760003560e01c80635fe3b5671161008c578063d0fd0a3a11610066578063d0fd0a3a1461014b578063e29bc68b14610199578063e7c2a608146101a1578063f3640e74146101a9576100ce565b80635fe3b5671461013357806384a1931f1461013b5780638f00a2e014610143576100ce565b8062728f76146100d35780631845dc3a146100ed57806319d152fa146100f557806328fc08f3146101195780634d3fc32d146101215780635e6f60451461012b575b600080fd5b6100db6101b1565b60408051918252519081900360200190f35b6100db6101b7565b6100fd61031e565b604080516001600160a01b039092168252519081900360200190f35b6100db61032d565b6101296103a9565b005b6100fd610466565b6100fd610475565b6100db610484565b6100fd61048a565b610180600480360360a081101561016157600080fd5b5080359060208101359060408101359060608101359060800135610499565b6040805192835260208301919091528051918290030190f35b6100db61081a565b6100db610820565b6100db610877565b60045481565b60006007544210156101cb5750600061031b565b600554421061025757600354600054604080516370a0823160e01b81526001600160a01b039283166004820152905191909216916370a08231916024808301926020929190829003018186803b15801561022457600080fd5b505afa158015610238573d6000803e3d6000fd5b505050506040513d602081101561024e57600080fd5b5051905061031b565b6103186102716006546005546108e090919063ffffffff16565b61030c6102fd6000809054906101000a90046001600160a01b03166001600160a01b031663c04637116040518163ffffffff1660e01b815260040160206040518083038186803b1580156102c457600080fd5b505afa1580156102d8573d6000803e3d6000fd5b505050506040513d60208110156102ee57600080fd5b5051429063ffffffff6108e016565b6004549063ffffffff61092216565b9063ffffffff61097b16565b90505b90565b6003546001600160a01b031681565b600354604080516370a0823160e01b815230600482015290516000926001600160a01b0316916370a08231916024808301926020929190829003018186803b15801561037857600080fd5b505afa15801561038c573d6000803e3d6000fd5b505050506040513d60208110156103a257600080fd5b5051905090565b6002546001600160a01b031633146103fe576040805162461bcd60e51b815260206004820152601360248201527226bab9ba1031329031b7b6b83a3937b63632b960691b604482015290519081900360640190fd5b60008054600154604080516301ddf6a560e51b81526001600160a01b03928316600482015290519190921692633bbed4a0926024808201939182900301818387803b15801561044c57600080fd5b505af1158015610460573d6000803e3d6000fd5b50505050565b6000546001600160a01b031681565b6002546001600160a01b031681565b60055481565b6001546001600160a01b031681565b6000806104a4610ca2565b604080516101008101825260e08101888152815281516020818101845288825280830191909152825190810183528681529181019190915260055460608201906104f4904263ffffffff6108e016565b81526020016105016101b7565b815260200161050e610820565b815260200161051b61032d565b90529050610527610cf1565b6040518060a0016040528061054d8460c00151856080015161087d90919063ffffffff16565b815260200161056984606001518c6109bd90919063ffffffff16565b815260200161059584606001516105898d8d6108e090919063ffffffff16565b9063ffffffff6109bd16565b815260608401516020909101906105b690610589818e63ffffffff6108e016565b815260608401516020909101906105d790610589818d63ffffffff6108e016565b815250905060006007544210156105fa5760005b94506000935061081092505050565b600554421061068f576000600354600054604080516370a0823160e01b81526001600160a01b039283166004820152905191909216916370a08231916024808301926020929190829003018186803b15801561065557600080fd5b505afa158015610669573d6000803e3d6000fd5b505050506040513d602081101561067f57600080fd5b5051909550935061081092505050565b898360600151116106d157825160a084015183516106ae9291906109e7565b8352905060008160038111156106c057fe5b146106cc57600b6105eb565b610806565b88836060015111610745578251602083015160a085015161070492916106fd919063ffffffff610a4316565b84516109e7565b83529050600081600381111561071657fe5b1461072257600b6105eb565b6106ae83602001516106fd84606001518660a00151610a4390919063ffffffff16565b8251602083015160a085015161076692916106fd919063ffffffff610a4316565b83529050600081600381111561077857fe5b1461078457600b6105eb565b6107a783602001516106fd84604001518660a00151610a4390919063ffffffff16565b8352905060008160038111156107b957fe5b146107c557600b6105eb565b6107e883604001516106fd84608001518660a00151610a4390919063ffffffff16565b8352905060008160038111156107fa57fe5b1461080657600b6105eb565b5051600093509150505b9550959350505050565b60065481565b6000600754421015610835575060045461031b565b60055442106108465750600061031b565b6103186108606006546005546108e090919063ffffffff16565b60055461030c906102fd904263ffffffff6108e016565b60075481565b6000828201838110156108d7576040805162461bcd60e51b815260206004820152601b60248201527f536166654d6174683a206164646974696f6e206f766572666c6f770000000000604482015290519081900360640190fd5b90505b92915050565b60006108d783836040518060400160405280601f81526020017f536166654d6174683a207375627472616374696f6e20756e646572666c6f7700815250610a61565b600082610931575060006108da565b8282028284828161093e57fe5b04146108d75760405162461bcd60e51b8152600401808060200182810382526021815260200180610d346021913960400191505060405180910390fd5b60006108d783836040518060400160405280601a81526020017f536166654d6174683a206469766973696f6e206279207a65726f000000000000815250610af8565b60006108d7826109db85670de0b6b3a764000063ffffffff61092216565b9063ffffffff610b5d16565b60008060006109f4610d20565b6109fe8787610bc4565b90925090506000826003811115610a1157fe5b14610a225750915060009050610a3b565b610a34610a2e82610c2e565b86610c3d565b9350935050505b935093915050565b60006108d7670de0b6b3a76400006109db858563ffffffff61092216565b60008184841115610af05760405162461bcd60e51b81526004018080602001828103825283818151815260200191508051906020019080838360005b83811015610ab5578181015183820152602001610a9d565b50505050905090810190601f168015610ae25780820380516001836020036101000a031916815260200191505b509250505060405180910390fd5b505050900390565b60008183610b475760405162461bcd60e51b8152602060048201818152835160248401528351909283926044909101919085019080838360008315610ab5578181015183820152602001610a9d565b506000838581610b5357fe5b0495945050505050565b6000808211610bb3576040805162461bcd60e51b815260206004820152601a60248201527f536166654d6174683a206469766973696f6e206279207a65726f000000000000604482015290519081900360640190fd5b818381610bbc57fe5b049392505050565b6000610bce610d20565b600080610bdf866000015186610c63565b90925090506000826003811115610bf257fe5b14610c1157506040805160208101909152600081529092509050610c27565b6040805160208101909152908152600093509150505b9250929050565b51670de0b6b3a7640000900490565b600080838301848110610c5557600092509050610c27565b506002915060009050610c27565b60008083610c7657506000905080610c27565b83830283858281610c8357fe5b0414610c9757506002915060009050610c27565b600092509050610c27565b6040518060e00160405280610cb5610d20565b8152602001610cc2610d20565b8152602001610ccf610d20565b8152602001600081526020016000815260200160008152602001600081525090565b6040518060a0016040528060008152602001600081526020016000815260200160008152602001600081525090565b604051806020016040528060008152509056fe536166654d6174683a206d756c7469706c69636174696f6e206f766572666c6f77a2646970667358221220c699338b316535bbd7cd3c6cf9569724bb279db141161dcedec612dc80a1d4dd64736f6c634300060a0033536166654d6174683a206d756c7469706c69636174696f6e206f766572666c6f77506c656173652073657420726563697069656e7420746f207661756c7420636f6e747261637470686173654f6e654375746f6666206d757374206265206c657373207468616e20706861736554776f436f6c6c61746572616c20666163746f72206d757374206265206c657373207468616e204d6178657869744d61726b65743a206765744163636f756e74536e617073686f74206661696c6564436f6c6c61746572616c20666163746f72206d7573742062652067726561746572207468616e206d696e416d6f756e74206f77656420746f2070726576696f7573206c697175696461746f724f726967696e616c20726563697069656e74206d7573742062652063616c6c6572a264697066735822122079abbc315993a807fecc99c727b5242a60d884b94d721d9e27f22ae8b922ee6864736f6c634300060a0033",
  "devdoc": {
    "details": "This was the first version of the Comptroller brains.  We keep it so our tests can continue to do the real-life behavior of upgrading from this logic forward.",
    "methods": {
      "_setCloseFactor(uint256)": {
        "details": "Admin function to set closeFactor",
        "params": {
          "newCloseFactorMantissa": "New close factor, scaled by 1e18"
        },
        "returns": {
          "_0": "uint 0=success, otherwise a failure. (See ErrorReporter for details)"
        }
      },
      "_setCollateralFactor(address,uint256)": {
        "details": "Admin function to set per-market collateralFactor",
        "params": {
          "cToken": "The market to set the factor on",
          "newCollateralFactorMantissa": "The new collateral factor, scaled by 1e18"
        },
        "returns": {
          "_0": "uint 0=success, otherwise a failure. (See ErrorReporter for details)"
        }
      },
      "_setLiquidationIncentive(uint256)": {
        "details": "Admin function to set liquidationIncentive",
        "params": {
          "newLiquidationIncentiveMantissa": "New liquidationIncentive scaled by 1e18"
        },
        "returns": {
          "_0": "uint 0=success, otherwise a failure. (See ErrorReporter for details)"
        }
      },
      "_setMaxAssets(uint256)": {
        "details": "Admin function to set maxAssets",
        "params": {
          "newMaxAssets": "New max assets"
        },
        "returns": {
          "_0": "uint 0=success, otherwise a failure. (See ErrorReporter for details)"
        }
      },
      "_setPriceOracle(address)": {
        "details": "Admin function to set a new price oracle",
        "returns": {
          "_0": "uint 0=success, otherwise a failure (see ErrorReporter.sol for details)"
        }
      },
      "_setVestingNPVConfig(address,uint256,uint256,uint256,uint256,uint256,uint256)": {
        "details": "Admin function to set the VestingNPVConfig struct",
        "params": {
          "_phaseOneCutoff": "value in block time for first phase ",
          "_phaseOneDiscountMantissa": "discount factor (e.g. 0.5) per phase in Mantissa"
        },
        "returns": {
          "_0": "uint 0=success, otherwise a failure. (See enum Error for details)"
        }
      },
      "_supportCollateralVault(address)": {
        "details": "Admin function to set isListed and add support for the market",
        "params": {
          "_vestingContractAddress": "to list as collateral"
        },
        "returns": {
          "_0": "uint 0=success, otherwise a failure. (See enum Error for details)"
        }
      },
      "_supportMarket(address)": {
        "details": "Admin function to set isListed and add support for the market",
        "params": {
          "cToken": "The address of the market (token) to list"
        },
        "returns": {
          "_0": "uint 0=success, otherwise a failure. (See enum Error for details)"
        }
      },
      "borrowAllowed(address,address,uint256)": {
        "params": {
          "borrowAmount": "The amount of underlying the account would borrow",
          "borrower": "The account which would borrow the asset",
          "cToken": "The market to verify the borrow against"
        },
        "returns": {
          "_0": "0 if the borrow is allowed, otherwise a semi-opaque error code (See ErrorReporter.sol)"
        }
      },
      "checkMembership(address,address)": {
        "params": {
          "account": "The address of the account to check",
          "cToken": "The cToken to check"
        },
        "returns": {
          "_0": "True if the account is in the asset, otherwise false."
        }
      },
      "exitMarket(address)": {
        "details": "Sender must not have an outstanding borrow balance in the asset,  or be providing neccessary collateral for an outstanding borrow.",
        "params": {
          "cTokenAddress": "The address of the asset to be removed"
        },
        "returns": {
          "_0": "Whether or not the account successfully exited the market"
        }
      },
      "getAccountLiquidity(address)": {
        "returns": {
          "_0": "(possible error code (semi-opaque), account liquidity in excess of collateral requirements,          account shortfall below collateral requirements)"
        }
      },
      "getAssetsIn(address)": {
        "params": {
          "account": "The address of the account to pull assets for"
        },
        "returns": {
          "_0": "A dynamic list with the assets the account has entered"
        }
      },
      "liquidateBorrowAllowed(address,address,address,address,uint256)": {
        "params": {
          "borrower": "The address of the borrower",
          "cTokenBorrowed": "Asset which was borrowed by the borrower",
          "liquidator": "The address repaying the borrow and seizing the collateral",
          "repayAmount": "The amount of underlying being repaid",
          "vestingContract": "Asset which was used as collateral and will be seized"
        }
      },
      "liquidateCalculateSeizeTokens(address,uint256)": {
        "details": "Used in liquidation (called in cToken.liquidateBorrowFresh)",
        "params": {
          "cTokenBorrowed": "The address of the borrowed cToken",
          "repayAmount": "The amount of cTokenBorrowed underlying to convert into cTokenCollateral tokens"
        },
        "returns": {
          "_0": "(errorCode, number of cTokenCollateral tokens to be seized in a liquidation)"
        }
      },
      "mintAllowed(address,address,uint256)": {
        "params": {
          "cToken": "The market to verify the mint against",
          "mintAmount": "The amount of underlying being supplied to the market in exchange for tokens",
          "minter": "The account which would get the minted tokens"
        },
        "returns": {
          "_0": "0 if the mint is allowed, otherwise a semi-opaque error code (See ErrorReporter.sol)"
        }
      },
      "redeemAllowed(address,address,uint256)": {
        "params": {
          "cToken": "The market to verify the redeem against",
          "redeemTokens": "The number of cTokens to exchange for the underlying asset in the market",
          "redeemer": "The account which would redeem the tokens"
        },
        "returns": {
          "_0": "0 if the redeem is allowed, otherwise a semi-opaque error code (See ErrorReporter.sol)"
        }
      },
      "redeemVerify(address,address,uint256,uint256)": {
        "params": {
          "cToken": "Asset being redeemed",
          "redeemAmount": "The amount of the underlying asset being redeemed",
          "redeemTokens": "The number of tokens being redeemed",
          "redeemer": "The address redeeming the tokens"
        }
      },
      "repayBorrowAllowed(address,address,address,uint256)": {
        "params": {
          "borrower": "The account which would borrowed the asset",
          "cToken": "The market to verify the repay against",
          "payer": "The account which would repay the asset",
          "repayAmount": "The amount of the underlying asset the account would repay"
        },
        "returns": {
          "_0": "0 if the repay is allowed, otherwise a semi-opaque error code (See ErrorReporter.sol)"
        }
      },
      "seizeAllowed(address,address,address,address,uint256)": {
        "params": {
          "borrower": "The address of the borrower",
          "cTokenBorrowed": "Asset which was borrowed by the borrower",
          "liquidator": "The address repaying the borrow and seizing the collateral",
          "seizeTokens": "The number of collateral tokens to seize",
          "vestingContractWrapper": "Asset which was used as collateral and will be seized"
        }
      },
      "transferAllowed(address,address,address,uint256)": {
        "params": {
          "cToken": "The market to verify the transfer against",
          "dst": "The account which receives the tokens",
          "src": "The account which sources the tokens",
          "transferTokens": "The number of cTokens to transfer"
        },
        "returns": {
          "_0": "0 if the transfer is allowed, otherwise a semi-opaque error code (See ErrorReporter.sol)"
        }
      },
      "vestingCalculateNPV(address)": {
        "details": "Note that we calculate the exchangeRateStored for each collateral cToken using stored data,  without calculating accumulated interest.",
        "params": {
          "owner": "The original owner / recipient of the vesting Collateral"
        },
        "returns": {
          "_0": "(possible error code,          accountLiquidity)"
        }
      }
    },
    "stateVariables": {
      "markets": {
        "details": "Used e.g. to determine if a market is supported"
      }
    },
    "title": "Compound's Comptroller Contract"
  },
  "userdoc": {
    "methods": {
      "_setCloseFactor(uint256)": {
        "notice": "Sets the closeFactor used when liquidating borrows"
      },
      "_setCollateralFactor(address,uint256)": {
        "notice": "Sets the collateralFactor for a market"
      },
      "_setLiquidationIncentive(uint256)": {
        "notice": "Sets liquidationIncentive"
      },
      "_setMaxAssets(uint256)": {
        "notice": "Sets maxAssets which controls how many markets can be entered"
      },
      "_setPriceOracle(address)": {
        "notice": "Sets a new price oracle for the comptroller"
      },
      "_setVestingNPVConfig(address,uint256,uint256,uint256,uint256,uint256,uint256)": {
        "notice": "sets the VestingNPVConfigValues"
      },
      "_supportCollateralVault(address)": {
        "notice": "Add the vesting contract collateral and list as collateral"
      },
      "_supportMarket(address)": {
        "notice": "Add the market to the markets mapping and set it as listed"
      },
      "accountAssets(address,uint256)": {
        "notice": "Per-account mapping of \"assets you are in\", capped by maxAssets"
      },
      "admin()": {
        "notice": "Administrator for this contract"
      },
      "borrowAllowed(address,address,uint256)": {
        "notice": "Checks if the account should be allowed to borrow the underlying asset of the given market"
      },
      "checkMembership(address,address)": {
        "notice": "Returns whether the given account is entered in the given asset"
      },
      "closeFactorMantissa()": {
        "notice": "Multiplier used to calculate the maximum repayAmount when liquidating a borrow"
      },
      "comptrollerImplementation()": {
        "notice": "Active brains of Unitroller"
      },
      "exitMarket(address)": {
        "notice": "Removes asset from sender's account liquidity calculation"
      },
      "getAccountLiquidity(address)": {
        "notice": "Determine the current account liquidity wrt collateral requirements"
      },
      "getAssetsIn(address)": {
        "notice": "Returns the assets an account has entered"
      },
      "isComptroller()": {
        "notice": "Indicator that this is a Comptroller contract (for inspection)"
      },
      "liquidateBorrowAllowed(address,address,address,address,uint256)": {
        "notice": "Checks if the liquidation should be allowed to occur"
      },
      "liquidateCalculateSeizeTokens(address,uint256)": {
        "notice": "Calculate number of tokens of collateral asset to seize given an underlying amount"
      },
      "liquidationIncentiveMantissa()": {
        "notice": "Multiplier representing the discount on collateral that a liquidator receives"
      },
      "markets(address)": {
        "notice": "Official mapping of cTokens -> Market metadata"
      },
      "maxAssets()": {
        "notice": "Max number of assets a single account can participate in (borrow or use as collateral)"
      },
      "mintAllowed(address,address,uint256)": {
        "notice": "Checks if the account should be allowed to mint tokens in the given market"
      },
      "oracle()": {
        "notice": "Oracle which gives the price of any given asset"
      },
      "pendingAdmin()": {
        "notice": "Pending administrator for this contract"
      },
      "pendingComptrollerImplementation()": {
        "notice": "Pending brains of Unitroller"
      },
      "redeemAllowed(address,address,uint256)": {
        "notice": "Checks if the account should be allowed to redeem tokens in the given market"
      },
      "redeemVerify(address,address,uint256,uint256)": {
        "notice": "Validates redeem and reverts on rejection."
      },
      "registerVestingContract(address)": {
        "notice": "Registers vesting contract. Validates the recipient is the vault contract and then sets enabled as collateral to true"
      },
      "repayBorrowAllowed(address,address,address,uint256)": {
        "notice": "Checks if the account should be allowed to repay a borrow in the given market"
      },
      "seizeAllowed(address,address,address,address,uint256)": {
        "notice": "Checks if the seizing of assets should be allowed to occur"
      },
      "transferAllowed(address,address,address,uint256)": {
        "notice": "Checks if the account should be allowed to transfer tokens in the given market"
      },
      "vestingCalculateNPV(address)": {
        "notice": "Calculates the NPV of a collateral vesting contract for a given originalOwner"
      }
    }
  },
  "storageLayout": {
    "storage": [
      {
        "astId": 9443,
        "contract": "contracts/Comptroller.sol:Comptroller",
        "label": "admin",
        "offset": 0,
        "slot": "0",
        "type": "t_address"
      },
      {
        "astId": 9446,
        "contract": "contracts/Comptroller.sol:Comptroller",
        "label": "pendingAdmin",
        "offset": 0,
        "slot": "1",
        "type": "t_address"
      },
      {
        "astId": 9449,
        "contract": "contracts/Comptroller.sol:Comptroller",
        "label": "comptrollerImplementation",
        "offset": 0,
        "slot": "2",
        "type": "t_address"
      },
      {
        "astId": 9452,
        "contract": "contracts/Comptroller.sol:Comptroller",
        "label": "pendingComptrollerImplementation",
        "offset": 0,
        "slot": "3",
        "type": "t_address"
      },
      {
        "astId": 9458,
        "contract": "contracts/Comptroller.sol:Comptroller",
        "label": "oracle",
        "offset": 0,
        "slot": "4",
        "type": "t_contract(PriceOracle)11854"
      },
      {
        "astId": 9461,
        "contract": "contracts/Comptroller.sol:Comptroller",
        "label": "closeFactorMantissa",
        "offset": 0,
        "slot": "5",
        "type": "t_uint256"
      },
      {
        "astId": 9464,
        "contract": "contracts/Comptroller.sol:Comptroller",
        "label": "liquidationIncentiveMantissa",
        "offset": 0,
        "slot": "6",
        "type": "t_uint256"
      },
      {
        "astId": 9467,
        "contract": "contracts/Comptroller.sol:Comptroller",
        "label": "maxAssets",
        "offset": 0,
        "slot": "7",
        "type": "t_uint256"
      },
      {
        "astId": 9473,
        "contract": "contracts/Comptroller.sol:Comptroller",
        "label": "accountAssets",
        "offset": 0,
        "slot": "8",
        "type": "t_mapping(t_address,t_array(t_contract(CToken)5552)dyn_storage)"
      },
      {
        "astId": 1148,
        "contract": "contracts/Comptroller.sol:Comptroller",
        "label": "_status",
        "offset": 0,
        "slot": "9",
        "type": "t_uint256"
      },
      {
        "astId": 6529,
        "contract": "contracts/Comptroller.sol:Comptroller",
        "label": "vestingNPVConfig",
        "offset": 0,
        "slot": "10",
        "type": "t_struct(VestingNPVConfig)6527_storage"
      },
      {
        "astId": 6545,
        "contract": "contracts/Comptroller.sol:Comptroller",
        "label": "markets",
        "offset": 0,
        "slot": "17",
        "type": "t_mapping(t_address,t_struct(Market)6512_storage)"
      },
      {
        "astId": 6549,
        "contract": "contracts/Comptroller.sol:Comptroller",
        "label": "vestingContractInfo",
        "offset": 0,
        "slot": "18",
        "type": "t_mapping(t_contract(IVesting)13720,t_struct(VestingContractInfo)6540_storage)"
      },
      {
        "astId": 6553,
        "contract": "contracts/Comptroller.sol:Comptroller",
        "label": "accountToVesting",
        "offset": 0,
        "slot": "19",
        "type": "t_mapping(t_address,t_contract(IVesting)13720)"
      }
    ],
    "types": {
      "t_address": {
        "encoding": "inplace",
        "label": "address",
        "numberOfBytes": "20"
      },
      "t_array(t_contract(CToken)5552)dyn_storage": {
        "base": "t_contract(CToken)5552",
        "encoding": "dynamic_array",
        "label": "contract CToken[]",
        "numberOfBytes": "32"
      },
      "t_bool": {
        "encoding": "inplace",
        "label": "bool",
        "numberOfBytes": "1"
      },
      "t_contract(CToken)5552": {
        "encoding": "inplace",
        "label": "contract CToken",
        "numberOfBytes": "20"
      },
      "t_contract(IVesting)13720": {
        "encoding": "inplace",
        "label": "contract IVesting",
        "numberOfBytes": "20"
      },
      "t_contract(PriceOracle)11854": {
        "encoding": "inplace",
        "label": "contract PriceOracle",
        "numberOfBytes": "20"
      },
      "t_mapping(t_address,t_array(t_contract(CToken)5552)dyn_storage)": {
        "encoding": "mapping",
        "key": "t_address",
        "label": "mapping(address => contract CToken[])",
        "numberOfBytes": "32",
        "value": "t_array(t_contract(CToken)5552)dyn_storage"
      },
      "t_mapping(t_address,t_bool)": {
        "encoding": "mapping",
        "key": "t_address",
        "label": "mapping(address => bool)",
        "numberOfBytes": "32",
        "value": "t_bool"
      },
      "t_mapping(t_address,t_contract(IVesting)13720)": {
        "encoding": "mapping",
        "key": "t_address",
        "label": "mapping(address => contract IVesting)",
        "numberOfBytes": "32",
        "value": "t_contract(IVesting)13720"
      },
      "t_mapping(t_address,t_struct(Market)6512_storage)": {
        "encoding": "mapping",
        "key": "t_address",
        "label": "mapping(address => struct Comptroller.Market)",
        "numberOfBytes": "32",
        "value": "t_struct(Market)6512_storage"
      },
      "t_mapping(t_contract(IVesting)13720,t_struct(VestingContractInfo)6540_storage)": {
        "encoding": "mapping",
        "key": "t_contract(IVesting)13720",
        "label": "mapping(contract IVesting => struct Comptroller.VestingContractInfo)",
        "numberOfBytes": "32",
        "value": "t_struct(VestingContractInfo)6540_storage"
      },
      "t_struct(Market)6512_storage": {
        "encoding": "inplace",
        "label": "struct Comptroller.Market",
        "members": [
          {
            "astId": 6505,
            "contract": "contracts/Comptroller.sol:Comptroller",
            "label": "isListed",
            "offset": 0,
            "slot": "0",
            "type": "t_bool"
          },
          {
            "astId": 6507,
            "contract": "contracts/Comptroller.sol:Comptroller",
            "label": "collateralFactorMantissa",
            "offset": 0,
            "slot": "1",
            "type": "t_uint256"
          },
          {
            "astId": 6511,
            "contract": "contracts/Comptroller.sol:Comptroller",
            "label": "accountMembership",
            "offset": 0,
            "slot": "2",
            "type": "t_mapping(t_address,t_bool)"
          }
        ],
        "numberOfBytes": "96"
      },
      "t_struct(VestingContractInfo)6540_storage": {
        "encoding": "inplace",
        "label": "struct Comptroller.VestingContractInfo",
        "members": [
          {
            "astId": 6531,
            "contract": "contracts/Comptroller.sol:Comptroller",
            "label": "isListed",
            "offset": 0,
            "slot": "0",
            "type": "t_bool"
          },
          {
            "astId": 6533,
            "contract": "contracts/Comptroller.sol:Comptroller",
            "label": "enabledAsCollateral",
            "offset": 1,
            "slot": "0",
            "type": "t_bool"
          },
          {
            "astId": 6535,
            "contract": "contracts/Comptroller.sol:Comptroller",
            "label": "vestingContractWrapper",
            "offset": 2,
            "slot": "0",
            "type": "t_address"
          },
          {
            "astId": 6537,
            "contract": "contracts/Comptroller.sol:Comptroller",
            "label": "unvestedTokenLiquidator",
            "offset": 0,
            "slot": "1",
            "type": "t_address"
          },
          {
            "astId": 6539,
            "contract": "contracts/Comptroller.sol:Comptroller",
            "label": "amountOwedToLiquidator",
            "offset": 0,
            "slot": "2",
            "type": "t_uint256"
          }
        ],
        "numberOfBytes": "96"
      },
      "t_struct(VestingNPVConfig)6527_storage": {
        "encoding": "inplace",
        "label": "struct Comptroller.VestingNPVConfig",
        "members": [
          {
            "astId": 6514,
            "contract": "contracts/Comptroller.sol:Comptroller",
            "label": "underlyingAddress",
            "offset": 0,
            "slot": "0",
            "type": "t_address"
          },
          {
            "astId": 6516,
            "contract": "contracts/Comptroller.sol:Comptroller",
            "label": "phaseOneDiscountMantissa",
            "offset": 0,
            "slot": "1",
            "type": "t_uint256"
          },
          {
            "astId": 6518,
            "contract": "contracts/Comptroller.sol:Comptroller",
            "label": "phaseTwoDiscountMantissa",
            "offset": 0,
            "slot": "2",
            "type": "t_uint256"
          },
          {
            "astId": 6520,
            "contract": "contracts/Comptroller.sol:Comptroller",
            "label": "phaseThreeDiscountMantissa",
            "offset": 0,
            "slot": "3",
            "type": "t_uint256"
          },
          {
            "astId": 6522,
            "contract": "contracts/Comptroller.sol:Comptroller",
            "label": "phaseOneCutoff",
            "offset": 0,
            "slot": "4",
            "type": "t_uint256"
          },
          {
            "astId": 6524,
            "contract": "contracts/Comptroller.sol:Comptroller",
            "label": "phaseTwoCutoff",
            "offset": 0,
            "slot": "5",
            "type": "t_uint256"
          },
          {
            "astId": 6526,
            "contract": "contracts/Comptroller.sol:Comptroller",
            "label": "collateralFactorMantissa",
            "offset": 0,
            "slot": "6",
            "type": "t_uint256"
          }
        ],
        "numberOfBytes": "224"
      },
      "t_uint256": {
        "encoding": "inplace",
        "label": "uint256",
        "numberOfBytes": "32"
      }
    }
  }
}