{
  "address": "0xbB88e09385097878171346a59E709e24b53c4f71",
  "abi": [
    {
      "inputs": [
        {
          "internalType": "address",
          "name": "vestingToken_",
          "type": "address"
        },
        {
          "internalType": "address",
          "name": "recipient_",
          "type": "address"
        },
        {
          "internalType": "uint256",
          "name": "vestingAmount_",
          "type": "uint256"
        },
        {
          "internalType": "uint256",
          "name": "vestingBegin_",
          "type": "uint256"
        },
        {
          "internalType": "uint256",
          "name": "vestingCliff_",
          "type": "uint256"
        },
        {
          "internalType": "uint256",
          "name": "vestingEnd_",
          "type": "uint256"
        }
      ],
      "stateMutability": "nonpayable",
      "type": "constructor"
    },
    {
      "inputs": [],
      "name": "claim",
      "outputs": [],
      "stateMutability": "nonpayable",
      "type": "function"
    },
    {
      "inputs": [],
      "name": "lastUpdate",
      "outputs": [
        {
          "internalType": "uint256",
          "name": "",
          "type": "uint256"
        }
      ],
      "stateMutability": "view",
      "type": "function"
    },
    {
      "inputs": [],
      "name": "recipient",
      "outputs": [
        {
          "internalType": "address",
          "name": "",
          "type": "address"
        }
      ],
      "stateMutability": "view",
      "type": "function"
    },
    {
      "inputs": [
        {
          "internalType": "address",
          "name": "recipient_",
          "type": "address"
        }
      ],
      "name": "setRecipient",
      "outputs": [],
      "stateMutability": "nonpayable",
      "type": "function"
    },
    {
      "inputs": [],
      "name": "vestingAmount",
      "outputs": [
        {
          "internalType": "uint256",
          "name": "",
          "type": "uint256"
        }
      ],
      "stateMutability": "view",
      "type": "function"
    },
    {
      "inputs": [],
      "name": "vestingBegin",
      "outputs": [
        {
          "internalType": "uint256",
          "name": "",
          "type": "uint256"
        }
      ],
      "stateMutability": "view",
      "type": "function"
    },
    {
      "inputs": [],
      "name": "vestingCliff",
      "outputs": [
        {
          "internalType": "uint256",
          "name": "",
          "type": "uint256"
        }
      ],
      "stateMutability": "view",
      "type": "function"
    },
    {
      "inputs": [],
      "name": "vestingEnd",
      "outputs": [
        {
          "internalType": "uint256",
          "name": "",
          "type": "uint256"
        }
      ],
      "stateMutability": "view",
      "type": "function"
    },
    {
      "inputs": [],
      "name": "vestingToken",
      "outputs": [
        {
          "internalType": "address",
          "name": "",
          "type": "address"
        }
      ],
      "stateMutability": "view",
      "type": "function"
    }
  ],
  "transactionHash": "0x3e98cb31573a23cd1db5c0b2f95ac125287dfc21043d56174938e42140aebea1",
  "args": [
    "0x6715713831724679e0fEd5B63Fa4CDe8f73D2d76",
    "0xbA8EC1F5eE094912266fbCCa6331DfF6F1A719F1",
    "1000000000000000000000000",
    1644937095,
    1644937095,
    1708009095
  ],
  "numDeployments": 1,
  "solcInputHash": "88cefdbe38f6d60e0709c0b50ece8cc3",
  "bytecode": "0x608060405234801561001057600080fd5b50604051610786380380610786833981810160405260c081101561003357600080fd5b508051602082015160408301516060840151608085015160a0909501519394929391929091828210156100975760405162461bcd60e51b815260040180806020018281038252602e81526020018061072c602e913960400191505060405180910390fd5b8181116100d55760405162461bcd60e51b815260040180806020018281038252602c81526020018061075a602c913960400191505060405180910390fd5b600080546001600160a01b039788166001600160a01b031991821617909155600180549690971695169490941790945560029190915560038190556004929092556005556006556106018061012b6000396000f3fe608060405234801561001057600080fd5b50600436106100925760003560e01c806366d003ac1161006657806366d003ac1461010557806384a1931f1461010d578063c046371114610115578063e29bc68b1461011d578063f3640e741461012557610092565b8062728f761461009757806319d152fa146100b15780633bbed4a0146100d55780634e71d92d146100fd575b600080fd5b61009f61012d565b60408051918252519081900360200190f35b6100b9610133565b604080516001600160a01b039092168252519081900360200190f35b6100fb600480360360208110156100eb57600080fd5b50356001600160a01b0316610142565b005b6100fb6101ad565b6100b9610356565b61009f610365565b61009f61036b565b61009f610371565b61009f610377565b60025481565b6000546001600160a01b031681565b6001546001600160a01b0316331461018b5760405162461bcd60e51b81526004018080602001828103825260298152602001806105606029913960400191505060405180910390fd5b600180546001600160a01b0319166001600160a01b0392909216919091179055565b6004544210156101ee5760405162461bcd60e51b81526004018080602001828103825260228152602001806105896022913960400191505060405180910390fd5b6000600554421061027757600054604080516370a0823160e01b815230600482015290516001600160a01b03909216916370a0823191602480820192602092909190829003018186803b15801561024457600080fd5b505afa158015610258573d6000803e3d6000fd5b505050506040513d602081101561026e57600080fd5b505190506102cb565b6102c461029160035460055461037d90919063ffffffff16565b6102b86102a96006544261037d90919063ffffffff16565b6002549063ffffffff6103c816565b9063ffffffff61042116565b4260065590505b600080546001546040805163a9059cbb60e01b81526001600160a01b039283166004820152602481018690529051919092169263a9059cbb92604480820193602093909283900390910190829087803b15801561032757600080fd5b505af115801561033b573d6000803e3d6000fd5b505050506040513d602081101561035157600080fd5b505050565b6001546001600160a01b031681565b60055481565b60065481565b60035481565b60045481565b60006103bf83836040518060400160405280601f81526020017f536166654d6174683a207375627472616374696f6e20756e646572666c6f7700815250610463565b90505b92915050565b6000826103d7575060006103c2565b828202828482816103e457fe5b04146103bf5760405162461bcd60e51b81526004018080602001828103825260218152602001806105ab6021913960400191505060405180910390fd5b60006103bf83836040518060400160405280601a81526020017f536166654d6174683a206469766973696f6e206279207a65726f0000000000008152506104fa565b600081848411156104f25760405162461bcd60e51b81526004018080602001828103825283818151815260200191508051906020019080838360005b838110156104b757818101518382015260200161049f565b50505050905090810190601f1680156104e45780820380516001836020036101000a031916815260200191505b509250505060405180910390fd5b505050900390565b600081836105495760405162461bcd60e51b81526020600482018181528351602484015283519092839260449091019190850190808383600083156104b757818101518382015260200161049f565b50600083858161055557fe5b049594505050505056fe54726561737572795665737465722e736574526563697069656e743a20756e617574686f72697a656454726561737572795665737465722e636c61696d3a206e6f742074696d6520796574536166654d6174683a206d756c7469706c69636174696f6e206f766572666c6f77a2646970667358221220ce37cfbd7e7ec3d91ed847af210c34238952f0bdb95f41840b7504349132570164736f6c634300060a003354726561737572795665737465722e636f6e7374727563746f723a20636c69666620697320746f6f206561726c7954726561737572795665737465722e636f6e7374727563746f723a20656e6420697320746f6f206561726c79",
  "devdoc": {
    "methods": {}
  },
  "userdoc": {
    "methods": {}
  },
  "storageLayout": {
    "storage": [
      {
        "astId": 12584,
        "contract": "contracts/Vesting.sol:Vesting",
        "label": "vestingToken",
        "offset": 0,
        "slot": "0",
        "type": "t_address"
      },
      {
        "astId": 12586,
        "contract": "contracts/Vesting.sol:Vesting",
        "label": "recipient",
        "offset": 0,
        "slot": "1",
        "type": "t_address"
      },
      {
        "astId": 12588,
        "contract": "contracts/Vesting.sol:Vesting",
        "label": "vestingAmount",
        "offset": 0,
        "slot": "2",
        "type": "t_uint256"
      },
      {
        "astId": 12590,
        "contract": "contracts/Vesting.sol:Vesting",
        "label": "vestingBegin",
        "offset": 0,
        "slot": "3",
        "type": "t_uint256"
      },
      {
        "astId": 12592,
        "contract": "contracts/Vesting.sol:Vesting",
        "label": "vestingCliff",
        "offset": 0,
        "slot": "4",
        "type": "t_uint256"
      },
      {
        "astId": 12594,
        "contract": "contracts/Vesting.sol:Vesting",
        "label": "vestingEnd",
        "offset": 0,
        "slot": "5",
        "type": "t_uint256"
      },
      {
        "astId": 12596,
        "contract": "contracts/Vesting.sol:Vesting",
        "label": "lastUpdate",
        "offset": 0,
        "slot": "6",
        "type": "t_uint256"
      }
    ],
    "types": {
      "t_address": {
        "encoding": "inplace",
        "label": "address",
        "numberOfBytes": "20"
      },
      "t_uint256": {
        "encoding": "inplace",
        "label": "uint256",
        "numberOfBytes": "32"
      }
    }
  }
}