{
  "address": "0x063f8C3a224abEd8e821B57e7152BCa0e633D432",
  "abi": [
    {
      "inputs": [
        {
          "internalType": "address",
          "name": "underlying_",
          "type": "address"
        },
        {
          "internalType": "contract ComptrollerInterface",
          "name": "comptroller_",
          "type": "address"
        },
        {
          "internalType": "contract InterestRateModel",
          "name": "interestRateModel_",
          "type": "address"
        },
        {
          "internalType": "uint256",
          "name": "initialExchangeRateMantissa_",
          "type": "uint256"
        },
        {
          "internalType": "string",
          "name": "name_",
          "type": "string"
        },
        {
          "internalType": "string",
          "name": "symbol_",
          "type": "string"
        },
        {
          "internalType": "uint8",
          "name": "decimals_",
          "type": "uint8"
        }
      ],
      "stateMutability": "nonpayable",
      "type": "constructor"
    },
    {
      "anonymous": false,
      "inputs": [
        {
          "indexed": false,
          "internalType": "uint256",
          "name": "cashPrior",
          "type": "uint256"
        },
        {
          "indexed": false,
          "internalType": "uint256",
          "name": "interestAccumulated",
          "type": "uint256"
        },
        {
          "indexed": false,
          "internalType": "uint256",
          "name": "borrowIndex",
          "type": "uint256"
        },
        {
          "indexed": false,
          "internalType": "uint256",
          "name": "totalBorrows",
          "type": "uint256"
        }
      ],
      "name": "AccrueInterest",
      "type": "event"
    },
    {
      "anonymous": false,
      "inputs": [
        {
          "indexed": true,
          "internalType": "address",
          "name": "owner",
          "type": "address"
        },
        {
          "indexed": true,
          "internalType": "address",
          "name": "spender",
          "type": "address"
        },
        {
          "indexed": false,
          "internalType": "uint256",
          "name": "amount",
          "type": "uint256"
        }
      ],
      "name": "Approval",
      "type": "event"
    },
    {
      "anonymous": false,
      "inputs": [
        {
          "indexed": false,
          "internalType": "address",
          "name": "borrower",
          "type": "address"
        },
        {
          "indexed": false,
          "internalType": "uint256",
          "name": "borrowAmount",
          "type": "uint256"
        },
        {
          "indexed": false,
          "internalType": "uint256",
          "name": "accountBorrows",
          "type": "uint256"
        },
        {
          "indexed": false,
          "internalType": "uint256",
          "name": "totalBorrows",
          "type": "uint256"
        }
      ],
      "name": "Borrow",
      "type": "event"
    },
    {
      "anonymous": false,
      "inputs": [
        {
          "indexed": false,
          "internalType": "uint256",
          "name": "error",
          "type": "uint256"
        },
        {
          "indexed": false,
          "internalType": "uint256",
          "name": "info",
          "type": "uint256"
        },
        {
          "indexed": false,
          "internalType": "uint256",
          "name": "detail",
          "type": "uint256"
        }
      ],
      "name": "Failure",
      "type": "event"
    },
    {
      "anonymous": false,
      "inputs": [
        {
          "indexed": false,
          "internalType": "address",
          "name": "liquidator",
          "type": "address"
        },
        {
          "indexed": false,
          "internalType": "address",
          "name": "borrower",
          "type": "address"
        },
        {
          "indexed": false,
          "internalType": "uint256",
          "name": "repayAmount",
          "type": "uint256"
        },
        {
          "indexed": false,
          "internalType": "address",
          "name": "cTokenCollateral",
          "type": "address"
        },
        {
          "indexed": false,
          "internalType": "uint256",
          "name": "seizeTokens",
          "type": "uint256"
        }
      ],
      "name": "LiquidateBorrow",
      "type": "event"
    },
    {
      "anonymous": false,
      "inputs": [
        {
          "indexed": false,
          "internalType": "address",
          "name": "minter",
          "type": "address"
        },
        {
          "indexed": false,
          "internalType": "uint256",
          "name": "mintAmount",
          "type": "uint256"
        },
        {
          "indexed": false,
          "internalType": "uint256",
          "name": "mintTokens",
          "type": "uint256"
        }
      ],
      "name": "Mint",
      "type": "event"
    },
    {
      "anonymous": false,
      "inputs": [
        {
          "indexed": false,
          "internalType": "address",
          "name": "oldAdmin",
          "type": "address"
        },
        {
          "indexed": false,
          "internalType": "address",
          "name": "newAdmin",
          "type": "address"
        }
      ],
      "name": "NewAdmin",
      "type": "event"
    },
    {
      "anonymous": false,
      "inputs": [
        {
          "indexed": false,
          "internalType": "contract ComptrollerInterface",
          "name": "oldComptroller",
          "type": "address"
        },
        {
          "indexed": false,
          "internalType": "contract ComptrollerInterface",
          "name": "newComptroller",
          "type": "address"
        }
      ],
      "name": "NewComptroller",
      "type": "event"
    },
    {
      "anonymous": false,
      "inputs": [
        {
          "indexed": false,
          "internalType": "contract InterestRateModel",
          "name": "oldInterestRateModel",
          "type": "address"
        },
        {
          "indexed": false,
          "internalType": "contract InterestRateModel",
          "name": "newInterestRateModel",
          "type": "address"
        }
      ],
      "name": "NewMarketInterestRateModel",
      "type": "event"
    },
    {
      "anonymous": false,
      "inputs": [
        {
          "indexed": false,
          "internalType": "address",
          "name": "oldPendingAdmin",
          "type": "address"
        },
        {
          "indexed": false,
          "internalType": "address",
          "name": "newPendingAdmin",
          "type": "address"
        }
      ],
      "name": "NewPendingAdmin",
      "type": "event"
    },
    {
      "anonymous": false,
      "inputs": [
        {
          "indexed": false,
          "internalType": "uint256",
          "name": "oldReserveFactorMantissa",
          "type": "uint256"
        },
        {
          "indexed": false,
          "internalType": "uint256",
          "name": "newReserveFactorMantissa",
          "type": "uint256"
        }
      ],
      "name": "NewReserveFactor",
      "type": "event"
    },
    {
      "anonymous": false,
      "inputs": [
        {
          "indexed": false,
          "internalType": "address",
          "name": "redeemer",
          "type": "address"
        },
        {
          "indexed": false,
          "internalType": "uint256",
          "name": "redeemAmount",
          "type": "uint256"
        },
        {
          "indexed": false,
          "internalType": "uint256",
          "name": "redeemTokens",
          "type": "uint256"
        }
      ],
      "name": "Redeem",
      "type": "event"
    },
    {
      "anonymous": false,
      "inputs": [
        {
          "indexed": false,
          "internalType": "address",
          "name": "payer",
          "type": "address"
        },
        {
          "indexed": false,
          "internalType": "address",
          "name": "borrower",
          "type": "address"
        },
        {
          "indexed": false,
          "internalType": "uint256",
          "name": "repayAmount",
          "type": "uint256"
        },
        {
          "indexed": false,
          "internalType": "uint256",
          "name": "accountBorrows",
          "type": "uint256"
        },
        {
          "indexed": false,
          "internalType": "uint256",
          "name": "totalBorrows",
          "type": "uint256"
        }
      ],
      "name": "RepayBorrow",
      "type": "event"
    },
    {
      "anonymous": false,
      "inputs": [
        {
          "indexed": false,
          "internalType": "address",
          "name": "benefactor",
          "type": "address"
        },
        {
          "indexed": false,
          "internalType": "uint256",
          "name": "addAmount",
          "type": "uint256"
        },
        {
          "indexed": false,
          "internalType": "uint256",
          "name": "newTotalReserves",
          "type": "uint256"
        }
      ],
      "name": "ReservesAdded",
      "type": "event"
    },
    {
      "anonymous": false,
      "inputs": [
        {
          "indexed": false,
          "internalType": "address",
          "name": "admin",
          "type": "address"
        },
        {
          "indexed": false,
          "internalType": "uint256",
          "name": "reduceAmount",
          "type": "uint256"
        },
        {
          "indexed": false,
          "internalType": "uint256",
          "name": "newTotalReserves",
          "type": "uint256"
        }
      ],
      "name": "ReservesReduced",
      "type": "event"
    },
    {
      "anonymous": false,
      "inputs": [
        {
          "indexed": true,
          "internalType": "address",
          "name": "from",
          "type": "address"
        },
        {
          "indexed": true,
          "internalType": "address",
          "name": "to",
          "type": "address"
        },
        {
          "indexed": false,
          "internalType": "uint256",
          "name": "amount",
          "type": "uint256"
        }
      ],
      "name": "Transfer",
      "type": "event"
    },
    {
      "inputs": [],
      "name": "_acceptAdmin",
      "outputs": [
        {
          "internalType": "uint256",
          "name": "",
          "type": "uint256"
        }
      ],
      "stateMutability": "nonpayable",
      "type": "function"
    },
    {
      "inputs": [
        {
          "internalType": "uint256",
          "name": "addAmount",
          "type": "uint256"
        }
      ],
      "name": "_addReserves",
      "outputs": [
        {
          "internalType": "uint256",
          "name": "",
          "type": "uint256"
        }
      ],
      "stateMutability": "nonpayable",
      "type": "function"
    },
    {
      "inputs": [
        {
          "internalType": "address",
          "name": "compLikeDelegatee",
          "type": "address"
        }
      ],
      "name": "_delegateCompLikeTo",
      "outputs": [],
      "stateMutability": "nonpayable",
      "type": "function"
    },
    {
      "inputs": [
        {
          "internalType": "uint256",
          "name": "reduceAmount",
          "type": "uint256"
        }
      ],
      "name": "_reduceReserves",
      "outputs": [
        {
          "internalType": "uint256",
          "name": "",
          "type": "uint256"
        }
      ],
      "stateMutability": "nonpayable",
      "type": "function"
    },
    {
      "inputs": [
        {
          "internalType": "contract ComptrollerInterface",
          "name": "newComptroller",
          "type": "address"
        }
      ],
      "name": "_setComptroller",
      "outputs": [
        {
          "internalType": "uint256",
          "name": "",
          "type": "uint256"
        }
      ],
      "stateMutability": "nonpayable",
      "type": "function"
    },
    {
      "inputs": [
        {
          "internalType": "contract InterestRateModel",
          "name": "newInterestRateModel",
          "type": "address"
        }
      ],
      "name": "_setInterestRateModel",
      "outputs": [
        {
          "internalType": "uint256",
          "name": "",
          "type": "uint256"
        }
      ],
      "stateMutability": "nonpayable",
      "type": "function"
    },
    {
      "inputs": [
        {
          "internalType": "address payable",
          "name": "newPendingAdmin",
          "type": "address"
        }
      ],
      "name": "_setPendingAdmin",
      "outputs": [
        {
          "internalType": "uint256",
          "name": "",
          "type": "uint256"
        }
      ],
      "stateMutability": "nonpayable",
      "type": "function"
    },
    {
      "inputs": [
        {
          "internalType": "uint256",
          "name": "newReserveFactorMantissa",
          "type": "uint256"
        }
      ],
      "name": "_setReserveFactor",
      "outputs": [
        {
          "internalType": "uint256",
          "name": "",
          "type": "uint256"
        }
      ],
      "stateMutability": "nonpayable",
      "type": "function"
    },
    {
      "inputs": [],
      "name": "accrualBlockNumber",
      "outputs": [
        {
          "internalType": "uint256",
          "name": "",
          "type": "uint256"
        }
      ],
      "stateMutability": "view",
      "type": "function"
    },
    {
      "inputs": [],
      "name": "accrueInterest",
      "outputs": [
        {
          "internalType": "uint256",
          "name": "",
          "type": "uint256"
        }
      ],
      "stateMutability": "nonpayable",
      "type": "function"
    },
    {
      "inputs": [],
      "name": "admin",
      "outputs": [
        {
          "internalType": "address payable",
          "name": "",
          "type": "address"
        }
      ],
      "stateMutability": "view",
      "type": "function"
    },
    {
      "inputs": [
        {
          "internalType": "address",
          "name": "owner",
          "type": "address"
        },
        {
          "internalType": "address",
          "name": "spender",
          "type": "address"
        }
      ],
      "name": "allowance",
      "outputs": [
        {
          "internalType": "uint256",
          "name": "",
          "type": "uint256"
        }
      ],
      "stateMutability": "view",
      "type": "function"
    },
    {
      "inputs": [
        {
          "internalType": "address",
          "name": "spender",
          "type": "address"
        },
        {
          "internalType": "uint256",
          "name": "amount",
          "type": "uint256"
        }
      ],
      "name": "approve",
      "outputs": [
        {
          "internalType": "bool",
          "name": "",
          "type": "bool"
        }
      ],
      "stateMutability": "nonpayable",
      "type": "function"
    },
    {
      "inputs": [
        {
          "internalType": "address",
          "name": "owner",
          "type": "address"
        }
      ],
      "name": "balanceOf",
      "outputs": [
        {
          "internalType": "uint256",
          "name": "",
          "type": "uint256"
        }
      ],
      "stateMutability": "view",
      "type": "function"
    },
    {
      "inputs": [
        {
          "internalType": "address",
          "name": "owner",
          "type": "address"
        }
      ],
      "name": "balanceOfUnderlying",
      "outputs": [
        {
          "internalType": "uint256",
          "name": "",
          "type": "uint256"
        }
      ],
      "stateMutability": "nonpayable",
      "type": "function"
    },
    {
      "inputs": [
        {
          "internalType": "uint256",
          "name": "borrowAmount",
          "type": "uint256"
        }
      ],
      "name": "borrow",
      "outputs": [
        {
          "internalType": "uint256",
          "name": "",
          "type": "uint256"
        }
      ],
      "stateMutability": "nonpayable",
      "type": "function"
    },
    {
      "inputs": [
        {
          "internalType": "address",
          "name": "account",
          "type": "address"
        }
      ],
      "name": "borrowBalanceCurrent",
      "outputs": [
        {
          "internalType": "uint256",
          "name": "",
          "type": "uint256"
        }
      ],
      "stateMutability": "nonpayable",
      "type": "function"
    },
    {
      "inputs": [
        {
          "internalType": "address",
          "name": "account",
          "type": "address"
        }
      ],
      "name": "borrowBalanceStored",
      "outputs": [
        {
          "internalType": "uint256",
          "name": "",
          "type": "uint256"
        }
      ],
      "stateMutability": "view",
      "type": "function"
    },
    {
      "inputs": [],
      "name": "borrowIndex",
      "outputs": [
        {
          "internalType": "uint256",
          "name": "",
          "type": "uint256"
        }
      ],
      "stateMutability": "view",
      "type": "function"
    },
    {
      "inputs": [],
      "name": "borrowRatePerBlock",
      "outputs": [
        {
          "internalType": "uint256",
          "name": "",
          "type": "uint256"
        }
      ],
      "stateMutability": "view",
      "type": "function"
    },
    {
      "inputs": [],
      "name": "comptroller",
      "outputs": [
        {
          "internalType": "contract ComptrollerInterface",
          "name": "",
          "type": "address"
        }
      ],
      "stateMutability": "view",
      "type": "function"
    },
    {
      "inputs": [],
      "name": "decimals",
      "outputs": [
        {
          "internalType": "uint8",
          "name": "",
          "type": "uint8"
        }
      ],
      "stateMutability": "view",
      "type": "function"
    },
    {
      "inputs": [],
      "name": "exchangeRateCurrent",
      "outputs": [
        {
          "internalType": "uint256",
          "name": "",
          "type": "uint256"
        }
      ],
      "stateMutability": "nonpayable",
      "type": "function"
    },
    {
      "inputs": [],
      "name": "exchangeRateStored",
      "outputs": [
        {
          "internalType": "uint256",
          "name": "",
          "type": "uint256"
        }
      ],
      "stateMutability": "view",
      "type": "function"
    },
    {
      "inputs": [
        {
          "internalType": "address",
          "name": "account",
          "type": "address"
        }
      ],
      "name": "getAccountSnapshot",
      "outputs": [
        {
          "internalType": "uint256",
          "name": "",
          "type": "uint256"
        },
        {
          "internalType": "uint256",
          "name": "",
          "type": "uint256"
        },
        {
          "internalType": "uint256",
          "name": "",
          "type": "uint256"
        },
        {
          "internalType": "uint256",
          "name": "",
          "type": "uint256"
        }
      ],
      "stateMutability": "view",
      "type": "function"
    },
    {
      "inputs": [],
      "name": "getCash",
      "outputs": [
        {
          "internalType": "uint256",
          "name": "",
          "type": "uint256"
        }
      ],
      "stateMutability": "view",
      "type": "function"
    },
    {
      "inputs": [
        {
          "internalType": "address",
          "name": "underlying_",
          "type": "address"
        },
        {
          "internalType": "contract ComptrollerInterface",
          "name": "comptroller_",
          "type": "address"
        },
        {
          "internalType": "contract InterestRateModel",
          "name": "interestRateModel_",
          "type": "address"
        },
        {
          "internalType": "uint256",
          "name": "initialExchangeRateMantissa_",
          "type": "uint256"
        },
        {
          "internalType": "string",
          "name": "name_",
          "type": "string"
        },
        {
          "internalType": "string",
          "name": "symbol_",
          "type": "string"
        },
        {
          "internalType": "uint8",
          "name": "decimals_",
          "type": "uint8"
        }
      ],
      "name": "initialize",
      "outputs": [],
      "stateMutability": "nonpayable",
      "type": "function"
    },
    {
      "inputs": [
        {
          "internalType": "contract ComptrollerInterface",
          "name": "comptroller_",
          "type": "address"
        },
        {
          "internalType": "contract InterestRateModel",
          "name": "interestRateModel_",
          "type": "address"
        },
        {
          "internalType": "uint256",
          "name": "initialExchangeRateMantissa_",
          "type": "uint256"
        },
        {
          "internalType": "string",
          "name": "name_",
          "type": "string"
        },
        {
          "internalType": "string",
          "name": "symbol_",
          "type": "string"
        },
        {
          "internalType": "uint8",
          "name": "decimals_",
          "type": "uint8"
        }
      ],
      "name": "initialize",
      "outputs": [],
      "stateMutability": "nonpayable",
      "type": "function"
    },
    {
      "inputs": [],
      "name": "interestRateModel",
      "outputs": [
        {
          "internalType": "contract InterestRateModel",
          "name": "",
          "type": "address"
        }
      ],
      "stateMutability": "view",
      "type": "function"
    },
    {
      "inputs": [],
      "name": "isCToken",
      "outputs": [
        {
          "internalType": "bool",
          "name": "",
          "type": "bool"
        }
      ],
      "stateMutability": "view",
      "type": "function"
    },
    {
      "inputs": [
        {
          "internalType": "address",
          "name": "borrower",
          "type": "address"
        },
        {
          "internalType": "uint256",
          "name": "repayAmount",
          "type": "uint256"
        },
        {
          "internalType": "contract IVesting",
          "name": "vestingContract",
          "type": "address"
        }
      ],
      "name": "liquidateBorrow",
      "outputs": [
        {
          "internalType": "uint256",
          "name": "",
          "type": "uint256"
        }
      ],
      "stateMutability": "nonpayable",
      "type": "function"
    },
    {
      "inputs": [
        {
          "internalType": "uint256",
          "name": "mintAmount",
          "type": "uint256"
        }
      ],
      "name": "mint",
      "outputs": [
        {
          "internalType": "uint256",
          "name": "",
          "type": "uint256"
        }
      ],
      "stateMutability": "nonpayable",
      "type": "function"
    },
    {
      "inputs": [],
      "name": "name",
      "outputs": [
        {
          "internalType": "string",
          "name": "",
          "type": "string"
        }
      ],
      "stateMutability": "view",
      "type": "function"
    },
    {
      "inputs": [],
      "name": "pendingAdmin",
      "outputs": [
        {
          "internalType": "address payable",
          "name": "",
          "type": "address"
        }
      ],
      "stateMutability": "view",
      "type": "function"
    },
    {
      "inputs": [],
      "name": "protocolSeizeShareMantissa",
      "outputs": [
        {
          "internalType": "uint256",
          "name": "",
          "type": "uint256"
        }
      ],
      "stateMutability": "view",
      "type": "function"
    },
    {
      "inputs": [
        {
          "internalType": "uint256",
          "name": "redeemTokens",
          "type": "uint256"
        }
      ],
      "name": "redeem",
      "outputs": [
        {
          "internalType": "uint256",
          "name": "",
          "type": "uint256"
        }
      ],
      "stateMutability": "nonpayable",
      "type": "function"
    },
    {
      "inputs": [
        {
          "internalType": "uint256",
          "name": "redeemAmount",
          "type": "uint256"
        }
      ],
      "name": "redeemUnderlying",
      "outputs": [
        {
          "internalType": "uint256",
          "name": "",
          "type": "uint256"
        }
      ],
      "stateMutability": "nonpayable",
      "type": "function"
    },
    {
      "inputs": [
        {
          "internalType": "uint256",
          "name": "repayAmount",
          "type": "uint256"
        }
      ],
      "name": "repayBorrow",
      "outputs": [
        {
          "internalType": "uint256",
          "name": "",
          "type": "uint256"
        }
      ],
      "stateMutability": "nonpayable",
      "type": "function"
    },
    {
      "inputs": [
        {
          "internalType": "address",
          "name": "borrower",
          "type": "address"
        },
        {
          "internalType": "uint256",
          "name": "repayAmount",
          "type": "uint256"
        }
      ],
      "name": "repayBorrowBehalf",
      "outputs": [
        {
          "internalType": "uint256",
          "name": "",
          "type": "uint256"
        }
      ],
      "stateMutability": "nonpayable",
      "type": "function"
    },
    {
      "inputs": [],
      "name": "reserveFactorMantissa",
      "outputs": [
        {
          "internalType": "uint256",
          "name": "",
          "type": "uint256"
        }
      ],
      "stateMutability": "view",
      "type": "function"
    },
    {
      "inputs": [
        {
          "internalType": "address",
          "name": "liquidator",
          "type": "address"
        },
        {
          "internalType": "address",
          "name": "borrower",
          "type": "address"
        },
        {
          "internalType": "uint256",
          "name": "seizeTokens",
          "type": "uint256"
        }
      ],
      "name": "seize",
      "outputs": [
        {
          "internalType": "uint256",
          "name": "",
          "type": "uint256"
        }
      ],
      "stateMutability": "nonpayable",
      "type": "function"
    },
    {
      "inputs": [],
      "name": "supplyRatePerBlock",
      "outputs": [
        {
          "internalType": "uint256",
          "name": "",
          "type": "uint256"
        }
      ],
      "stateMutability": "view",
      "type": "function"
    },
    {
      "inputs": [
        {
          "internalType": "contract EIP20NonStandardInterface",
          "name": "token",
          "type": "address"
        }
      ],
      "name": "sweepToken",
      "outputs": [],
      "stateMutability": "nonpayable",
      "type": "function"
    },
    {
      "inputs": [],
      "name": "symbol",
      "outputs": [
        {
          "internalType": "string",
          "name": "",
          "type": "string"
        }
      ],
      "stateMutability": "view",
      "type": "function"
    },
    {
      "inputs": [],
      "name": "totalBorrows",
      "outputs": [
        {
          "internalType": "uint256",
          "name": "",
          "type": "uint256"
        }
      ],
      "stateMutability": "view",
      "type": "function"
    },
    {
      "inputs": [],
      "name": "totalBorrowsCurrent",
      "outputs": [
        {
          "internalType": "uint256",
          "name": "",
          "type": "uint256"
        }
      ],
      "stateMutability": "nonpayable",
      "type": "function"
    },
    {
      "inputs": [],
      "name": "totalReserves",
      "outputs": [
        {
          "internalType": "uint256",
          "name": "",
          "type": "uint256"
        }
      ],
      "stateMutability": "view",
      "type": "function"
    },
    {
      "inputs": [],
      "name": "totalSupply",
      "outputs": [
        {
          "internalType": "uint256",
          "name": "",
          "type": "uint256"
        }
      ],
      "stateMutability": "view",
      "type": "function"
    },
    {
      "inputs": [
        {
          "internalType": "address",
          "name": "dst",
          "type": "address"
        },
        {
          "internalType": "uint256",
          "name": "amount",
          "type": "uint256"
        }
      ],
      "name": "transfer",
      "outputs": [
        {
          "internalType": "bool",
          "name": "",
          "type": "bool"
        }
      ],
      "stateMutability": "nonpayable",
      "type": "function"
    },
    {
      "inputs": [
        {
          "internalType": "address",
          "name": "src",
          "type": "address"
        },
        {
          "internalType": "address",
          "name": "dst",
          "type": "address"
        },
        {
          "internalType": "uint256",
          "name": "amount",
          "type": "uint256"
        }
      ],
      "name": "transferFrom",
      "outputs": [
        {
          "internalType": "bool",
          "name": "",
          "type": "bool"
        }
      ],
      "stateMutability": "nonpayable",
      "type": "function"
    },
    {
      "inputs": [],
      "name": "underlying",
      "outputs": [
        {
          "internalType": "address",
          "name": "",
          "type": "address"
        }
      ],
      "stateMutability": "view",
      "type": "function"
    }
  ],
  "transactionHash": "0xa29131cc386e9c65a079113b942e94890fac02ee5aa4688e5e567ec5f38b89ad",
  "args": [
    "0xCec9b9aA30b51D2cdaE6586b7016FceC901aDC25",
    "0xE85177c2E8c9C397fB971A13046317803C063cD7",
    "0x13584Ac0Befd9E37DCcA8B4D9aE143C2500A8e0e",
    "200000000000000",
    "Juice USDC",
    "jUSDC",
    8
  ],
  "numDeployments": 1,
  "solcInputHash": "f2f1ca7f59ca0117723b533f70db86be",
  "bytecode": "0x60806040523480156200001157600080fd5b5060405162005cc838038062005cc8833981810160405260e08110156200003757600080fd5b81516020830151604080850151606086015160808701805193519597949692959194919392820192846401000000008211156200007357600080fd5b9083019060208201858111156200008957600080fd5b8251640100000000811182820188101715620000a457600080fd5b82525081516020918201929091019080838360005b83811015620000d3578181015183820152602001620000b9565b50505050905090810190601f168015620001015780820380516001836020036101000a031916815260200191505b50604052602001805160405193929190846401000000008211156200012557600080fd5b9083019060208201858111156200013b57600080fd5b82516401000000008111828201881017156200015657600080fd5b82525081516020918201929091019080838360005b83811015620001855781810151838201526020016200016b565b50505050905090810190601f168015620001b35780820380516001836020036101000a031916815260200191505b506040526020015160038054610100600160a81b03191633610100021790559150620001e7905087878787878787620001f4565b50505050505050620008de565b6200020f868686868686620002a360201b620015041760201c565b601180546001600160a01b0319166001600160a01b038981169190911791829055604080516318160ddd60e01b8152905192909116916318160ddd91600480820192602092909190829003018186803b1580156200026c57600080fd5b505afa15801562000281573d6000803e3d6000fd5b505050506040513d60208110156200029857600080fd5b505050505050505050565b60035461010090046001600160a01b03163314620002f35760405162461bcd60e51b815260040180806020018281038252602481526020018062005c2f6024913960400191505060405180910390fd5b600954158015620003045750600a54155b620003415760405162461bcd60e51b815260040180806020018281038252602381526020018062005c536023913960400191505060405180910390fd5b600784905583620003845760405162461bcd60e51b815260040180806020018281038252603081526020018062005c766030913960400191505060405180910390fd5b60006200039a876001600160e01b03620004b916565b90508015620003f0576040805162461bcd60e51b815260206004820152601a60248201527f73657474696e6720636f6d7074726f6c6c6572206661696c6564000000000000604482015290519081900360640190fd5b620004036001600160e01b036200062116565b600955670de0b6b3a7640000600a5562000426866001600160e01b036200062616565b90508015620004675760405162461bcd60e51b815260040180806020018281038252602281526020018062005ca66022913960400191505060405180910390fd5b83516200047c9060019060208701906200083c565b508251620004929060029060208601906200083c565b50506003805460ff90921660ff199283161790556000805490911660011790555050505050565b60035460009061010090046001600160a01b03163314620004f357620004eb6001603f6001600160e01b03620007cc16565b90506200061c565b60055460408051623f1ee960e11b815290516001600160a01b0392831692851691627e3dd2916004808301926020929190829003018186803b1580156200053957600080fd5b505afa1580156200054e573d6000803e3d6000fd5b505050506040513d60208110156200056557600080fd5b5051620005b9576040805162461bcd60e51b815260206004820152601c60248201527f6d61726b6572206d6574686f642072657475726e65642066616c736500000000604482015290519081900360640190fd5b600580546001600160a01b0319166001600160a01b03858116918217909255604080519284168352602083019190915280517f7ac369dbd14fa5ea3f473ed67cc9d598964a77501540ba6751eb0b3decf5870d9281900390910190a160005b9150505b919050565b435b90565b600354600090819061010090046001600160a01b0316331462000663576200065a600160426001600160e01b03620007cc16565b9150506200061c565b620006766001600160e01b036200062116565b6009541462000696576200065a600a60416001600160e01b03620007cc16565b600660009054906101000a90046001600160a01b03169050826001600160a01b0316632191f92a6040518163ffffffff1660e01b815260040160206040518083038186803b158015620006e857600080fd5b505afa158015620006fd573d6000803e3d6000fd5b505050506040513d60208110156200071457600080fd5b505162000768576040805162461bcd60e51b815260206004820152601c60248201527f6d61726b6572206d6574686f642072657475726e65642066616c736500000000604482015290519081900360640190fd5b600680546001600160a01b0319166001600160a01b03858116918217909255604080519284168352602083019190915280517fedffc32e068c7c95dfd4bdfd5c4d939a084d6b11c4199eac8436ed234d72f9269281900390910190a1600062000618565b60007f45b96fe442630264581b197e84bbada861235052c5a1aadfff9ea4e40a969aa0836010811115620007fc57fe5b8360508111156200080957fe5b604080519283526020830191909152600082820152519081900360600190a18260108111156200083557fe5b9392505050565b828054600181600116156101000203166002900490600052602060002090601f016020900481019282601f106200087f57805160ff1916838001178555620008af565b82800160010185558215620008af579182015b82811115620008af57825182559160200191906001019062000892565b50620008bd929150620008c1565b5090565b6200062391905b80821115620008bd5760008155600101620008c8565b61534180620008ee6000396000f3fe608060405234801561001057600080fd5b50600436106102f15760003560e01c80637f1e06be1161019d578063bd6d894d116100e9578063f2b3abbd116100a2578063f851a4401161007c578063f851a44014610ad2578063f8f9da2814610ada578063fca7820b14610ae2578063fe9c44ae14610aff576102f1565b8063f2b3abbd14610a6e578063f3fdb15a14610a94578063f5e3c46214610a9c576102f1565b8063bd6d894d146109aa578063c37f68e2146109b2578063c5ebeaec146109fe578063db006a7514610a1b578063dd62ed3e14610a38578063e9c714f214610a66576102f1565b8063a0712d6811610156578063aa5af0fd11610130578063aa5af0fd1461093e578063ae9d70b014610946578063b2a02ff11461094e578063b71d1a0c14610984576102f1565b8063a0712d68146108ed578063a6afed951461090a578063a9059cbb14610912576102f1565b80637f1e06be14610726578063852a12e31461074c5780638f840ddd1461076957806395d89b411461077157806395dd91931461077957806399d8c1b41461079f576102f1565b8063313ce5671161025c5780635fe3b567116102155780636c540baf116101ef5780636c540baf146106e85780636f307dc3146106f057806370a08231146106f857806373acee981461071e576102f1565b80635fe3b567146106bb578063601a0bf1146106c35780636752e702146106e0576102f1565b8063313ce567146106245780633af9e669146106425780633b1d21a2146106685780633e941010146106705780634576b5db1461068d57806347bd3718146106b3576102f1565b8063182df0f5116102ae578063182df0f5146104185780631a31d465146104205780631be195601461057857806323b872dd1461059e5780632608f818146105d45780632678224714610600576102f1565b806306fdde03146102f6578063095ea7b3146103735780630e752702146103b3578063173b9904146103e257806317bfdfbc146103ea57806318160ddd14610410575b600080fd5b6102fe610b07565b6040805160208082528351818301528351919283929083019185019080838360005b83811015610338578181015183820152602001610320565b50505050905090810190601f1680156103655780820380516001836020036101000a031916815260200191505b509250505060405180910390f35b61039f6004803603604081101561038957600080fd5b506001600160a01b038135169060200135610b94565b604080519115158252519081900360200190f35b6103d0600480360360208110156103c957600080fd5b5035610c01565b60408051918252519081900360200190f35b6103d0610c17565b6103d06004803603602081101561040057600080fd5b50356001600160a01b0316610c1d565b6103d0610cdd565b6103d0610ce3565b610576600480360360e081101561043657600080fd5b6001600160a01b03823581169260208101358216926040820135909216916060820135919081019060a081016080820135600160201b81111561047857600080fd5b82018360208201111561048a57600080fd5b803590602001918460018302840111600160201b831117156104ab57600080fd5b91908080601f0160208091040260200160405190810160405280939291908181526020018383808284376000920191909152509295949360208101935035915050600160201b8111156104fd57600080fd5b82018360208201111561050f57600080fd5b803590602001918460018302840111600160201b8311171561053057600080fd5b91908080601f0160208091040260200160405190810160405280939291908181526020018383808284376000920191909152509295505050903560ff169150610d469050565b005b6105766004803603602081101561058e57600080fd5b50356001600160a01b0316610de5565b61039f600480360360608110156105b457600080fd5b506001600160a01b03813581169160208101359091169060400135610f21565b6103d0600480360360408110156105ea57600080fd5b506001600160a01b038135169060200135610f93565b610608610fa9565b604080516001600160a01b039092168252519081900360200190f35b61062c610fb8565b6040805160ff9092168252519081900360200190f35b6103d06004803603602081101561065857600080fd5b50356001600160a01b0316610fc1565b6103d0611077565b6103d06004803603602081101561068657600080fd5b5035611086565b6103d0600480360360208110156106a357600080fd5b50356001600160a01b0316611091565b6103d06111e6565b6106086111ec565b6103d0600480360360208110156106d957600080fd5b50356111fb565b6103d0611296565b6103d06112a1565b6106086112a7565b6103d06004803603602081101561070e57600080fd5b50356001600160a01b03166112b6565b6103d06112d1565b6105766004803603602081101561073c57600080fd5b50356001600160a01b0316611387565b6103d06004803603602081101561076257600080fd5b503561143e565b6103d0611449565b6102fe61144f565b6103d06004803603602081101561078f57600080fd5b50356001600160a01b03166114a7565b610576600480360360c08110156107b557600080fd5b6001600160a01b03823581169260208101359091169160408201359190810190608081016060820135600160201b8111156107ef57600080fd5b82018360208201111561080157600080fd5b803590602001918460018302840111600160201b8311171561082257600080fd5b91908080601f0160208091040260200160405190810160405280939291908181526020018383808284376000920191909152509295949360208101935035915050600160201b81111561087457600080fd5b82018360208201111561088657600080fd5b803590602001918460018302840111600160201b831117156108a757600080fd5b91908080601f0160208091040260200160405190810160405280939291908181526020018383808284376000920191909152509295505050903560ff1691506115049050565b6103d06004803603602081101561090357600080fd5b50356116eb565b6103d06116f7565b61039f6004803603604081101561092857600080fd5b506001600160a01b038135169060200135611a4f565b6103d0611ac0565b6103d0611ac6565b6103d06004803603606081101561096457600080fd5b506001600160a01b03813581169160208101359091169060400135611b65565b6103d06004803603602081101561099a57600080fd5b50356001600160a01b0316611bd6565b6103d0611c62565b6109d8600480360360208110156109c857600080fd5b50356001600160a01b0316611d1e565b604080519485526020850193909352838301919091526060830152519081900360800190f35b6103d060048036036020811015610a1457600080fd5b5035611db3565b6103d060048036036020811015610a3157600080fd5b5035611dbe565b6103d060048036036040811015610a4e57600080fd5b506001600160a01b0381358116916020013516611dc9565b6103d0611df4565b6103d060048036036020811015610a8457600080fd5b50356001600160a01b0316611ef7565b610608611f31565b6103d060048036036060811015610ab257600080fd5b506001600160a01b03813581169160208101359160409091013516611f40565b610608611f58565b6103d0611f6c565b6103d060048036036020811015610af857600080fd5b5035611fd0565b61039f61204e565b60018054604080516020600284861615610100026000190190941693909304601f81018490048402820184019092528181529291830182828015610b8c5780601f10610b6157610100808354040283529160200191610b8c565b820191906000526020600020905b815481529060010190602001808311610b6f57829003601f168201915b505050505081565b336000818152600f602090815260408083206001600160a01b03871680855290835281842086905581518681529151939493909284927f8c5be1e5ebec7d5bd14f71427d1e84f3dd0314c0f7b2291e5b200ac8c7c3b925929081900390910190a360019150505b92915050565b600080610c0d83612053565b509150505b919050565b60085481565b6000805460ff16610c62576040805162461bcd60e51b815260206004820152600a6024820152691c994b595b9d195c995960b21b604482015290519081900360640190fd5b6000805460ff19168155610c746116f7565b14610cbf576040805162461bcd60e51b81526020600482015260166024820152751858d8dc9d59481a5b9d195c995cdd0819985a5b195960521b604482015290519081900360640190fd5b610cc8826114a7565b90505b6000805460ff19166001179055919050565b600d5481565b6000806000610cf06120fc565b90925090506000826003811115610d0357fe5b14610d3f5760405162461bcd60e51b81526004018080602001828103825260358152602001806152576035913960400191505060405180910390fd5b9150505b90565b610d54868686868686611504565b601180546001600160a01b0319166001600160a01b038981169190911791829055604080516318160ddd60e01b8152905192909116916318160ddd91600480820192602092909190829003018186803b158015610db057600080fd5b505afa158015610dc4573d6000803e3d6000fd5b505050506040513d6020811015610dda57600080fd5b505050505050505050565b6011546001600160a01b0382811691161415610e325760405162461bcd60e51b81526004018080602001828103825260328152602001806150866032913960400191505060405180910390fd5b604080516370a0823160e01b815230600482015290516000916001600160a01b038416916370a0823191602480820192602092909190829003018186803b158015610e7c57600080fd5b505afa158015610e90573d6000803e3d6000fd5b505050506040513d6020811015610ea657600080fd5b50516003546040805163a9059cbb60e01b81526101009092046001600160a01b03908116600484015260248301849052905192935084169163a9059cbb9160448082019260009290919082900301818387803b158015610f0557600080fd5b505af1158015610f19573d6000803e3d6000fd5b505050505050565b6000805460ff16610f66576040805162461bcd60e51b815260206004820152600a6024820152691c994b595b9d195c995960b21b604482015290519081900360640190fd5b6000805460ff19168155610f7c338686866121ab565b1490506000805460ff191660011790559392505050565b600080610fa08484612437565b50949350505050565b6004546001600160a01b031681565b60035460ff1681565b6000610fcb614e99565b6040518060200160405280610fde611c62565b90526001600160a01b0384166000908152600e602052604081205491925090819061100a9084906124e2565b9092509050600082600381111561101d57fe5b1461106f576040805162461bcd60e51b815260206004820152601f60248201527f62616c616e636520636f756c64206e6f742062652063616c63756c6174656400604482015290519081900360640190fd5b949350505050565b6000611081612536565b905090565b6000610bfb826125b6565b60035460009061010090046001600160a01b031633146110be576110b76001603f61264a565b9050610c12565b60055460408051623f1ee960e11b815290516001600160a01b0392831692851691627e3dd2916004808301926020929190829003018186803b15801561110357600080fd5b505afa158015611117573d6000803e3d6000fd5b505050506040513d602081101561112d57600080fd5b5051611180576040805162461bcd60e51b815260206004820152601c60248201527f6d61726b6572206d6574686f642072657475726e65642066616c736500000000604482015290519081900360640190fd5b600580546001600160a01b0319166001600160a01b03858116918217909255604080519284168352602083019190915280517f7ac369dbd14fa5ea3f473ed67cc9d598964a77501540ba6751eb0b3decf5870d9281900390910190a160005b9392505050565b600b5481565b6005546001600160a01b031681565b6000805460ff16611240576040805162461bcd60e51b815260206004820152600a6024820152691c994b595b9d195c995960b21b604482015290519081900360640190fd5b6000805460ff191681556112526116f7565b905080156112785761127081601081111561126957fe5b603061264a565b915050610ccb565b611281836126b0565b9150506000805460ff19166001179055919050565b666379da05b6000081565b60095481565b6011546001600160a01b031681565b6001600160a01b03166000908152600e602052604090205490565b6000805460ff16611316576040805162461bcd60e51b815260206004820152600a6024820152691c994b595b9d195c995960b21b604482015290519081900360640190fd5b6000805460ff191681556113286116f7565b14611373576040805162461bcd60e51b81526020600482015260166024820152751858d8dc9d59481a5b9d195c995cdd0819985a5b195960521b604482015290519081900360640190fd5b50600b546000805460ff1916600117905590565b60035461010090046001600160a01b031633146113d55760405162461bcd60e51b815260040180806020018281038252602d8152602001806150e8602d913960400191505060405180910390fd5b601154604080516317066a5760e21b81526001600160a01b03848116600483015291519190921691635c19a95c91602480830192600092919082900301818387803b15801561142357600080fd5b505af1158015611437573d6000803e3d6000fd5b5050505050565b6000610bfb826127e3565b600c5481565b6002805460408051602060018416156101000260001901909316849004601f81018490048402820184019092528181529291830182828015610b8c5780601f10610b6157610100808354040283529160200191610b8c565b60008060006114b584612864565b909250905060008260038111156114c857fe5b146111df5760405162461bcd60e51b81526004018080602001828103825260378152602001806151626037913960400191505060405180910390fd5b60035461010090046001600160a01b031633146115525760405162461bcd60e51b815260040180806020018281038252602481526020018061503f6024913960400191505060405180910390fd5b6009541580156115625750600a54155b61159d5760405162461bcd60e51b81526004018080602001828103825260238152602001806150636023913960400191505060405180910390fd5b6007849055836115de5760405162461bcd60e51b81526004018080602001828103825260308152602001806150b86030913960400191505060405180910390fd5b60006115e987611091565b9050801561163e576040805162461bcd60e51b815260206004820152601a60248201527f73657474696e6720636f6d7074726f6c6c6572206661696c6564000000000000604482015290519081900360640190fd5b611646612918565b600955670de0b6b3a7640000600a5561165e8661291c565b9050801561169d5760405162461bcd60e51b81526004018080602001828103825260228152602001806151156022913960400191505060405180910390fd5b83516116b0906001906020870190614eac565b5082516116c4906002906020860190614eac565b50506003805460ff90921660ff199283161790556000805490911660011790555050505050565b600080610c0d83612a91565b600080611702612918565b6009549091508082141561171b57600092505050610d43565b6000611725612536565b600b54600c54600a54600654604080516315f2405360e01b815260048101879052602481018690526044810185905290519596509394929391926000926001600160a01b03909216916315f24053916064808301926020929190829003018186803b15801561179357600080fd5b505afa1580156117a7573d6000803e3d6000fd5b505050506040513d60208110156117bd57600080fd5b5051905065048c2739500081111561181c576040805162461bcd60e51b815260206004820152601c60248201527f626f72726f772072617465206973206162737572646c79206869676800000000604482015290519081900360640190fd5b6000806118298989612b12565b9092509050600082600381111561183c57fe5b1461188e576040805162461bcd60e51b815260206004820152601f60248201527f636f756c64206e6f742063616c63756c61746520626c6f636b2064656c746100604482015290519081900360640190fd5b611896614e99565b6000806000806118b460405180602001604052808a81525087612b35565b909750945060008760038111156118c757fe5b146118f9576118e4600960068960038111156118df57fe5b612b9d565b9e505050505050505050505050505050610d43565b611903858c6124e2565b9097509350600087600381111561191657fe5b1461192e576118e4600960018960038111156118df57fe5b611938848c612c03565b9097509250600087600381111561194b57fe5b14611963576118e4600960048960038111156118df57fe5b61197e6040518060200160405280600854815250858c612c29565b9097509150600087600381111561199157fe5b146119a9576118e4600960058960038111156118df57fe5b6119b4858a8b612c29565b909750905060008760038111156119c757fe5b146119df576118e4600960038960038111156118df57fe5b60098e9055600a819055600b839055600c829055604080518d8152602081018690528082018390526060810185905290517f4dec04e750ca11537cabcd8a9eab06494de08da3735bc8871cd41250e190bc049181900360800190a160009e50505050505050505050505050505090565b6000805460ff16611a94576040805162461bcd60e51b815260206004820152600a6024820152691c994b595b9d195c995960b21b604482015290519081900360640190fd5b6000805460ff19168155611aaa333386866121ab565b1490506000805460ff1916600117905592915050565b600a5481565b6006546000906001600160a01b031663b8168816611ae2612536565b600b54600c546008546040518563ffffffff1660e01b81526004018085815260200184815260200183815260200182815260200194505050505060206040518083038186803b158015611b3457600080fd5b505afa158015611b48573d6000803e3d6000fd5b505050506040513d6020811015611b5e57600080fd5b5051905090565b6000805460ff16611baa576040805162461bcd60e51b815260206004820152600a6024820152691c994b595b9d195c995960b21b604482015290519081900360640190fd5b6000805460ff19169055611bc033858585612c85565b90506000805460ff191660011790559392505050565b60035460009061010090046001600160a01b03163314611bfc576110b76001604561264a565b600480546001600160a01b038481166001600160a01b0319831681179093556040805191909216808252602082019390935281517fca4f2f25d0898edd99413412fb94012f9e54ec8142f9b093e7720646a95b16a9929181900390910190a160006111df565b6000805460ff16611ca7576040805162461bcd60e51b815260206004820152600a6024820152691c994b595b9d195c995960b21b604482015290519081900360640190fd5b6000805460ff19168155611cb96116f7565b14611d04576040805162461bcd60e51b81526020600482015260166024820152751858d8dc9d59481a5b9d195c995cdd0819985a5b195960521b604482015290519081900360640190fd5b611d0c610ce3565b90506000805460ff1916600117905590565b6001600160a01b0381166000908152600e6020526040812054819081908190818080611d4989612864565b935090506000816003811115611d5b57fe5b14611d795760095b975060009650869550859450611dac9350505050565b611d816120fc565b925090506000816003811115611d9357fe5b14611d9f576009611d63565b5060009650919450925090505b9193509193565b6000610bfb8261305f565b6000610bfb826130de565b6001600160a01b039182166000908152600f6020908152604080832093909416825291909152205490565b6004546000906001600160a01b031633141580611e0f575033155b15611e2757611e206001600061264a565b9050610d43565b60038054600480546001600160a01b03818116610100818102610100600160a81b0319871617968790556001600160a01b031990931690935560408051948390048216808652929095041660208401528351909391927ff9ffabca9c8276e99321725bcb43fb076a6c66a54b7f21c4e8146d8519b417dc92908290030190a1600454604080516001600160a01b038085168252909216602083015280517fca4f2f25d0898edd99413412fb94012f9e54ec8142f9b093e7720646a95b16a99281900390910190a160009250505090565b600080611f026116f7565b90508015611f2857611f20816010811115611f1957fe5b604061264a565b915050610c12565b6111df8361291c565b6006546001600160a01b031681565b600080611f4e858585613158565b5095945050505050565b60035461010090046001600160a01b031681565b6006546000906001600160a01b03166315f24053611f88612536565b600b54600c546040518463ffffffff1660e01b815260040180848152602001838152602001828152602001935050505060206040518083038186803b158015611b3457600080fd5b6000805460ff16612015576040805162461bcd60e51b815260206004820152600a6024820152691c994b595b9d195c995960b21b604482015290519081900360640190fd5b6000805460ff191681556120276116f7565b905080156120455761127081601081111561203e57fe5b604661264a565b61128183613205565b600181565b60008054819060ff1661209a576040805162461bcd60e51b815260206004820152600a6024820152691c994b595b9d195c995960b21b604482015290519081900360640190fd5b6000805460ff191681556120ac6116f7565b905080156120d7576120ca8160108111156120c357fe5b603661264a565b9250600091506120e89050565b6120e23333866132ad565b92509250505b6000805460ff191660011790559092909150565b600d54600090819080612117575050600754600091506121a7565b6000612121612536565b9050600061212d614e99565b600061213e84600b54600c546135fb565b93509050600081600381111561215057fe5b14612165579550600094506121a79350505050565b61216f8386613639565b92509050600081600381111561218157fe5b14612196579550600094506121a79350505050565b50516000955093506121a792505050565b9091565b600554604080516317b9b84b60e31b81523060048201526001600160a01b03868116602483015285811660448301526064820185905291516000938493169163bdcdc25891608480830192602092919082900301818787803b15801561221057600080fd5b505af1158015612224573d6000803e3d6000fd5b505050506040513d602081101561223a57600080fd5b505190508015612259576122516003604a83612b9d565b91505061106f565b836001600160a01b0316856001600160a01b0316141561227f576122516002604b61264a565b60006001600160a01b03878116908716141561229e57506000196122c6565b506001600160a01b038086166000908152600f60209081526040808320938a16835292905220545b6000806000806122d68589612b12565b909450925060008460038111156122e957fe5b14612307576122fa6009604b61264a565b965050505050505061106f565b6001600160a01b038a166000908152600e602052604090205461232a9089612b12565b9094509150600084600381111561233d57fe5b1461234e576122fa6009604c61264a565b6001600160a01b0389166000908152600e60205260409020546123719089612c03565b9094509050600084600381111561238457fe5b14612395576122fa6009604d61264a565b6001600160a01b03808b166000908152600e6020526040808220859055918b1681522081905560001985146123ed576001600160a01b03808b166000908152600f60209081526040808320938f168352929052208390555b886001600160a01b03168a6001600160a01b03166000805160206151d38339815191528a6040518082815260200191505060405180910390a35060009a9950505050505050505050565b60008054819060ff1661247e576040805162461bcd60e51b815260206004820152600a6024820152691c994b595b9d195c995960b21b604482015290519081900360640190fd5b6000805460ff191681556124906116f7565b905080156124bb576124ae8160108111156124a757fe5b603561264a565b9250600091506124cc9050565b6124c63386866132ad565b92509250505b6000805460ff1916600117905590939092509050565b60008060006124ef614e99565b6124f98686612b35565b9092509050600082600381111561250c57fe5b1461251d575091506000905061252f565b6000612528826136ea565b9350935050505b9250929050565b601154604080516370a0823160e01b815230600482015290516000926001600160a01b03169182916370a0823191602480820192602092909190829003018186803b15801561258457600080fd5b505afa158015612598573d6000803e3d6000fd5b505050506040513d60208110156125ae57600080fd5b505191505090565b6000805460ff166125fb576040805162461bcd60e51b815260206004820152600a6024820152691c994b595b9d195c995960b21b604482015290519081900360640190fd5b6000805460ff1916815561260d6116f7565b9050801561262b5761127081601081111561262457fe5b604e61264a565b612634836136f9565b509150506000805460ff19166001179055919050565b60007f45b96fe442630264581b197e84bbada861235052c5a1aadfff9ea4e40a969aa083601081111561267957fe5b83605081111561268557fe5b604080519283526020830191909152600082820152519081900360600190a18260108111156111df57fe5b600354600090819061010090046001600160a01b031633146126d857611f206001603161264a565b6126e0612918565b600954146126f457611f20600a603361264a565b826126fd612536565b101561270f57611f20600e603261264a565b600c5483111561272557611f206002603461264a565b50600c548281039081111561276b5760405162461bcd60e51b81526004018080602001828103825260248152602001806152e86024913960400191505060405180910390fd5b600c81905560035461278b9061010090046001600160a01b0316846137e1565b600354604080516101009092046001600160a01b0316825260208201859052818101839052517f3bad0c59cf2f06e7314077049f48a93578cd16f5ef92329f1dab1420a99c177e916060908290030190a160006111df565b6000805460ff16612828576040805162461bcd60e51b815260206004820152600a6024820152691c994b595b9d195c995960b21b604482015290519081900360640190fd5b6000805460ff1916815561283a6116f7565b905080156128585761127081601081111561285157fe5b602761264a565b611281336000856138d8565b6001600160a01b03811660009081526010602052604081208054829182918291829161289b57506000945084935061291392505050565b6128ab8160000154600a54613d9f565b909450925060008460038111156128be57fe5b146128d3575091935060009250612913915050565b6128e1838260010154613dde565b909450915060008460038111156128f457fe5b14612909575091935060009250612913915050565b5060009450925050505b915091565b4390565b600354600090819061010090046001600160a01b0316331461294457611f206001604261264a565b61294c612918565b6009541461296057611f20600a604161264a565b600660009054906101000a90046001600160a01b03169050826001600160a01b0316632191f92a6040518163ffffffff1660e01b815260040160206040518083038186803b1580156129b157600080fd5b505afa1580156129c5573d6000803e3d6000fd5b505050506040513d60208110156129db57600080fd5b5051612a2e576040805162461bcd60e51b815260206004820152601c60248201527f6d61726b6572206d6574686f642072657475726e65642066616c736500000000604482015290519081900360640190fd5b600680546001600160a01b0319166001600160a01b03858116918217909255604080519284168352602083019190915280517fedffc32e068c7c95dfd4bdfd5c4d939a084d6b11c4199eac8436ed234d72f9269281900390910190a160006111df565b60008054819060ff16612ad8576040805162461bcd60e51b815260206004820152600a6024820152691c994b595b9d195c995960b21b604482015290519081900360640190fd5b6000805460ff19168155612aea6116f7565b90508015612b08576120ca816010811115612b0157fe5b601e61264a565b6120e23385613e09565b600080838311612b2957506000905081830361252f565b5060039050600061252f565b6000612b3f614e99565b600080612b50866000015186613d9f565b90925090506000826003811115612b6357fe5b14612b825750604080516020810190915260008152909250905061252f565b60408051602081019091529081526000969095509350505050565b60007f45b96fe442630264581b197e84bbada861235052c5a1aadfff9ea4e40a969aa0846010811115612bcc57fe5b846050811115612bd857fe5b604080519283526020830191909152818101859052519081900360600190a183601081111561106f57fe5b600080838301848110612c1b5760009250905061252f565b50600291506000905061252f565b6000806000612c36614e99565b612c408787612b35565b90925090506000826003811115612c5357fe5b14612c645750915060009050612c7d565b612c76612c70826136ea565b86612c03565b9350935050505b935093915050565b6005546040805163d02f735160e01b81523060048201526001600160a01b038781166024830152868116604483015285811660648301526084820185905291516000938493169163d02f73519160a480830192602092919082900301818787803b158015612cf257600080fd5b505af1158015612d06573d6000803e3d6000fd5b505050506040513d6020811015612d1c57600080fd5b505190508015612d33576122516003601b83612b9d565b846001600160a01b0316846001600160a01b03161415612d59576122516006601c61264a565b612d61614f2a565b6001600160a01b0385166000908152600e6020526040902054612d849085612b12565b6020830181905282826003811115612d9857fe5b6003811115612da357fe5b9052506000905081516003811115612db757fe5b14612ddc57612dd36009601a836000015160038111156118df57fe5b9250505061106f565b612dfb846040518060200160405280666379da05b600008152506141d9565b60808201819052612e0d908590614201565b6060820152612e1a6120fc565b60c0830181905282826003811115612e2e57fe5b6003811115612e3957fe5b9052506000905081516003811115612e4d57fe5b14612e9f576040805162461bcd60e51b815260206004820152601860248201527f65786368616e67652072617465206d617468206572726f720000000000000000604482015290519081900360640190fd5b612ebf60405180602001604052808360c00151815250826080015161423b565b60a08201819052600c54612ed29161425a565b60e0820152600d546080820151612ee99190614201565b6101008201526001600160a01b0386166000908152600e60205260409020546060820151612f179190612c03565b6040830181905282826003811115612f2b57fe5b6003811115612f3657fe5b9052506000905081516003811115612f4a57fe5b14612f6657612dd360096019836000015160038111156118df57fe5b60e0810151600c55610100810151600d556020808201516001600160a01b038088166000818152600e855260408082209490945583860151928b168082529084902092909255606085015183519081529251919390926000805160206151d3833981519152929081900390910190a36080810151604080519182525130916001600160a01b038816916000805160206151d38339815191529181900360200190a360a081015160e082015160408051308152602081019390935282810191909152517fa91e67c5ea634cd43a12c5a482724b03de01e85ca68702a53d0c2f45cb7c1dc59181900360600190a16000979650505050505050565b6000805460ff166130a4576040805162461bcd60e51b815260206004820152600a6024820152691c994b595b9d195c995960b21b604482015290519081900360640190fd5b6000805460ff191681556130b66116f7565b905080156130d4576112708160108111156130cd57fe5b600861264a565b6112813384614290565b6000805460ff16613123576040805162461bcd60e51b815260206004820152600a6024820152691c994b595b9d195c995960b21b604482015290519081900360640190fd5b6000805460ff191681556131356116f7565b9050801561314c5761127081601081111561285157fe5b611281338460006138d8565b60008054819060ff1661319f576040805162461bcd60e51b815260206004820152600a6024820152691c994b595b9d195c995960b21b604482015290519081900360640190fd5b6000805460ff191681556131b16116f7565b905080156131dc576131cf8160108111156131c857fe5b600f61264a565b9250600091506131ee9050565b6131e833878787614524565b92509250505b6000805460ff191660011790559094909350915050565b60035460009061010090046001600160a01b0316331461322b576110b76001604761264a565b613233612918565b60095414613247576110b7600a604861264a565b670de0b6b3a7640000821115613263576110b76002604961264a565b6008805490839055604080518281526020810185905281517faaa68312e2ea9d50e16af5068410ab56e1a1fd06037b1a35664812c30f821460929181900390910190a160006111df565b60055460408051631200453160e11b81523060048201526001600160a01b0386811660248301528581166044830152606482018590529151600093849384939116916324008a629160848082019260209290919082900301818787803b15801561331657600080fd5b505af115801561332a573d6000803e3d6000fd5b505050506040513d602081101561334057600080fd5b505190508015613364576133576003603883612b9d565b925060009150612c7d9050565b61336c612918565b6009541461338057613357600a603961264a565b613388614f77565b6001600160a01b03861660009081526010602052604090206001015460608201526133b286612864565b60808301819052602083018260038111156133c957fe5b60038111156133d457fe5b90525060009050816020015160038111156133eb57fe5b146134155761340760096037836020015160038111156118df57fe5b935060009250612c7d915050565b60001985141561342e5760808101516040820152613436565b604081018590525b613444878260400151614a0b565b60e08201819052608082015161345991612b12565b60a083018190526020830182600381111561347057fe5b600381111561347b57fe5b905250600090508160200151600381111561349257fe5b146134ce5760405162461bcd60e51b815260040180806020018281038252603a815260200180615199603a913960400191505060405180910390fd5b6134de600b548260e00151612b12565b60c08301819052602083018260038111156134f557fe5b600381111561350057fe5b905250600090508160200151600381111561351757fe5b146135535760405162461bcd60e51b81526004018080602001828103825260318152602001806151f36031913960400191505060405180910390fd5b60a080820180516001600160a01b03808a16600081815260106020908152604091829020948555600a5460019095019490945560c0870151600b81905560e088015195518251948f16855294840192909252828101949094526060820192909252608081019190915290517f1a2a22cb034d26d1854bdc6666a5b91fe25efbbb5dcad3b0355478d6f5c362a1929181900390910190a160e00151600097909650945050505050565b60008060008061360b8787612c03565b9092509050600082600381111561361e57fe5b1461362f5750915060009050612c7d565b612c768186612b12565b6000613643614e99565b60008061365886670de0b6b3a7640000613d9f565b9092509050600082600381111561366b57fe5b1461368a5750604080516020810190915260008152909250905061252f565b6000806136978388613dde565b909250905060008260038111156136aa57fe5b146136cd578160405180602001604052806000815250955095505050505061252f565b604080516020810190915290815260009890975095505050505050565b51670de0b6b3a7640000900490565b600080600080613707612918565b600954146137265761371b600a604f61264a565b935091506129139050565b6137303386614a0b565b905080600c54019150600c54821015613790576040805162461bcd60e51b815260206004820181905260248201527f61646420726573657276657320756e6578706563746564206f766572666c6f77604482015290519081900360640190fd5b600c829055604080513381526020810183905280820184905290517fa91e67c5ea634cd43a12c5a482724b03de01e85ca68702a53d0c2f45cb7c1dc59181900360600190a160009350915050915091565b6011546040805163a9059cbb60e01b81526001600160a01b0385811660048301526024820185905291519190921691829163a9059cbb9160448082019260009290919082900301818387803b15801561383957600080fd5b505af115801561384d573d6000803e3d6000fd5b5050505060003d60008114613869576020811461387357600080fd5b600019915061387f565b60206000803e60005191505b50806138d2576040805162461bcd60e51b815260206004820152601960248201527f544f4b454e5f5452414e534645525f4f55545f4641494c454400000000000000604482015290519081900360640190fd5b50505050565b60008215806138e5575081155b6139205760405162461bcd60e51b81526004018080602001828103825260348152602001806152b46034913960400191505060405180910390fd5b613928614fbd565b6139306120fc565b604083018190526020830182600381111561394757fe5b600381111561395257fe5b905250600090508160200151600381111561396957fe5b1461398d576139856009602b836020015160038111156118df57fe5b9150506111df565b8315613a0e5760608101849052604080516020810182529082015181526139b490856124e2565b60808301819052602083018260038111156139cb57fe5b60038111156139d657fe5b90525060009050816020015160038111156139ed57fe5b14613a095761398560096029836020015160038111156118df57fe5b613a87565b613a2a8360405180602001604052808460400151815250614c55565b6060830181905260208301826003811115613a4157fe5b6003811115613a4c57fe5b9052506000905081602001516003811115613a6357fe5b14613a7f576139856009602a836020015160038111156118df57fe5b608081018390525b60055460608201516040805163eabe7d9160e01b81523060048201526001600160a01b03898116602483015260448201939093529051600093929092169163eabe7d919160648082019260209290919082900301818787803b158015613aec57600080fd5b505af1158015613b00573d6000803e3d6000fd5b505050506040513d6020811015613b1657600080fd5b505190508015613b3657613b2d6003602883612b9d565b925050506111df565b613b3e612918565b60095414613b5257613b2d600a602c61264a565b613b62600d548360600151612b12565b60a0840181905260208401826003811115613b7957fe5b6003811115613b8457fe5b9052506000905082602001516003811115613b9b57fe5b14613bb757613b2d6009602e846020015160038111156118df57fe5b6001600160a01b0386166000908152600e60205260409020546060830151613bdf9190612b12565b60c0840181905260208401826003811115613bf657fe5b6003811115613c0157fe5b9052506000905082602001516003811115613c1857fe5b14613c3457613b2d6009602d846020015160038111156118df57fe5b8160800151613c41612536565b1015613c5357613b2d600e602f61264a565b613c618683608001516137e1565b60a0820151600d5560c08201516001600160a01b0387166000818152600e60209081526040918290209390935560608501518151908152905130936000805160206151d3833981519152928290030190a36080820151606080840151604080516001600160a01b038b168152602081019490945283810191909152517fe5b754fb1abb7f01b499791d0b820ae3b6af3424ac1c59768edb53f4ec31a9299281900390910190a160055460808301516060840151604080516351dff98960e01b81523060048201526001600160a01b038b81166024830152604482019490945260648101929092525191909216916351dff98991608480830192600092919082900301818387803b158015613d7457600080fd5b505af1158015613d88573d6000803e3d6000fd5b5060009250613d95915050565b9695505050505050565b60008083613db25750600090508061252f565b83830283858281613dbf57fe5b0414613dd35750600291506000905061252f565b60009250905061252f565b60008082613df2575060019050600061252f565b6000838581613dfd57fe5b04915091509250929050565b60055460408051634ef4c3e160e01b81523060048201526001600160a01b03858116602483015260448201859052915160009384938493911691634ef4c3e19160648082019260209290919082900301818787803b158015613e6a57600080fd5b505af1158015613e7e573d6000803e3d6000fd5b505050506040513d6020811015613e9457600080fd5b505190508015613eb857613eab6003601f83612b9d565b92506000915061252f9050565b613ec0612918565b60095414613ed457613eab600a602261264a565b613edc614fbd565b613ee46120fc565b6040830181905260208301826003811115613efb57fe5b6003811115613f0657fe5b9052506000905081602001516003811115613f1d57fe5b14613f4757613f3960096021836020015160038111156118df57fe5b93506000925061252f915050565b613f518686614a0b565b60c0820181905260408051602081018252908301518152613f729190614c55565b6060830181905260208301826003811115613f8957fe5b6003811115613f9457fe5b9052506000905081602001516003811115613fab57fe5b14613ffd576040805162461bcd60e51b815260206004820181905260248201527f4d494e545f45584348414e47455f43414c43554c4154494f4e5f4641494c4544604482015290519081900360640190fd5b61400d600d548260600151612c03565b608083018190526020830182600381111561402457fe5b600381111561402f57fe5b905250600090508160200151600381111561404657fe5b146140825760405162461bcd60e51b815260040180806020018281038252602881526020018061528c6028913960400191505060405180910390fd5b6001600160a01b0386166000908152600e602052604090205460608201516140aa9190612c03565b60a08301819052602083018260038111156140c157fe5b60038111156140cc57fe5b90525060009050816020015160038111156140e357fe5b1461411f5760405162461bcd60e51b815260040180806020018281038252602b815260200180615137602b913960400191505060405180910390fd5b6080810151600d5560a08101516001600160a01b0387166000818152600e60209081526040918290209390935560c084015160608086015183519485529484019190915282820193909352517f4c209b5fc8ad50758f13e2e1088ba56a560dff690a1c6fef26394f4c03821c4f929181900390910190a1606081015160408051918252516001600160a01b0388169130916000805160206151d38339815191529181900360200190a360c001516000969095509350505050565b6000670de0b6b3a76400006141f2848460000151614c6c565b816141f957fe5b049392505050565b60006111df8383604051806040016040528060158152602001747375627472616374696f6e20756e646572666c6f7760581b815250614cae565b6000614245614e99565b61424f8484614d45565b905061106f816136ea565b60006111df8383604051806040016040528060118152602001706164646974696f6e206f766572666c6f7760781b815250614d6f565b6005546040805163368f515360e21b81523060048201526001600160a01b0385811660248301526044820185905291516000938493169163da3d454c91606480830192602092919082900301818787803b1580156142ed57600080fd5b505af1158015614301573d6000803e3d6000fd5b505050506040513d602081101561431757600080fd5b5051905080156143365761432e6003600e83612b9d565b915050610bfb565b61433e612918565b600954146143515761432e600a8061264a565b8261435a612536565b101561436c5761432e600e600961264a565b614374614ffb565b61437d85612864565b602083018190528282600381111561439157fe5b600381111561439c57fe5b90525060009050815160038111156143b057fe5b146143d5576143cc60096007836000015160038111156118df57fe5b92505050610bfb565b6143e3816020015185612c03565b60408301819052828260038111156143f757fe5b600381111561440257fe5b905250600090508151600381111561441657fe5b14614432576143cc6009600c836000015160038111156118df57fe5b61443e600b5485612c03565b606083018190528282600381111561445257fe5b600381111561445d57fe5b905250600090508151600381111561447157fe5b1461448d576143cc6009600b836000015160038111156118df57fe5b61449785856137e1565b604080820180516001600160a01b03881660008181526010602090815290859020928355600a54600190930192909255606080860151600b81905593518551928352928201899052818501929092529081019190915290517f13ed6866d4e1ee6da46f845c46d7e54120883d75c5ea9a2dacc1c4ca8984ab809181900360800190a1600095945050505050565b60055460408051632fe3f38f60e11b81523060048201526001600160a01b0384811660248301528781166044830152868116606483015260848201869052915160009384938493911691635fc7e71e9160a48082019260209290919082900301818787803b15801561459557600080fd5b505af11580156145a9573d6000803e3d6000fd5b505050506040513d60208110156145bf57600080fd5b5051905080156145e3576145d66003601283612b9d565b925060009150614a029050565b6145eb612918565b600954146145ff576145d6600a601661264a565b866001600160a01b0316866001600160a01b03161415614625576145d66006601761264a565b84614636576145d66007601561264a565b60001985141561464c576145d66007601461264a565b60008061465a8989896132ad565b9092509050811561468a5761467b82601081111561467457fe5b601861264a565b945060009350614a0292505050565b600554604080516320f1a00360e11b815230600482015260248101849052815160009384936001600160a01b03909116926341e340069260448083019392829003018186803b1580156146dc57600080fd5b505afa1580156146f0573d6000803e3d6000fd5b505050506040513d604081101561470657600080fd5b508051602090910151909250905081156147515760405162461bcd60e51b81526004018080602001828103825260338152602001806152246033913960400191505060405180910390fd5b6000886001600160a01b03166319d152fa6040518163ffffffff1660e01b815260040160206040518083038186803b15801561478c57600080fd5b505afa1580156147a0573d6000803e3d6000fd5b505050506040513d60208110156147b657600080fd5b5051604080516370a0823160e01b81526001600160a01b038c8116600483015291519293508492918416916370a0823191602480820192602092909190829003018186803b15801561480757600080fd5b505afa15801561481b573d6000803e3d6000fd5b505050506040513d602081101561483157600080fd5b50511015614886576040805162461bcd60e51b815260206004820152601860248201527f4c49515549444154455f5345495a455f544f4f5f4d5543480000000000000000604482015290519081900360640190fd5b60055460408051634458305560e01b81526001600160a01b038f811660048301528e81166024830152604482018690528c811660648301529151600093929092169163445830559160848082019260209290919082900301818787803b1580156148ef57600080fd5b505af1158015614903573d6000803e3d6000fd5b505050506040513d602081101561491957600080fd5b505190508015614967576040805162461bcd60e51b81526020600482015260146024820152731d1bdad95b881cd95a5e9d5c994819985a5b195960621b604482015290519081900360640190fd5b7f298637f684da70674f26509b10f07ec2fbc77a335ab1e7d6215a4b2484d8bb528d8d878d8760405180866001600160a01b03166001600160a01b03168152602001856001600160a01b03166001600160a01b03168152602001848152602001836001600160a01b03166001600160a01b031681526020018281526020019550505050505060405180910390a1600098509396505050505050505b94509492505050565b601154604080516370a0823160e01b815230600482015290516000926001600160a01b031691839183916370a08231916024808301926020929190829003018186803b158015614a5a57600080fd5b505afa158015614a6e573d6000803e3d6000fd5b505050506040513d6020811015614a8457600080fd5b5051604080516323b872dd60e01b81526001600160a01b038881166004830152306024830152604482018890529151929350908416916323b872dd9160648082019260009290919082900301818387803b158015614ae157600080fd5b505af1158015614af5573d6000803e3d6000fd5b5050505060003d60008114614b115760208114614b1b57600080fd5b6000199150614b27565b60206000803e60005191505b5080614b7a576040805162461bcd60e51b815260206004820152601860248201527f544f4b454e5f5452414e534645525f494e5f4641494c45440000000000000000604482015290519081900360640190fd5b601154604080516370a0823160e01b815230600482015290516000926001600160a01b0316916370a08231916024808301926020929190829003018186803b158015614bc557600080fd5b505afa158015614bd9573d6000803e3d6000fd5b505050506040513d6020811015614bef57600080fd5b5051905082811015614c48576040805162461bcd60e51b815260206004820152601a60248201527f544f4b454e5f5452414e534645525f494e5f4f564552464c4f57000000000000604482015290519081900360640190fd5b9190910395945050505050565b6000806000614c62614e99565b6124f98686614dc4565b60006111df83836040518060400160405280601781526020017f6d756c7469706c69636174696f6e206f766572666c6f77000000000000000000815250614e23565b60008184841115614d3d5760405162461bcd60e51b81526004018080602001828103825283818151815260200191508051906020019080838360005b83811015614d02578181015183820152602001614cea565b50505050905090810190601f168015614d2f5780820380516001836020036101000a031916815260200191505b509250505060405180910390fd5b505050900390565b614d4d614e99565b6040518060200160405280614d66856000015185614c6c565b90529392505050565b60008383018285821015610fa05760405162461bcd60e51b8152602060048201818152835160248401528351909283926044909101919085019080838360008315614d02578181015183820152602001614cea565b6000614dce614e99565b600080614de3670de0b6b3a764000087613d9f565b90925090506000826003811115614df657fe5b14614e155750604080516020810190915260008152909250905061252f565b612528818660000151613639565b6000831580614e30575082155b15614e3d575060006111df565b83830283858281614e4a57fe5b04148390610fa05760405162461bcd60e51b8152602060048201818152835160248401528351909283926044909101919085019080838360008315614d02578181015183820152602001614cea565b6040518060200160405280600081525090565b828054600181600116156101000203166002900490600052602060002090601f016020900481019282601f10614eed57805160ff1916838001178555614f1a565b82800160010185558215614f1a579182015b82811115614f1a578251825591602001919060010190614eff565b50614f26929150615024565b5090565b604080516101208101909152806000815260200160008152602001600081526020016000815260200160008152602001600081526020016000815260200160008152602001600081525090565b6040805161010081019091528060008152602001600081526020016000815260200160008152602001600081526020016000815260200160008152602001600081525090565b6040805160e0810190915280600081526020016000815260200160008152602001600081526020016000815260200160008152602001600081525090565b604080516080810190915280600081526020016000815260200160008152602001600081525090565b610d4391905b80821115614f26576000815560010161502a56fe6f6e6c792061646d696e206d617920696e697469616c697a6520746865206d61726b65746d61726b6574206d6179206f6e6c7920626520696e697469616c697a6564206f6e63654345726332303a3a7377656570546f6b656e3a2063616e206e6f7420737765657020756e6465726c79696e6720746f6b656e696e697469616c2065786368616e67652072617465206d7573742062652067726561746572207468616e207a65726f2e6f6e6c79207468652061646d696e206d6179207365742074686520636f6d702d6c696b652064656c656761746573657474696e6720696e7465726573742072617465206d6f64656c206661696c65644d494e545f4e45575f4143434f554e545f42414c414e43455f43414c43554c4154494f4e5f4641494c4544626f72726f7742616c616e636553746f7265643a20626f72726f7742616c616e636553746f726564496e7465726e616c206661696c656452455041595f424f52524f575f4e45575f4143434f554e545f424f52524f575f42414c414e43455f43414c43554c4154494f4e5f4641494c4544ddf252ad1be2c89b69c2b068fc378daa952ba7f163c4a11628f55a4df523b3ef52455041595f424f52524f575f4e45575f544f54414c5f42414c414e43455f43414c43554c4154494f4e5f4641494c45444c49515549444154455f434f4d5054524f4c4c45525f43414c43554c4154455f414d4f554e545f5345495a455f4641494c454465786368616e67655261746553746f7265643a2065786368616e67655261746553746f726564496e7465726e616c206661696c65644d494e545f4e45575f544f54414c5f535550504c595f43414c43554c4154494f4e5f4641494c45446f6e65206f662072656465656d546f6b656e73496e206f722072656465656d416d6f756e74496e206d757374206265207a65726f72656475636520726573657276657320756e657870656374656420756e646572666c6f77a26469706673582212205da093e291fe140e1fca6bb773f5f8f6a470c65a22043fc3422ee01ee12b2e6b64736f6c634300060a00336f6e6c792061646d696e206d617920696e697469616c697a6520746865206d61726b65746d61726b6574206d6179206f6e6c7920626520696e697469616c697a6564206f6e6365696e697469616c2065786368616e67652072617465206d7573742062652067726561746572207468616e207a65726f2e73657474696e6720696e7465726573742072617465206d6f64656c206661696c6564",
  "devdoc": {
    "author": "Compound",
    "methods": {
      "_acceptAdmin()": {
        "details": "Admin function for pending admin to accept role and update admin",
        "returns": {
          "_0": "uint 0=success, otherwise a failure (see ErrorReporter.sol for details)"
        }
      },
      "_addReserves(uint256)": {
        "params": {
          "addAmount": "The amount fo underlying token to add as reserves"
        },
        "returns": {
          "_0": "uint 0=success, otherwise a failure (see ErrorReporter.sol for details)"
        }
      },
      "_delegateCompLikeTo(address)": {
        "details": "CTokens whose underlying are not CompLike should revert here",
        "params": {
          "compLikeDelegatee": "The address to delegate votes to"
        }
      },
      "_reduceReserves(uint256)": {
        "params": {
          "reduceAmount": "Amount of reduction to reserves"
        },
        "returns": {
          "_0": "uint 0=success, otherwise a failure (see ErrorReporter.sol for details)"
        }
      },
      "_setComptroller(address)": {
        "details": "Admin function to set a new comptroller",
        "returns": {
          "_0": "uint 0=success, otherwise a failure (see ErrorReporter.sol for details)"
        }
      },
      "_setInterestRateModel(address)": {
        "details": "Admin function to accrue interest and update the interest rate model",
        "params": {
          "newInterestRateModel": "the new interest rate model to use"
        },
        "returns": {
          "_0": "uint 0=success, otherwise a failure (see ErrorReporter.sol for details)"
        }
      },
      "_setPendingAdmin(address)": {
        "details": "Admin function to begin change of admin. The newPendingAdmin must call `_acceptAdmin` to finalize the transfer.",
        "params": {
          "newPendingAdmin": "New pending admin."
        },
        "returns": {
          "_0": "uint 0=success, otherwise a failure (see ErrorReporter.sol for details)"
        }
      },
      "_setReserveFactor(uint256)": {
        "details": "Admin function to accrue interest and set a new reserve factor",
        "returns": {
          "_0": "uint 0=success, otherwise a failure (see ErrorReporter.sol for details)"
        }
      },
      "accrueInterest()": {
        "details": "This calculates interest accrued from the last checkpointed block   up to the current block and writes new checkpoint to storage."
      },
      "allowance(address,address)": {
        "params": {
          "owner": "The address of the account which owns the tokens to be spent",
          "spender": "The address of the account which may transfer tokens"
        },
        "returns": {
          "_0": "The number of tokens allowed to be spent (-1 means infinite)"
        }
      },
      "approve(address,uint256)": {
        "details": "This will overwrite the approval amount for `spender`  and is subject to issues noted [here](https://eips.ethereum.org/EIPS/eip-20#approve)",
        "params": {
          "amount": "The number of tokens that are approved (-1 means infinite)",
          "spender": "The address of the account which may transfer tokens"
        },
        "returns": {
          "_0": "Whether or not the approval succeeded"
        }
      },
      "balanceOf(address)": {
        "params": {
          "owner": "The address of the account to query"
        },
        "returns": {
          "_0": "The number of tokens owned by `owner`"
        }
      },
      "balanceOfUnderlying(address)": {
        "details": "This also accrues interest in a transaction",
        "params": {
          "owner": "The address of the account to query"
        },
        "returns": {
          "_0": "The amount of underlying owned by `owner`"
        }
      },
      "borrow(uint256)": {
        "params": {
          "borrowAmount": "The amount of the underlying asset to borrow"
        },
        "returns": {
          "_0": "uint 0=success, otherwise a failure (see ErrorReporter.sol for details)"
        }
      },
      "borrowBalanceCurrent(address)": {
        "params": {
          "account": "The address whose balance should be calculated after updating borrowIndex"
        },
        "returns": {
          "_0": "The calculated balance"
        }
      },
      "borrowBalanceStored(address)": {
        "params": {
          "account": "The address whose balance should be calculated"
        },
        "returns": {
          "_0": "The calculated balance"
        }
      },
      "borrowRatePerBlock()": {
        "returns": {
          "_0": "The borrow interest rate per block, scaled by 1e18"
        }
      },
      "constructor": {
        "params": {
          "comptroller_": "The address of the Comptroller",
          "decimals_": "ERC-20 decimal precision of this token",
          "initialExchangeRateMantissa_": "The initial exchange rate, scaled by 1e18",
          "interestRateModel_": "The address of the interest rate model",
          "name_": "ERC-20 name of this token",
          "symbol_": "ERC-20 symbol of this token",
          "underlying_": "The address of the underlying asset"
        }
      },
      "exchangeRateCurrent()": {
        "returns": {
          "_0": "Calculated exchange rate scaled by 1e18"
        }
      },
      "exchangeRateStored()": {
        "details": "This function does not accrue interest before calculating the exchange rate",
        "returns": {
          "_0": "Calculated exchange rate scaled by 1e18"
        }
      },
      "getAccountSnapshot(address)": {
        "details": "This is used by comptroller to more efficiently perform liquidity checks.",
        "params": {
          "account": "Address of the account to snapshot"
        },
        "returns": {
          "_0": "(possible error, token balance, borrow balance, exchange rate mantissa)"
        }
      },
      "getCash()": {
        "returns": {
          "_0": "The quantity of underlying asset owned by this contract"
        }
      },
      "initialize(address,address,address,uint256,string,string,uint8)": {
        "params": {
          "comptroller_": "The address of the Comptroller",
          "decimals_": "ERC-20 decimal precision of this token",
          "initialExchangeRateMantissa_": "The initial exchange rate, scaled by 1e18",
          "interestRateModel_": "The address of the interest rate model",
          "name_": "ERC-20 name of this token",
          "symbol_": "ERC-20 symbol of this token",
          "underlying_": "The address of the underlying asset"
        }
      },
      "initialize(address,address,uint256,string,string,uint8)": {
        "params": {
          "comptroller_": "The address of the Comptroller",
          "decimals_": "EIP-20 decimal precision of this token",
          "initialExchangeRateMantissa_": "The initial exchange rate, scaled by 1e18",
          "interestRateModel_": "The address of the interest rate model",
          "name_": "EIP-20 name of this token",
          "symbol_": "EIP-20 symbol of this token"
        }
      },
      "liquidateBorrow(address,uint256,address)": {
        "params": {
          "borrower": "The borrower of this cToken to be liquidated",
          "repayAmount": "The amount of the underlying borrowed asset to repay",
          "vestingContract": "The market in which to seize collateral from the borrower"
        },
        "returns": {
          "_0": "uint 0=success, otherwise a failure (see ErrorReporter.sol for details)"
        }
      },
      "mint(uint256)": {
        "details": "Accrues interest whether or not the operation succeeds, unless reverted",
        "params": {
          "mintAmount": "The amount of the underlying asset to supply"
        },
        "returns": {
          "_0": "uint 0=success, otherwise a failure (see ErrorReporter.sol for details)"
        }
      },
      "redeem(uint256)": {
        "details": "Accrues interest whether or not the operation succeeds, unless reverted",
        "params": {
          "redeemTokens": "The number of cTokens to redeem into underlying"
        },
        "returns": {
          "_0": "uint 0=success, otherwise a failure (see ErrorReporter.sol for details)"
        }
      },
      "redeemUnderlying(uint256)": {
        "details": "Accrues interest whether or not the operation succeeds, unless reverted",
        "params": {
          "redeemAmount": "The amount of underlying to redeem"
        },
        "returns": {
          "_0": "uint 0=success, otherwise a failure (see ErrorReporter.sol for details)"
        }
      },
      "repayBorrow(uint256)": {
        "params": {
          "repayAmount": "The amount to repay"
        },
        "returns": {
          "_0": "uint 0=success, otherwise a failure (see ErrorReporter.sol for details)"
        }
      },
      "repayBorrowBehalf(address,uint256)": {
        "params": {
          "borrower": "the account with the debt being payed off",
          "repayAmount": "The amount to repay"
        },
        "returns": {
          "_0": "uint 0=success, otherwise a failure (see ErrorReporter.sol for details)"
        }
      },
      "seize(address,address,uint256)": {
        "details": "Will fail unless called by another cToken during the process of liquidation.  Its absolutely critical to use msg.sender as the borrowed cToken and not a parameter.",
        "params": {
          "borrower": "The account having collateral seized",
          "liquidator": "The account receiving seized collateral",
          "seizeTokens": "The number of cTokens to seize"
        },
        "returns": {
          "_0": "uint 0=success, otherwise a failure (see ErrorReporter.sol for details)"
        }
      },
      "supplyRatePerBlock()": {
        "returns": {
          "_0": "The supply interest rate per block, scaled by 1e18"
        }
      },
      "sweepToken(address)": {
        "params": {
          "token": "The address of the ERC-20 token to sweep"
        }
      },
      "totalBorrowsCurrent()": {
        "returns": {
          "_0": "The total borrows with interest"
        }
      },
      "transfer(address,uint256)": {
        "params": {
          "amount": "The number of tokens to transfer",
          "dst": "The address of the destination account"
        },
        "returns": {
          "_0": "Whether or not the transfer succeeded"
        }
      },
      "transferFrom(address,address,uint256)": {
        "params": {
          "amount": "The number of tokens to transfer",
          "dst": "The address of the destination account",
          "src": "The address of the source account"
        },
        "returns": {
          "_0": "Whether or not the transfer succeeded"
        }
      }
    },
    "title": "Compound's CErc20 Contract"
  },
  "userdoc": {
    "methods": {
      "_acceptAdmin()": {
        "notice": "Accepts transfer of admin rights. msg.sender must be pendingAdmin"
      },
      "_addReserves(uint256)": {
        "notice": "The sender adds to reserves."
      },
      "_delegateCompLikeTo(address)": {
        "notice": "Admin call to delegate the votes of the COMP-like underlying"
      },
      "_reduceReserves(uint256)": {
        "notice": "Accrues interest and reduces reserves by transferring to admin"
      },
      "_setComptroller(address)": {
        "notice": "Sets a new comptroller for the market"
      },
      "_setInterestRateModel(address)": {
        "notice": "accrues interest and updates the interest rate model using _setInterestRateModelFresh"
      },
      "_setPendingAdmin(address)": {
        "notice": "Begins transfer of admin rights. The newPendingAdmin must call `_acceptAdmin` to finalize the transfer."
      },
      "_setReserveFactor(uint256)": {
        "notice": "accrues interest and sets a new reserve factor for the protocol using _setReserveFactorFresh"
      },
      "accrueInterest()": {
        "notice": "Applies accrued interest to total borrows and reserves"
      },
      "allowance(address,address)": {
        "notice": "Get the current allowance from `owner` for `spender`"
      },
      "approve(address,uint256)": {
        "notice": "Approve `spender` to transfer up to `amount` from `src`"
      },
      "balanceOf(address)": {
        "notice": "Get the token balance of the `owner`"
      },
      "balanceOfUnderlying(address)": {
        "notice": "Get the underlying balance of the `owner`"
      },
      "borrow(uint256)": {
        "notice": "Sender borrows assets from the protocol to their own address"
      },
      "borrowBalanceCurrent(address)": {
        "notice": "Accrue interest to updated borrowIndex and then calculate account's borrow balance using the updated borrowIndex"
      },
      "borrowBalanceStored(address)": {
        "notice": "Return the borrow balance of account based on stored data"
      },
      "borrowRatePerBlock()": {
        "notice": "Returns the current per-block borrow interest rate for this cToken"
      },
      "constructor": "Constructs the new money market",
      "exchangeRateCurrent()": {
        "notice": "Accrue interest then return the up-to-date exchange rate"
      },
      "exchangeRateStored()": {
        "notice": "Calculates the exchange rate from the underlying to the CToken"
      },
      "getAccountSnapshot(address)": {
        "notice": "Get a snapshot of the account's balances, and the cached exchange rate"
      },
      "getCash()": {
        "notice": "Get cash balance of this cToken in the underlying asset"
      },
      "initialize(address,address,address,uint256,string,string,uint8)": {
        "notice": "Initialize the new money market"
      },
      "initialize(address,address,uint256,string,string,uint8)": {
        "notice": "Initialize the money market"
      },
      "isCToken()": {
        "notice": "Indicator that this is a CToken contract (for inspection)"
      },
      "liquidateBorrow(address,uint256,address)": {
        "notice": "The sender liquidates the borrowers collateral.  The collateral seized is transferred to the liquidator."
      },
      "mint(uint256)": {
        "notice": "Sender supplies assets into the market and receives cTokens in exchange"
      },
      "redeem(uint256)": {
        "notice": "Sender redeems cTokens in exchange for the underlying asset"
      },
      "redeemUnderlying(uint256)": {
        "notice": "Sender redeems cTokens in exchange for a specified amount of underlying asset"
      },
      "repayBorrow(uint256)": {
        "notice": "Sender repays their own borrow"
      },
      "repayBorrowBehalf(address,uint256)": {
        "notice": "Sender repays a borrow belonging to borrower"
      },
      "seize(address,address,uint256)": {
        "notice": "Transfers collateral tokens (this market) to the liquidator."
      },
      "supplyRatePerBlock()": {
        "notice": "Returns the current per-block supply interest rate for this cToken"
      },
      "sweepToken(address)": {
        "notice": "A public function to sweep accidental ERC-20 transfers to this contract. Tokens are sent to admin (timelock)"
      },
      "totalBorrowsCurrent()": {
        "notice": "Returns the current total borrows plus accrued interest"
      },
      "transfer(address,uint256)": {
        "notice": "Transfer `amount` tokens from `msg.sender` to `dst`"
      },
      "transferFrom(address,address,uint256)": {
        "notice": "Transfer `amount` tokens from `src` to `dst`"
      },
      "underlying()": {
        "notice": "Underlying asset for this CToken"
      }
    },
    "notice": "CTokens which wrap an EIP-20 underlying"
  },
  "storageLayout": {
    "storage": [
      {
        "astId": 5560,
        "contract": "contracts/CErc20.sol:CErc20",
        "label": "_notEntered",
        "offset": 0,
        "slot": "0",
        "type": "t_bool"
      },
      {
        "astId": 5562,
        "contract": "contracts/CErc20.sol:CErc20",
        "label": "name",
        "offset": 0,
        "slot": "1",
        "type": "t_string_storage"
      },
      {
        "astId": 5564,
        "contract": "contracts/CErc20.sol:CErc20",
        "label": "symbol",
        "offset": 0,
        "slot": "2",
        "type": "t_string_storage"
      },
      {
        "astId": 5566,
        "contract": "contracts/CErc20.sol:CErc20",
        "label": "decimals",
        "offset": 0,
        "slot": "3",
        "type": "t_uint8"
      },
      {
        "astId": 5574,
        "contract": "contracts/CErc20.sol:CErc20",
        "label": "admin",
        "offset": 1,
        "slot": "3",
        "type": "t_address_payable"
      },
      {
        "astId": 5576,
        "contract": "contracts/CErc20.sol:CErc20",
        "label": "pendingAdmin",
        "offset": 0,
        "slot": "4",
        "type": "t_address_payable"
      },
      {
        "astId": 5578,
        "contract": "contracts/CErc20.sol:CErc20",
        "label": "comptroller",
        "offset": 0,
        "slot": "5",
        "type": "t_contract(ComptrollerInterface)9481"
      },
      {
        "astId": 5580,
        "contract": "contracts/CErc20.sol:CErc20",
        "label": "interestRateModel",
        "offset": 0,
        "slot": "6",
        "type": "t_contract(InterestRateModel)11370"
      },
      {
        "astId": 5582,
        "contract": "contracts/CErc20.sol:CErc20",
        "label": "initialExchangeRateMantissa",
        "offset": 0,
        "slot": "7",
        "type": "t_uint256"
      },
      {
        "astId": 5584,
        "contract": "contracts/CErc20.sol:CErc20",
        "label": "reserveFactorMantissa",
        "offset": 0,
        "slot": "8",
        "type": "t_uint256"
      },
      {
        "astId": 5586,
        "contract": "contracts/CErc20.sol:CErc20",
        "label": "accrualBlockNumber",
        "offset": 0,
        "slot": "9",
        "type": "t_uint256"
      },
      {
        "astId": 5588,
        "contract": "contracts/CErc20.sol:CErc20",
        "label": "borrowIndex",
        "offset": 0,
        "slot": "10",
        "type": "t_uint256"
      },
      {
        "astId": 5590,
        "contract": "contracts/CErc20.sol:CErc20",
        "label": "totalBorrows",
        "offset": 0,
        "slot": "11",
        "type": "t_uint256"
      },
      {
        "astId": 5592,
        "contract": "contracts/CErc20.sol:CErc20",
        "label": "totalReserves",
        "offset": 0,
        "slot": "12",
        "type": "t_uint256"
      },
      {
        "astId": 5594,
        "contract": "contracts/CErc20.sol:CErc20",
        "label": "totalSupply",
        "offset": 0,
        "slot": "13",
        "type": "t_uint256"
      },
      {
        "astId": 5598,
        "contract": "contracts/CErc20.sol:CErc20",
        "label": "accountTokens",
        "offset": 0,
        "slot": "14",
        "type": "t_mapping(t_address,t_uint256)"
      },
      {
        "astId": 5604,
        "contract": "contracts/CErc20.sol:CErc20",
        "label": "transferAllowances",
        "offset": 0,
        "slot": "15",
        "type": "t_mapping(t_address,t_mapping(t_address,t_uint256))"
      },
      {
        "astId": 5613,
        "contract": "contracts/CErc20.sol:CErc20",
        "label": "accountBorrows",
        "offset": 0,
        "slot": "16",
        "type": "t_mapping(t_address,t_struct(BorrowSnapshot)5609_storage)"
      },
      {
        "astId": 5940,
        "contract": "contracts/CErc20.sol:CErc20",
        "label": "underlying",
        "offset": 0,
        "slot": "17",
        "type": "t_address"
      }
    ],
    "types": {
      "t_address": {
        "encoding": "inplace",
        "label": "address",
        "numberOfBytes": "20"
      },
      "t_address_payable": {
        "encoding": "inplace",
        "label": "address payable",
        "numberOfBytes": "20"
      },
      "t_bool": {
        "encoding": "inplace",
        "label": "bool",
        "numberOfBytes": "1"
      },
      "t_contract(ComptrollerInterface)9481": {
        "encoding": "inplace",
        "label": "contract ComptrollerInterface",
        "numberOfBytes": "20"
      },
      "t_contract(InterestRateModel)11370": {
        "encoding": "inplace",
        "label": "contract InterestRateModel",
        "numberOfBytes": "20"
      },
      "t_mapping(t_address,t_mapping(t_address,t_uint256))": {
        "encoding": "mapping",
        "key": "t_address",
        "label": "mapping(address => mapping(address => uint256))",
        "numberOfBytes": "32",
        "value": "t_mapping(t_address,t_uint256)"
      },
      "t_mapping(t_address,t_struct(BorrowSnapshot)5609_storage)": {
        "encoding": "mapping",
        "key": "t_address",
        "label": "mapping(address => struct CTokenStorage.BorrowSnapshot)",
        "numberOfBytes": "32",
        "value": "t_struct(BorrowSnapshot)5609_storage"
      },
      "t_mapping(t_address,t_uint256)": {
        "encoding": "mapping",
        "key": "t_address",
        "label": "mapping(address => uint256)",
        "numberOfBytes": "32",
        "value": "t_uint256"
      },
      "t_string_storage": {
        "encoding": "bytes",
        "label": "string",
        "numberOfBytes": "32"
      },
      "t_struct(BorrowSnapshot)5609_storage": {
        "encoding": "inplace",
        "label": "struct CTokenStorage.BorrowSnapshot",
        "members": [
          {
            "astId": 5606,
            "contract": "contracts/CErc20.sol:CErc20",
            "label": "principal",
            "offset": 0,
            "slot": "0",
            "type": "t_uint256"
          },
          {
            "astId": 5608,
            "contract": "contracts/CErc20.sol:CErc20",
            "label": "interestIndex",
            "offset": 0,
            "slot": "1",
            "type": "t_uint256"
          }
        ],
        "numberOfBytes": "64"
      },
      "t_uint256": {
        "encoding": "inplace",
        "label": "uint256",
        "numberOfBytes": "32"
      },
      "t_uint8": {
        "encoding": "inplace",
        "label": "uint8",
        "numberOfBytes": "1"
      }
    }
  }
}