{
  "address": "0xc6CC421A38c724448219eDb68e9E59Ac389dC7D6",
  "abi": [
    {
      "anonymous": false,
      "inputs": [
        {
          "indexed": false,
          "internalType": "address",
          "name": "asset",
          "type": "address"
        },
        {
          "indexed": false,
          "internalType": "uint256",
          "name": "previousPriceMantissa",
          "type": "uint256"
        },
        {
          "indexed": false,
          "internalType": "uint256",
          "name": "requestedPriceMantissa",
          "type": "uint256"
        },
        {
          "indexed": false,
          "internalType": "uint256",
          "name": "newPriceMantissa",
          "type": "uint256"
        }
      ],
      "name": "PricePosted",
      "type": "event"
    },
    {
      "inputs": [
        {
          "internalType": "address",
          "name": "",
          "type": "address"
        }
      ],
      "name": "chainlinkOracles",
      "outputs": [
        {
          "internalType": "contract IChainlinkAggregatorV3",
          "name": "",
          "type": "address"
        }
      ],
      "stateMutability": "view",
      "type": "function"
    },
    {
      "inputs": [
        {
          "internalType": "address",
          "name": "asset",
          "type": "address"
        }
      ],
      "name": "getPrice",
      "outputs": [
        {
          "internalType": "uint256",
          "name": "",
          "type": "uint256"
        }
      ],
      "stateMutability": "view",
      "type": "function"
    },
    {
      "inputs": [
        {
          "internalType": "contract CToken",
          "name": "cToken",
          "type": "address"
        }
      ],
      "name": "getUnderlyingPrice",
      "outputs": [
        {
          "internalType": "uint256",
          "name": "",
          "type": "uint256"
        }
      ],
      "stateMutability": "view",
      "type": "function"
    },
    {
      "inputs": [],
      "name": "isPriceOracle",
      "outputs": [
        {
          "internalType": "bool",
          "name": "",
          "type": "bool"
        }
      ],
      "stateMutability": "view",
      "type": "function"
    },
    {
      "inputs": [
        {
          "internalType": "address",
          "name": "",
          "type": "address"
        }
      ],
      "name": "prices",
      "outputs": [
        {
          "internalType": "uint256",
          "name": "",
          "type": "uint256"
        }
      ],
      "stateMutability": "view",
      "type": "function"
    },
    {
      "inputs": [
        {
          "internalType": "address",
          "name": "asset",
          "type": "address"
        },
        {
          "internalType": "contract IChainlinkAggregatorV3",
          "name": "chainlinkAggregator",
          "type": "address"
        }
      ],
      "name": "setChainlinkAggregator",
      "outputs": [],
      "stateMutability": "nonpayable",
      "type": "function"
    },
    {
      "inputs": [
        {
          "internalType": "address",
          "name": "asset",
          "type": "address"
        },
        {
          "internalType": "uint256",
          "name": "price",
          "type": "uint256"
        }
      ],
      "name": "setDirectPrice",
      "outputs": [],
      "stateMutability": "nonpayable",
      "type": "function"
    },
    {
      "inputs": [
        {
          "internalType": "contract CToken",
          "name": "cToken",
          "type": "address"
        },
        {
          "internalType": "uint256",
          "name": "underlyingPriceMantissa",
          "type": "uint256"
        }
      ],
      "name": "setUnderlyingPrice",
      "outputs": [],
      "stateMutability": "nonpayable",
      "type": "function"
    }
  ],
  "transactionHash": "0xee03250361fa70730aea1984fc5389534188c17fd7d144c6dba76a57f2e93f18",
  "args": [],
  "numDeployments": 1,
  "solcInputHash": "f2f1ca7f59ca0117723b533f70db86be",
  "bytecode": "0x608060405234801561001057600080fd5b50610826806100206000396000f3fe608060405234801561001057600080fd5b50600436106100885760003560e01c80636a75aa661161005b5780636a75aa661461013b578063a31904051461017d578063cfed246b146101ab578063fc57d4df146101d157610088565b806309a8acb01461008d578063127ffda0146100bb57806341976e09146100e757806366331bba1461011f575b600080fd5b6100b9600480360360408110156100a357600080fd5b506001600160a01b0381351690602001356101f7565b005b6100b9600480360360408110156100d157600080fd5b506001600160a01b03813516906020013561026f565b61010d600480360360208110156100fd57600080fd5b50356001600160a01b03166102f5565b60408051918252519081900360200190f35b6101276103c9565b604080519115158252519081900360200190f35b6101616004803603602081101561015157600080fd5b50356001600160a01b03166103ce565b604080516001600160a01b039092168252519081900360200190f35b6100b96004803603604081101561019357600080fd5b506001600160a01b03813581169160200135166103e9565b61010d600480360360208110156101c157600080fd5b50356001600160a01b0316610417565b61010d600480360360208110156101e757600080fd5b50356001600160a01b0316610429565b6001600160a01b038216600081815260208181526040918290205482519384529083015281810183905260608201839052517fdd71a1d19fcba687442a1d5c58578f1e409af71a79d10fd95a4d66efd8fa9ae79181900360800190a16001600160a01b03909116600090815260208190526040902055565b600061027a83610457565b6001600160a01b038116600081815260208181526040918290205482519384529083015281810185905260608201859052519192507fdd71a1d19fcba687442a1d5c58578f1e409af71a79d10fd95a4d66efd8fa9ae7919081900360800190a16001600160a01b031660009081526020819052604090205550565b6001600160a01b0380821660009081526001602052604081205490911680156103a8576000816001600160a01b03166350d25bcd6040518163ffffffff1660e01b815260040160206040518083038186803b15801561035357600080fd5b505afa158015610367573d6000803e3d6000fd5b505050506040513d602081101561037d57600080fd5b5051905061039f6402540be4006103938361062d565b9063ffffffff61068816565b925050506103c4565b50506001600160a01b0381166000908152602081905260409020545b919050565b600181565b6001602052600090815260409020546001600160a01b031681565b6001600160a01b03918216600090815260016020526040902080546001600160a01b03191691909216179055565b60006020819052908152604090205481565b600080600061043784610457565b6001600160a01b0316815260208101919091526040016000205492915050565b60008061059f836001600160a01b03166395d89b416040518163ffffffff1660e01b815260040160006040518083038186803b15801561049657600080fd5b505afa1580156104aa573d6000803e3d6000fd5b505050506040513d6000823e601f3d908101601f1916820160405260208110156104d357600080fd5b81019080805160405193929190846401000000008211156104f357600080fd5b90830190602082018581111561050857600080fd5b825164010000000081118282018810171561052257600080fd5b82525081516020918201929091019080838360005b8381101561054f578181015183820152602001610537565b50505050905090810190601f16801561057c5780820380516001836020036101000a031916815260200191505b506040818101905260048152630c68aa8960e31b602082015292506106e8915050565b156105bf575073eeeeeeeeeeeeeeeeeeeeeeeeeeeeeeeeeeeeeeee610627565b826001600160a01b0316636f307dc36040518163ffffffff1660e01b815260040160206040518083038186803b1580156105f857600080fd5b505afa15801561060c573d6000803e3d6000fd5b505050506040513d602081101561062257600080fd5b505190505b92915050565b600080821215610684576040805162461bcd60e51b815260206004820181905260248201527f53616665436173743a2076616c7565206d75737420626520706f736974697665604482015290519081900360640190fd5b5090565b60008261069757506000610627565b828202828482816106a457fe5b04146106e15760405162461bcd60e51b81526004018080602001828103825260218152602001806107d06021913960400191505060405180910390fd5b9392505050565b6000816040516020018082805190602001908083835b6020831061071d5780518252601f1990920191602091820191016106fe565b6001836020036101000a03801982511681845116808217855250505050505090500191505060405160208183030381529060405280519060200120836040516020018082805190602001908083835b6020831061078b5780518252601f19909201916020918201910161076c565b6001836020036101000a038019825116818451168082178552505050505050905001915050604051602081830303815290604052805190602001201490509291505056fe536166654d6174683a206d756c7469706c69636174696f6e206f766572666c6f77a264697066735822122034373b20ab523fb452835f77ec1f35471fd078ec1df92c05a8eaf17feba928ef64736f6c634300060a0033",
  "devdoc": {
    "methods": {}
  },
  "userdoc": {
    "methods": {
      "isPriceOracle()": {
        "notice": "Indicator that this is a PriceOracle contract (for inspection)"
      }
    }
  },
  "storageLayout": {
    "storage": [
      {
        "astId": 6262,
        "contract": "contracts/ChainlinkPriceOracle.sol:ChainlinkPriceOracle",
        "label": "prices",
        "offset": 0,
        "slot": "0",
        "type": "t_mapping(t_address,t_uint256)"
      },
      {
        "astId": 6266,
        "contract": "contracts/ChainlinkPriceOracle.sol:ChainlinkPriceOracle",
        "label": "chainlinkOracles",
        "offset": 0,
        "slot": "1",
        "type": "t_mapping(t_address,t_contract(IChainlinkAggregatorV3)13834)"
      }
    ],
    "types": {
      "t_address": {
        "encoding": "inplace",
        "label": "address",
        "numberOfBytes": "20"
      },
      "t_contract(IChainlinkAggregatorV3)13834": {
        "encoding": "inplace",
        "label": "contract IChainlinkAggregatorV3",
        "numberOfBytes": "20"
      },
      "t_mapping(t_address,t_contract(IChainlinkAggregatorV3)13834)": {
        "encoding": "mapping",
        "key": "t_address",
        "label": "mapping(address => contract IChainlinkAggregatorV3)",
        "numberOfBytes": "32",
        "value": "t_contract(IChainlinkAggregatorV3)13834"
      },
      "t_mapping(t_address,t_uint256)": {
        "encoding": "mapping",
        "key": "t_address",
        "label": "mapping(address => uint256)",
        "numberOfBytes": "32",
        "value": "t_uint256"
      },
      "t_uint256": {
        "encoding": "inplace",
        "label": "uint256",
        "numberOfBytes": "32"
      }
    }
  }
}