{
  "address": "0x840A47872E07f83B8cb2bAB63e66BB984dfbFe37",
  "abi": [
    {
      "inputs": [
        {
          "internalType": "contract LINKMockToken",
          "name": "_vestingToken",
          "type": "address"
        },
        {
          "internalType": "contract ComptrollerInterface",
          "name": "_comptroller",
          "type": "address"
        },
        {
          "internalType": "uint256",
          "name": "_defaultVestingAmount",
          "type": "uint256"
        }
      ],
      "stateMutability": "nonpayable",
      "type": "constructor"
    },
    {
      "inputs": [],
      "name": "comptroller",
      "outputs": [
        {
          "internalType": "contract ComptrollerInterface",
          "name": "",
          "type": "address"
        }
      ],
      "stateMutability": "view",
      "type": "function"
    },
    {
      "inputs": [
        {
          "internalType": "address",
          "name": "_recipient",
          "type": "address"
        }
      ],
      "name": "create",
      "outputs": [
        {
          "internalType": "contract Vesting",
          "name": "",
          "type": "address"
        }
      ],
      "stateMutability": "nonpayable",
      "type": "function"
    },
    {
      "inputs": [],
      "name": "defaultVestingAmount",
      "outputs": [
        {
          "internalType": "uint256",
          "name": "",
          "type": "uint256"
        }
      ],
      "stateMutability": "view",
      "type": "function"
    },
    {
      "inputs": [
        {
          "internalType": "address",
          "name": "",
          "type": "address"
        }
      ],
      "name": "userToVestingContract",
      "outputs": [
        {
          "internalType": "address",
          "name": "",
          "type": "address"
        }
      ],
      "stateMutability": "view",
      "type": "function"
    },
    {
      "inputs": [],
      "name": "vestingToken",
      "outputs": [
        {
          "internalType": "contract LINKMockToken",
          "name": "",
          "type": "address"
        }
      ],
      "stateMutability": "view",
      "type": "function"
    }
  ],
  "transactionHash": "0xb536229811c26544572a011e3c01b7ef6d6aec7692fb870afb1f7e1b4feb506d",
  "args": [
    "0x5f105f831dcD69C7af3fA7919dA2e89cd291239C",
    "0xE85177c2E8c9C397fB971A13046317803C063cD7",
    "10000000000000000000000"
  ],
  "numDeployments": 1,
  "solcInputHash": "f2f1ca7f59ca0117723b533f70db86be",
  "bytecode": "0x60e06040526301e187e060005534801561001857600080fd5b50604051610d17380380610d178339818101604052606081101561003b57600080fd5b50805160208201516040909201516001600160601b0319606092831b811660a0529290911b90911660805260c05260805160601c60a05160601c60c051610c646100b3600039806101385280610181528061025c52508060f0528061015f528061022c52508061011452806103275250610c646000f3fe608060405234801561001057600080fd5b50600436106100575760003560e01c806319d152fa1461005c5780635fe3b567146100805780639a692f32146100885780639ed93318146100a2578063ce53f88d146100c8575b600080fd5b6100646100ee565b604080516001600160a01b039092168252519081900360200190f35b610064610112565b610090610136565b60408051918252519081900360200190f35b610064600480360360208110156100b857600080fd5b50356001600160a01b031661015a565b610064600480360360208110156100de57600080fd5b50356001600160a01b03166103a3565b7f000000000000000000000000000000000000000000000000000000000000000081565b7f000000000000000000000000000000000000000000000000000000000000000081565b7f000000000000000000000000000000000000000000000000000000000000000081565b6000807f0000000000000000000000000000000000000000000000000000000000000000837f000000000000000000000000000000000000000000000000000000000000000042426101c86101bb60026000546103be90919063ffffffff16565b429063ffffffff61042016565b6040516101d49061047a565b6001600160a01b0396871681529490951660208501526040808501939093526060840191909152608083015260a082019290925290519081900360c001906000f080158015610227573d6000803e3d6000fd5b5090507f00000000000000000000000000000000000000000000000000000000000000006001600160a01b03166340c10f19827f00000000000000000000000000000000000000000000000000000000000000006040518363ffffffff1660e01b815260040180836001600160a01b03166001600160a01b0316815260200182815260200192505050600060405180830381600087803b1580156102ca57600080fd5b505af11580156102de573d6000803e3d6000fd5b505033600090815260016020908152604080832080546001600160a01b0319166001600160a01b038881169182179092558251631f42141560e01b8152600481019190915291517f00000000000000000000000000000000000000000000000000000000000000009091169550631f421415945060248083019491928390030190829087803b15801561037057600080fd5b505af1158015610384573d6000803e3d6000fd5b505050506040513d602081101561039a57600080fd5b50909392505050565b6001602052600090815260409020546001600160a01b031681565b6000826103cd5750600061041a565b828202828482816103da57fe5b04146104175760405162461bcd60e51b8152600401808060200182810382526021815260200180610c0e6021913960400191505060405180910390fd5b90505b92915050565b600082820183811015610417576040805162461bcd60e51b815260206004820152601b60248201527f536166654d6174683a206164646974696f6e206f766572666c6f770000000000604482015290519081900360640190fd5b610786806104888339019056fe608060405234801561001057600080fd5b50604051610786380380610786833981810160405260c081101561003357600080fd5b508051602082015160408301516060840151608085015160a0909501519394929391929091828210156100975760405162461bcd60e51b815260040180806020018281038252602e81526020018061072c602e913960400191505060405180910390fd5b8181116100d55760405162461bcd60e51b815260040180806020018281038252602c81526020018061075a602c913960400191505060405180910390fd5b600080546001600160a01b039788166001600160a01b031991821617909155600180549690971695169490941790945560029190915560038190556004929092556005556006556106018061012b6000396000f3fe608060405234801561001057600080fd5b50600436106100925760003560e01c806366d003ac1161006657806366d003ac1461010557806384a1931f1461010d578063c046371114610115578063e29bc68b1461011d578063f3640e741461012557610092565b8062728f761461009757806319d152fa146100b15780633bbed4a0146100d55780634e71d92d146100fd575b600080fd5b61009f61012d565b60408051918252519081900360200190f35b6100b9610133565b604080516001600160a01b039092168252519081900360200190f35b6100fb600480360360208110156100eb57600080fd5b50356001600160a01b0316610142565b005b6100fb6101ad565b6100b9610356565b61009f610365565b61009f61036b565b61009f610371565b61009f610377565b60025481565b6000546001600160a01b031681565b6001546001600160a01b0316331461018b5760405162461bcd60e51b81526004018080602001828103825260298152602001806105606029913960400191505060405180910390fd5b600180546001600160a01b0319166001600160a01b0392909216919091179055565b6004544210156101ee5760405162461bcd60e51b81526004018080602001828103825260228152602001806105896022913960400191505060405180910390fd5b6000600554421061027757600054604080516370a0823160e01b815230600482015290516001600160a01b03909216916370a0823191602480820192602092909190829003018186803b15801561024457600080fd5b505afa158015610258573d6000803e3d6000fd5b505050506040513d602081101561026e57600080fd5b505190506102cb565b6102c461029160035460055461037d90919063ffffffff16565b6102b86102a96006544261037d90919063ffffffff16565b6002549063ffffffff6103c816565b9063ffffffff61042116565b4260065590505b600080546001546040805163a9059cbb60e01b81526001600160a01b039283166004820152602481018690529051919092169263a9059cbb92604480820193602093909283900390910190829087803b15801561032757600080fd5b505af115801561033b573d6000803e3d6000fd5b505050506040513d602081101561035157600080fd5b505050565b6001546001600160a01b031681565b60055481565b60065481565b60035481565b60045481565b60006103bf83836040518060400160405280601f81526020017f536166654d6174683a207375627472616374696f6e20756e646572666c6f7700815250610463565b90505b92915050565b6000826103d7575060006103c2565b828202828482816103e457fe5b04146103bf5760405162461bcd60e51b81526004018080602001828103825260218152602001806105ab6021913960400191505060405180910390fd5b60006103bf83836040518060400160405280601a81526020017f536166654d6174683a206469766973696f6e206279207a65726f0000000000008152506104fa565b600081848411156104f25760405162461bcd60e51b81526004018080602001828103825283818151815260200191508051906020019080838360005b838110156104b757818101518382015260200161049f565b50505050905090810190601f1680156104e45780820380516001836020036101000a031916815260200191505b509250505060405180910390fd5b505050900390565b600081836105495760405162461bcd60e51b81526020600482018181528351602484015283519092839260449091019190850190808383600083156104b757818101518382015260200161049f565b50600083858161055557fe5b049594505050505056fe54726561737572795665737465722e736574526563697069656e743a20756e617574686f72697a656454726561737572795665737465722e636c61696d3a206e6f742074696d6520796574536166654d6174683a206d756c7469706c69636174696f6e206f766572666c6f77a2646970667358221220ce37cfbd7e7ec3d91ed847af210c34238952f0bdb95f41840b7504349132570164736f6c634300060a003354726561737572795665737465722e636f6e7374727563746f723a20636c69666620697320746f6f206561726c7954726561737572795665737465722e636f6e7374727563746f723a20656e6420697320746f6f206561726c79536166654d6174683a206d756c7469706c69636174696f6e206f766572666c6f77a2646970667358221220211a177a057176a0de83d4da73e0932c5b4df7f4e4bcb31a807cc4accf4f066a64736f6c634300060a0033",
  "devdoc": {
    "methods": {}
  },
  "userdoc": {
    "methods": {}
  },
  "storageLayout": {
    "storage": [
      {
        "astId": 13552,
        "contract": "contracts/VestingDemoCreator.sol:VestingDemoCreator",
        "label": "ONE_YEAR_IN_SECONDS",
        "offset": 0,
        "slot": "0",
        "type": "t_uint256"
      },
      {
        "astId": 13562,
        "contract": "contracts/VestingDemoCreator.sol:VestingDemoCreator",
        "label": "userToVestingContract",
        "offset": 0,
        "slot": "1",
        "type": "t_mapping(t_address,t_address)"
      }
    ],
    "types": {
      "t_address": {
        "encoding": "inplace",
        "label": "address",
        "numberOfBytes": "20"
      },
      "t_mapping(t_address,t_address)": {
        "encoding": "mapping",
        "key": "t_address",
        "label": "mapping(address => address)",
        "numberOfBytes": "32",
        "value": "t_address"
      },
      "t_uint256": {
        "encoding": "inplace",
        "label": "uint256",
        "numberOfBytes": "32"
      }
    }
  }
}